{
	"contracts/TaskMarket.sol": {
		"TaskMarket": {
			"abi": [
				{
					"inputs": [],
					"stateMutability": "nonpayable",
					"type": "constructor"
				},
				{
					"inputs": [
						{
							"internalType": "uint256",
							"name": "id",
							"type": "uint256"
						}
					],
					"name": "AcceptTask",
					"outputs": [],
					"stateMutability": "nonpayable",
					"type": "function"
				},
				{
					"inputs": [
						{
							"internalType": "uint256",
							"name": "id",
							"type": "uint256"
						}
					],
					"name": "FinishTask",
					"outputs": [],
					"stateMutability": "nonpayable",
					"type": "function"
				},
				{
					"inputs": [
						{
							"internalType": "address",
							"name": "_who",
							"type": "address"
						},
						{
							"internalType": "uint256",
							"name": "_pay",
							"type": "uint256"
						}
					],
					"name": "NewTask",
					"outputs": [],
					"stateMutability": "nonpayable",
					"type": "function"
				},
				{
					"inputs": [
						{
							"internalType": "uint256",
							"name": "id",
							"type": "uint256"
						}
					],
					"name": "RequestChanges",
					"outputs": [],
					"stateMutability": "nonpayable",
					"type": "function"
				},
				{
					"inputs": [],
					"name": "sht",
					"outputs": [
						{
							"internalType": "contract Shitcoin",
							"name": "",
							"type": "address"
						}
					],
					"stateMutability": "view",
					"type": "function"
				},
				{
					"inputs": [
						{
							"internalType": "uint256",
							"name": "",
							"type": "uint256"
						}
					],
					"name": "tasks",
					"outputs": [
						{
							"internalType": "address",
							"name": "owner",
							"type": "address"
						},
						{
							"internalType": "uint256",
							"name": "payment",
							"type": "uint256"
						},
						{
							"internalType": "address",
							"name": "rabbit",
							"type": "address"
						},
						{
							"internalType": "bool",
							"name": "done",
							"type": "bool"
						}
					],
					"stateMutability": "view",
					"type": "function"
				}
			],
			"devdoc": {
				"kind": "dev",
				"methods": {},
				"version": 1
			},
			"evm": {
				"assembly": "    /* \"contracts/TaskMarket.sol\":1509:2864  contract TaskMarket {... */\n  mstore(0x40, 0x80)\n    /* \"contracts/TaskMarket.sol\":1708:1771  constructor(){... */\n  callvalue\n  dup1\n  iszero\n  tag_1\n  jumpi\n  0x00\n  dup1\n  revert\ntag_1:\n  pop\n    /* \"contracts/TaskMarket.sol\":1758:1762  this */\n  address\n    /* \"contracts/TaskMarket.sol\":1737:1764  new Shitcoin(address(this)) */\n  mload(0x40)\n  tag_4\n  swap1\n  tag_5\n  jump\t// in\ntag_4:\n  tag_6\n  swap2\n  swap1\n  tag_7\n  jump\t// in\ntag_6:\n  mload(0x40)\n  dup1\n  swap2\n  sub\n  swap1\n  0x00\n  create\n  dup1\n  iszero\n  dup1\n  iszero\n  tag_8\n  jumpi\n  returndatasize\n  0x00\n  dup1\n  returndatacopy\n  revert(0x00, returndatasize)\ntag_8:\n  pop\n    /* \"contracts/TaskMarket.sol\":1731:1734  sht */\n  0x00\n  dup1\n    /* \"contracts/TaskMarket.sol\":1731:1764  sht = new Shitcoin(address(this)) */\n  0x0100\n  exp\n  dup2\n  sload\n  dup2\n  0xffffffffffffffffffffffffffffffffffffffff\n  mul\n  not\n  and\n  swap1\n  dup4\n  0xffffffffffffffffffffffffffffffffffffffff\n  and\n  mul\n  or\n  swap1\n  sstore\n  pop\n    /* \"contracts/TaskMarket.sol\":1509:2864  contract TaskMarket {... */\n  jump(tag_9)\ntag_5:\n  dataSize(sub_1)\n  dup1\n  dataOffset(sub_1)\n  dup4\n  codecopy\n  add\n  swap1\n  jump\t// out\n    /* \"#utility.yul\":7:133   */\ntag_10:\n    /* \"#utility.yul\":44:51   */\n  0x00\n    /* \"#utility.yul\":84:126   */\n  0xffffffffffffffffffffffffffffffffffffffff\n    /* \"#utility.yul\":77:82   */\n  dup3\n    /* \"#utility.yul\":73:127   */\n  and\n    /* \"#utility.yul\":62:127   */\n  swap1\n  pop\n    /* \"#utility.yul\":7:133   */\n  swap2\n  swap1\n  pop\n  jump\t// out\n    /* \"#utility.yul\":139:235   */\ntag_11:\n    /* \"#utility.yul\":176:183   */\n  0x00\n    /* \"#utility.yul\":205:229   */\n  tag_16\n    /* \"#utility.yul\":223:228   */\n  dup3\n    /* \"#utility.yul\":205:229   */\n  tag_10\n  jump\t// in\ntag_16:\n    /* \"#utility.yul\":194:229   */\n  swap1\n  pop\n    /* \"#utility.yul\":139:235   */\n  swap2\n  swap1\n  pop\n  jump\t// out\n    /* \"#utility.yul\":241:359   */\ntag_12:\n    /* \"#utility.yul\":328:352   */\n  tag_18\n    /* \"#utility.yul\":346:351   */\n  dup2\n    /* \"#utility.yul\":328:352   */\n  tag_11\n  jump\t// in\ntag_18:\n    /* \"#utility.yul\":323:326   */\n  dup3\n    /* \"#utility.yul\":316:353   */\n  mstore\n    /* \"#utility.yul\":241:359   */\n  pop\n  pop\n  jump\t// out\n    /* \"#utility.yul\":365:587   */\ntag_7:\n    /* \"#utility.yul\":458:462   */\n  0x00\n    /* \"#utility.yul\":496:498   */\n  0x20\n    /* \"#utility.yul\":485:494   */\n  dup3\n    /* \"#utility.yul\":481:499   */\n  add\n    /* \"#utility.yul\":473:499   */\n  swap1\n  pop\n    /* \"#utility.yul\":509:580   */\n  tag_20\n    /* \"#utility.yul\":577:578   */\n  0x00\n    /* \"#utility.yul\":566:575   */\n  dup4\n    /* \"#utility.yul\":562:579   */\n  add\n    /* \"#utility.yul\":553:559   */\n  dup5\n    /* \"#utility.yul\":509:580   */\n  tag_12\n  jump\t// in\ntag_20:\n    /* \"#utility.yul\":365:587   */\n  swap3\n  swap2\n  pop\n  pop\n  jump\t// out\n    /* \"contracts/TaskMarket.sol\":1509:2864  contract TaskMarket {... */\ntag_9:\n  dataSize(sub_0)\n  dup1\n  dataOffset(sub_0)\n  0x00\n  codecopy\n  0x00\n  return\nstop\n\nsub_0: assembly {\n        /* \"contracts/TaskMarket.sol\":1509:2864  contract TaskMarket {... */\n      mstore(0x40, 0x80)\n      callvalue\n      dup1\n      iszero\n      tag_1\n      jumpi\n      0x00\n      dup1\n      revert\n    tag_1:\n      pop\n      jumpi(tag_2, lt(calldatasize, 0x04))\n      shr(0xe0, calldataload(0x00))\n      dup1\n      0x10abd783\n      eq\n      tag_3\n      jumpi\n      dup1\n      0x5be8c71c\n      eq\n      tag_4\n      jumpi\n      dup1\n      0x689a1244\n      eq\n      tag_5\n      jumpi\n      dup1\n      0x7a2b6159\n      eq\n      tag_6\n      jumpi\n      dup1\n      0x8d977672\n      eq\n      tag_7\n      jumpi\n      dup1\n      0xd43d129f\n      eq\n      tag_8\n      jumpi\n    tag_2:\n      0x00\n      dup1\n      revert\n        /* \"contracts/TaskMarket.sol\":2144:2369  function FinishTask(uint id) external {... */\n    tag_3:\n      tag_9\n      0x04\n      dup1\n      calldatasize\n      sub\n      dup2\n      add\n      swap1\n      tag_10\n      swap2\n      swap1\n      tag_11\n      jump\t// in\n    tag_10:\n      tag_12\n      jump\t// in\n    tag_9:\n      stop\n        /* \"contracts/TaskMarket.sol\":2535:2753  function AcceptTask(uint id) external TaskDoneAndOwner(id) {... */\n    tag_4:\n      tag_13\n      0x04\n      dup1\n      calldatasize\n      sub\n      dup2\n      add\n      swap1\n      tag_14\n      swap2\n      swap1\n      tag_11\n      jump\t// in\n    tag_14:\n      tag_15\n      jump\t// in\n    tag_13:\n      stop\n        /* \"contracts/TaskMarket.sol\":1536:1555  Shitcoin public sht */\n    tag_5:\n      tag_16\n      tag_17\n      jump\t// in\n    tag_16:\n      mload(0x40)\n      tag_18\n      swap2\n      swap1\n      tag_19\n      jump\t// in\n    tag_18:\n      mload(0x40)\n      dup1\n      swap2\n      sub\n      swap1\n      return\n        /* \"contracts/TaskMarket.sol\":1777:2138  function NewTask(address _who, uint256 _pay) external {... */\n    tag_6:\n      tag_20\n      0x04\n      dup1\n      calldatasize\n      sub\n      dup2\n      add\n      swap1\n      tag_21\n      swap2\n      swap1\n      tag_22\n      jump\t// in\n    tag_21:\n      tag_23\n      jump\t// in\n    tag_20:\n      stop\n        /* \"contracts/TaskMarket.sol\":1682:1701  Task[] public tasks */\n    tag_7:\n      tag_24\n      0x04\n      dup1\n      calldatasize\n      sub\n      dup2\n      add\n      swap1\n      tag_25\n      swap2\n      swap1\n      tag_11\n      jump\t// in\n    tag_25:\n      tag_26\n      jump\t// in\n    tag_24:\n      mload(0x40)\n      tag_27\n      swap5\n      swap4\n      swap3\n      swap2\n      swap1\n      tag_28\n      jump\t// in\n    tag_27:\n      mload(0x40)\n      dup1\n      swap2\n      sub\n      swap1\n      return\n        /* \"contracts/TaskMarket.sol\":2759:2862  function RequestChanges(uint id) external  TaskDoneAndOwner(id) {... */\n    tag_8:\n      tag_29\n      0x04\n      dup1\n      calldatasize\n      sub\n      dup2\n      add\n      swap1\n      tag_30\n      swap2\n      swap1\n      tag_11\n      jump\t// in\n    tag_30:\n      tag_31\n      jump\t// in\n    tag_29:\n      stop\n        /* \"contracts/TaskMarket.sol\":2144:2369  function FinishTask(uint id) external {... */\n    tag_12:\n        /* \"contracts/TaskMarket.sol\":2192:2206  Task storage t */\n      0x00\n        /* \"contracts/TaskMarket.sol\":2209:2214  tasks */\n      0x01\n        /* \"contracts/TaskMarket.sol\":2215:2217  id */\n      dup3\n        /* \"contracts/TaskMarket.sol\":2209:2218  tasks[id] */\n      dup2\n      sload\n      dup2\n      lt\n      tag_33\n      jumpi\n      tag_34\n      tag_35\n      jump\t// in\n    tag_34:\n    tag_33:\n      swap1\n      0x00\n      mstore\n      keccak256(0x00, 0x20)\n      swap1\n      0x03\n      mul\n      add\n        /* \"contracts/TaskMarket.sol\":2192:2218  Task storage t = tasks[id] */\n      swap1\n      pop\n        /* \"contracts/TaskMarket.sol\":2238:2239  t */\n      dup1\n        /* \"contracts/TaskMarket.sol\":2238:2244  t.done */\n      0x02\n      add\n      0x14\n      swap1\n      sload\n      swap1\n      0x0100\n      exp\n      swap1\n      div\n      0xff\n      and\n        /* \"contracts/TaskMarket.sol\":2237:2244  !t.done */\n      iszero\n        /* \"contracts/TaskMarket.sol\":2229:2245  require(!t.done) */\n      tag_37\n      jumpi\n      0x00\n      dup1\n      revert\n    tag_37:\n        /* \"contracts/TaskMarket.sol\":2306:2316  msg.sender */\n      caller\n        /* \"contracts/TaskMarket.sol\":2294:2316  t.rabbit == msg.sender */\n      0xffffffffffffffffffffffffffffffffffffffff\n      and\n        /* \"contracts/TaskMarket.sol\":2294:2295  t */\n      dup2\n        /* \"contracts/TaskMarket.sol\":2294:2302  t.rabbit */\n      0x02\n      add\n      0x00\n      swap1\n      sload\n      swap1\n      0x0100\n      exp\n      swap1\n      div\n      0xffffffffffffffffffffffffffffffffffffffff\n      and\n        /* \"contracts/TaskMarket.sol\":2294:2316  t.rabbit == msg.sender */\n      0xffffffffffffffffffffffffffffffffffffffff\n      and\n      eq\n        /* \"contracts/TaskMarket.sol\":2286:2317  require(t.rabbit == msg.sender) */\n      tag_38\n      jumpi\n      0x00\n      dup1\n      revert\n    tag_38:\n        /* \"contracts/TaskMarket.sol\":2337:2341  true */\n      0x01\n        /* \"contracts/TaskMarket.sol\":2328:2329  t */\n      dup2\n        /* \"contracts/TaskMarket.sol\":2328:2334  t.done */\n      0x02\n      add\n      0x14\n        /* \"contracts/TaskMarket.sol\":2328:2341  t.done = true */\n      0x0100\n      exp\n      dup2\n      sload\n      dup2\n      0xff\n      mul\n      not\n      and\n      swap1\n      dup4\n      iszero\n      iszero\n      mul\n      or\n      swap1\n      sstore\n      pop\n        /* \"contracts/TaskMarket.sol\":2182:2369  {... */\n      pop\n        /* \"contracts/TaskMarket.sol\":2144:2369  function FinishTask(uint id) external {... */\n      pop\n      jump\t// out\n        /* \"contracts/TaskMarket.sol\":2535:2753  function AcceptTask(uint id) external TaskDoneAndOwner(id) {... */\n    tag_15:\n        /* \"contracts/TaskMarket.sol\":2590:2592  id */\n      dup1\n        /* \"contracts/TaskMarket.sol\":2420:2434  Task storage t */\n      0x00\n        /* \"contracts/TaskMarket.sol\":2437:2442  tasks */\n      0x01\n        /* \"contracts/TaskMarket.sol\":2443:2445  id */\n      dup3\n        /* \"contracts/TaskMarket.sol\":2437:2446  tasks[id] */\n      dup2\n      sload\n      dup2\n      lt\n      tag_40\n      jumpi\n      tag_41\n      tag_35\n      jump\t// in\n    tag_41:\n    tag_40:\n      swap1\n      0x00\n      mstore\n      keccak256(0x00, 0x20)\n      swap1\n      0x03\n      mul\n      add\n        /* \"contracts/TaskMarket.sol\":2420:2446  Task storage t = tasks[id] */\n      swap1\n      pop\n        /* \"contracts/TaskMarket.sol\":2464:2465  t */\n      dup1\n        /* \"contracts/TaskMarket.sol\":2464:2470  t.done */\n      0x02\n      add\n      0x14\n      swap1\n      sload\n      swap1\n      0x0100\n      exp\n      swap1\n      div\n      0xff\n      and\n        /* \"contracts/TaskMarket.sol\":2456:2471  require(t.done) */\n      tag_43\n      jumpi\n      0x00\n      dup1\n      revert\n    tag_43:\n        /* \"contracts/TaskMarket.sol\":2500:2510  msg.sender */\n      caller\n        /* \"contracts/TaskMarket.sol\":2489:2510  t.owner == msg.sender */\n      0xffffffffffffffffffffffffffffffffffffffff\n      and\n        /* \"contracts/TaskMarket.sol\":2489:2490  t */\n      dup2\n        /* \"contracts/TaskMarket.sol\":2489:2496  t.owner */\n      0x00\n      add\n      0x00\n      swap1\n      sload\n      swap1\n      0x0100\n      exp\n      swap1\n      div\n      0xffffffffffffffffffffffffffffffffffffffff\n      and\n        /* \"contracts/TaskMarket.sol\":2489:2510  t.owner == msg.sender */\n      0xffffffffffffffffffffffffffffffffffffffff\n      and\n      eq\n        /* \"contracts/TaskMarket.sol\":2481:2511  require(t.owner == msg.sender) */\n      tag_44\n      jumpi\n      0x00\n      dup1\n      revert\n    tag_44:\n        /* \"contracts/TaskMarket.sol\":2604:2617  Task memory t */\n      0x00\n        /* \"contracts/TaskMarket.sol\":2620:2625  tasks */\n      0x01\n        /* \"contracts/TaskMarket.sol\":2626:2628  id */\n      dup5\n        /* \"contracts/TaskMarket.sol\":2620:2629  tasks[id] */\n      dup2\n      sload\n      dup2\n      lt\n      tag_46\n      jumpi\n      tag_47\n      tag_35\n      jump\t// in\n    tag_47:\n    tag_46:\n      swap1\n      0x00\n      mstore\n      keccak256(0x00, 0x20)\n      swap1\n      0x03\n      mul\n      add\n        /* \"contracts/TaskMarket.sol\":2604:2629  Task memory t = tasks[id] */\n      mload(0x40)\n      dup1\n      0x80\n      add\n      0x40\n      mstore\n      swap1\n      dup2\n      0x00\n      dup3\n      add\n      0x00\n      swap1\n      sload\n      swap1\n      0x0100\n      exp\n      swap1\n      div\n      0xffffffffffffffffffffffffffffffffffffffff\n      and\n      0xffffffffffffffffffffffffffffffffffffffff\n      and\n      0xffffffffffffffffffffffffffffffffffffffff\n      and\n      dup2\n      mstore\n      0x20\n      add\n      0x01\n      dup3\n      add\n      sload\n      dup2\n      mstore\n      0x20\n      add\n      0x02\n      dup3\n      add\n      0x00\n      swap1\n      sload\n      swap1\n      0x0100\n      exp\n      swap1\n      div\n      0xffffffffffffffffffffffffffffffffffffffff\n      and\n      0xffffffffffffffffffffffffffffffffffffffff\n      and\n      0xffffffffffffffffffffffffffffffffffffffff\n      and\n      dup2\n      mstore\n      0x20\n      add\n      0x02\n      dup3\n      add\n      0x14\n      swap1\n      sload\n      swap1\n      0x0100\n      exp\n      swap1\n      div\n      0xff\n      and\n      iszero\n      iszero\n      iszero\n      iszero\n      dup2\n      mstore\n      pop\n      pop\n      swap1\n      pop\n        /* \"contracts/TaskMarket.sol\":2639:2642  sht */\n      0x00\n      dup1\n      sload\n      swap1\n      0x0100\n      exp\n      swap1\n      div\n      0xffffffffffffffffffffffffffffffffffffffff\n      and\n        /* \"contracts/TaskMarket.sol\":2639:2655  sht.transferFrom */\n      0xffffffffffffffffffffffffffffffffffffffff\n      and\n      0x23b872dd\n        /* \"contracts/TaskMarket.sol\":2664:2668  this */\n      address\n        /* \"contracts/TaskMarket.sol\":2671:2672  t */\n      dup4\n        /* \"contracts/TaskMarket.sol\":2671:2679  t.rabbit */\n      0x40\n      add\n      mload\n        /* \"contracts/TaskMarket.sol\":2681:2682  t */\n      dup5\n        /* \"contracts/TaskMarket.sol\":2681:2690  t.payment */\n      0x20\n      add\n      mload\n        /* \"contracts/TaskMarket.sol\":2639:2691  sht.transferFrom(address(this), t.rabbit, t.payment) */\n      mload(0x40)\n      dup5\n      0xffffffff\n      and\n      0xe0\n      shl\n      dup2\n      mstore\n      0x04\n      add\n      tag_49\n      swap4\n      swap3\n      swap2\n      swap1\n      tag_50\n      jump\t// in\n    tag_49:\n      0x00\n      mload(0x40)\n      dup1\n      dup4\n      sub\n      dup2\n      0x00\n      dup8\n      dup1\n      extcodesize\n      iszero\n      dup1\n      iszero\n      tag_51\n      jumpi\n      0x00\n      dup1\n      revert\n    tag_51:\n      pop\n      gas\n      call\n      iszero\n      dup1\n      iszero\n      tag_53\n      jumpi\n      returndatasize\n      0x00\n      dup1\n      returndatacopy\n      revert(0x00, returndatasize)\n    tag_53:\n      pop\n      pop\n      pop\n      pop\n        /* \"contracts/TaskMarket.sol\":2722:2727  tasks */\n      0x01\n        /* \"contracts/TaskMarket.sol\":2728:2730  id */\n      dup5\n        /* \"contracts/TaskMarket.sol\":2722:2731  tasks[id] */\n      dup2\n      sload\n      dup2\n      lt\n      tag_54\n      jumpi\n      tag_55\n      tag_35\n      jump\t// in\n    tag_55:\n    tag_54:\n      swap1\n      0x00\n      mstore\n      keccak256(0x00, 0x20)\n      swap1\n      0x03\n      mul\n      add\n      0x00\n        /* \"contracts/TaskMarket.sol\":2715:2731  delete tasks[id] */\n      dup1\n      dup3\n      add\n      exp(0x0100, 0x00)\n      dup2\n      sload\n      swap1\n      0xffffffffffffffffffffffffffffffffffffffff\n      mul\n      not\n      and\n      swap1\n      sstore\n      0x01\n      dup3\n      add\n      0x00\n      swap1\n      sstore\n      0x02\n      dup3\n      add\n      exp(0x0100, 0x00)\n      dup2\n      sload\n      swap1\n      0xffffffffffffffffffffffffffffffffffffffff\n      mul\n      not\n      and\n      swap1\n      sstore\n      0x02\n      dup3\n      add\n      exp(0x0100, 0x14)\n      dup2\n      sload\n      swap1\n      0xff\n      mul\n      not\n      and\n      swap1\n      sstore\n      pop\n      pop\n        /* \"contracts/TaskMarket.sol\":2594:2753  {... */\n      pop\n        /* \"contracts/TaskMarket.sol\":2410:2529  {... */\n      pop\n        /* \"contracts/TaskMarket.sol\":2535:2753  function AcceptTask(uint id) external TaskDoneAndOwner(id) {... */\n      pop\n      pop\n      jump\t// out\n        /* \"contracts/TaskMarket.sol\":1536:1555  Shitcoin public sht */\n    tag_17:\n      0x00\n      dup1\n      sload\n      swap1\n      0x0100\n      exp\n      swap1\n      div\n      0xffffffffffffffffffffffffffffffffffffffff\n      and\n      dup2\n      jump\t// out\n        /* \"contracts/TaskMarket.sol\":1777:2138  function NewTask(address _who, uint256 _pay) external {... */\n    tag_23:\n        /* \"contracts/TaskMarket.sol\":1876:1880  _pay */\n      dup1\n        /* \"contracts/TaskMarket.sol\":1849:1852  sht */\n      0x00\n      dup1\n      sload\n      swap1\n      0x0100\n      exp\n      swap1\n      div\n      0xffffffffffffffffffffffffffffffffffffffff\n      and\n        /* \"contracts/TaskMarket.sol\":1849:1860  sht.wallets */\n      0xffffffffffffffffffffffffffffffffffffffff\n      and\n      0x89b08f11\n        /* \"contracts/TaskMarket.sol\":1861:1871  msg.sender */\n      caller\n        /* \"contracts/TaskMarket.sol\":1849:1872  sht.wallets(msg.sender) */\n      mload(0x40)\n      dup3\n      0xffffffff\n      and\n      0xe0\n      shl\n      dup2\n      mstore\n      0x04\n      add\n      tag_58\n      swap2\n      swap1\n      tag_59\n      jump\t// in\n    tag_58:\n      0x20\n      mload(0x40)\n      dup1\n      dup4\n      sub\n      dup2\n      dup7\n      gas\n      staticcall\n      iszero\n      dup1\n      iszero\n      tag_61\n      jumpi\n      returndatasize\n      0x00\n      dup1\n      returndatacopy\n      revert(0x00, returndatasize)\n    tag_61:\n      pop\n      pop\n      pop\n      pop\n      mload(0x40)\n      returndatasize\n      not(0x1f)\n      0x1f\n      dup3\n      add\n      and\n      dup3\n      add\n      dup1\n      0x40\n      mstore\n      pop\n      dup2\n      add\n      swap1\n      tag_62\n      swap2\n      swap1\n      tag_63\n      jump\t// in\n    tag_62:\n        /* \"contracts/TaskMarket.sol\":1849:1880  sht.wallets(msg.sender) >= _pay */\n      lt\n      iszero\n        /* \"contracts/TaskMarket.sol\":1841:1881  require(sht.wallets(msg.sender) >= _pay) */\n      tag_64\n      jumpi\n      0x00\n      dup1\n      revert\n    tag_64:\n        /* \"contracts/TaskMarket.sol\":1913:1917  _who */\n      dup2\n        /* \"contracts/TaskMarket.sol\":1899:1917  msg.sender != _who */\n      0xffffffffffffffffffffffffffffffffffffffff\n      and\n        /* \"contracts/TaskMarket.sol\":1899:1909  msg.sender */\n      caller\n        /* \"contracts/TaskMarket.sol\":1899:1917  msg.sender != _who */\n      0xffffffffffffffffffffffffffffffffffffffff\n      and\n      sub\n        /* \"contracts/TaskMarket.sol\":1891:1918  require(msg.sender != _who) */\n      tag_65\n      jumpi\n      0x00\n      dup1\n      revert\n    tag_65:\n        /* \"contracts/TaskMarket.sol\":1976:1977  0 */\n      0x00\n        /* \"contracts/TaskMarket.sol\":1969:1973  _pay */\n      dup2\n        /* \"contracts/TaskMarket.sol\":1969:1977  _pay > 0 */\n      gt\n        /* \"contracts/TaskMarket.sol\":1961:1978  require(_pay > 0) */\n      tag_66\n      jumpi\n      0x00\n      dup1\n      revert\n    tag_66:\n        /* \"contracts/TaskMarket.sol\":2024:2027  sht */\n      0x00\n      dup1\n      sload\n      swap1\n      0x0100\n      exp\n      swap1\n      div\n      0xffffffffffffffffffffffffffffffffffffffff\n      and\n        /* \"contracts/TaskMarket.sol\":2024:2040  sht.transferFrom */\n      0xffffffffffffffffffffffffffffffffffffffff\n      and\n      0x23b872dd\n        /* \"contracts/TaskMarket.sol\":2041:2051  msg.sender */\n      caller\n        /* \"contracts/TaskMarket.sol\":2061:2065  this */\n      address\n        /* \"contracts/TaskMarket.sol\":2068:2072  _pay */\n      dup5\n        /* \"contracts/TaskMarket.sol\":2024:2073  sht.transferFrom(msg.sender, address(this), _pay) */\n      mload(0x40)\n      dup5\n      0xffffffff\n      and\n      0xe0\n      shl\n      dup2\n      mstore\n      0x04\n      add\n      tag_67\n      swap4\n      swap3\n      swap2\n      swap1\n      tag_50\n      jump\t// in\n    tag_67:\n      0x00\n      mload(0x40)\n      dup1\n      dup4\n      sub\n      dup2\n      0x00\n      dup8\n      dup1\n      extcodesize\n      iszero\n      dup1\n      iszero\n      tag_68\n      jumpi\n      0x00\n      dup1\n      revert\n    tag_68:\n      pop\n      gas\n      call\n      iszero\n      dup1\n      iszero\n      tag_70\n      jumpi\n      returndatasize\n      0x00\n      dup1\n      returndatacopy\n      revert(0x00, returndatasize)\n    tag_70:\n      pop\n      pop\n      pop\n      pop\n        /* \"contracts/TaskMarket.sol\":2084:2089  tasks */\n      0x01\n        /* \"contracts/TaskMarket.sol\":2095:2130  Task(msg.sender, _pay, _who, false) */\n      mload(0x40)\n      dup1\n      0x80\n      add\n      0x40\n      mstore\n      dup1\n        /* \"contracts/TaskMarket.sol\":2100:2110  msg.sender */\n      caller\n        /* \"contracts/TaskMarket.sol\":2095:2130  Task(msg.sender, _pay, _who, false) */\n      0xffffffffffffffffffffffffffffffffffffffff\n      and\n      dup2\n      mstore\n      0x20\n      add\n        /* \"contracts/TaskMarket.sol\":2112:2116  _pay */\n      dup4\n        /* \"contracts/TaskMarket.sol\":2095:2130  Task(msg.sender, _pay, _who, false) */\n      dup2\n      mstore\n      0x20\n      add\n        /* \"contracts/TaskMarket.sol\":2118:2122  _who */\n      dup5\n        /* \"contracts/TaskMarket.sol\":2095:2130  Task(msg.sender, _pay, _who, false) */\n      0xffffffffffffffffffffffffffffffffffffffff\n      and\n      dup2\n      mstore\n      0x20\n      add\n        /* \"contracts/TaskMarket.sol\":2124:2129  false */\n      0x00\n        /* \"contracts/TaskMarket.sol\":2095:2130  Task(msg.sender, _pay, _who, false) */\n      iszero\n      iszero\n      dup2\n      mstore\n      pop\n        /* \"contracts/TaskMarket.sol\":2084:2131  tasks.push(Task(msg.sender, _pay, _who, false)) */\n      swap1\n      dup1\n      0x01\n      dup2\n      sload\n      add\n      dup1\n      dup3\n      sstore\n      dup1\n      swap2\n      pop\n      pop\n      0x01\n      swap1\n      sub\n      swap1\n      0x00\n      mstore\n      keccak256(0x00, 0x20)\n      swap1\n      0x03\n      mul\n      add\n      0x00\n      swap1\n      swap2\n      swap1\n      swap2\n      swap1\n      swap2\n      pop\n      0x00\n      dup3\n      add\n      mload\n      dup2\n      0x00\n      add\n      exp(0x0100, 0x00)\n      dup2\n      sload\n      dup2\n      0xffffffffffffffffffffffffffffffffffffffff\n      mul\n      not\n      and\n      swap1\n      dup4\n      0xffffffffffffffffffffffffffffffffffffffff\n      and\n      mul\n      or\n      swap1\n      sstore\n      pop\n      0x20\n      dup3\n      add\n      mload\n      dup2\n      0x01\n      add\n      sstore\n      0x40\n      dup3\n      add\n      mload\n      dup2\n      0x02\n      add\n      exp(0x0100, 0x00)\n      dup2\n      sload\n      dup2\n      0xffffffffffffffffffffffffffffffffffffffff\n      mul\n      not\n      and\n      swap1\n      dup4\n      0xffffffffffffffffffffffffffffffffffffffff\n      and\n      mul\n      or\n      swap1\n      sstore\n      pop\n      0x60\n      dup3\n      add\n      mload\n      dup2\n      0x02\n      add\n      exp(0x0100, 0x14)\n      dup2\n      sload\n      dup2\n      0xff\n      mul\n      not\n      and\n      swap1\n      dup4\n      iszero\n      iszero\n      mul\n      or\n      swap1\n      sstore\n      pop\n      pop\n      pop\n        /* \"contracts/TaskMarket.sol\":1777:2138  function NewTask(address _who, uint256 _pay) external {... */\n      pop\n      pop\n      jump\t// out\n        /* \"contracts/TaskMarket.sol\":1682:1701  Task[] public tasks */\n    tag_26:\n      0x01\n      dup2\n      dup2\n      sload\n      dup2\n      lt\n      tag_72\n      jumpi\n      0x00\n      dup1\n      revert\n    tag_72:\n      swap1\n      0x00\n      mstore\n      keccak256(0x00, 0x20)\n      swap1\n      0x03\n      mul\n      add\n      0x00\n      swap2\n      pop\n      swap1\n      pop\n      dup1\n      0x00\n      add\n      0x00\n      swap1\n      sload\n      swap1\n      0x0100\n      exp\n      swap1\n      div\n      0xffffffffffffffffffffffffffffffffffffffff\n      and\n      swap1\n      dup1\n      0x01\n      add\n      sload\n      swap1\n      dup1\n      0x02\n      add\n      0x00\n      swap1\n      sload\n      swap1\n      0x0100\n      exp\n      swap1\n      div\n      0xffffffffffffffffffffffffffffffffffffffff\n      and\n      swap1\n      dup1\n      0x02\n      add\n      0x14\n      swap1\n      sload\n      swap1\n      0x0100\n      exp\n      swap1\n      div\n      0xff\n      and\n      swap1\n      pop\n      dup5\n      jump\t// out\n        /* \"contracts/TaskMarket.sol\":2759:2862  function RequestChanges(uint id) external  TaskDoneAndOwner(id) {... */\n    tag_31:\n        /* \"contracts/TaskMarket.sol\":2819:2821  id */\n      dup1\n        /* \"contracts/TaskMarket.sol\":2420:2434  Task storage t */\n      0x00\n        /* \"contracts/TaskMarket.sol\":2437:2442  tasks */\n      0x01\n        /* \"contracts/TaskMarket.sol\":2443:2445  id */\n      dup3\n        /* \"contracts/TaskMarket.sol\":2437:2446  tasks[id] */\n      dup2\n      sload\n      dup2\n      lt\n      tag_75\n      jumpi\n      tag_76\n      tag_35\n      jump\t// in\n    tag_76:\n    tag_75:\n      swap1\n      0x00\n      mstore\n      keccak256(0x00, 0x20)\n      swap1\n      0x03\n      mul\n      add\n        /* \"contracts/TaskMarket.sol\":2420:2446  Task storage t = tasks[id] */\n      swap1\n      pop\n        /* \"contracts/TaskMarket.sol\":2464:2465  t */\n      dup1\n        /* \"contracts/TaskMarket.sol\":2464:2470  t.done */\n      0x02\n      add\n      0x14\n      swap1\n      sload\n      swap1\n      0x0100\n      exp\n      swap1\n      div\n      0xff\n      and\n        /* \"contracts/TaskMarket.sol\":2456:2471  require(t.done) */\n      tag_78\n      jumpi\n      0x00\n      dup1\n      revert\n    tag_78:\n        /* \"contracts/TaskMarket.sol\":2500:2510  msg.sender */\n      caller\n        /* \"contracts/TaskMarket.sol\":2489:2510  t.owner == msg.sender */\n      0xffffffffffffffffffffffffffffffffffffffff\n      and\n        /* \"contracts/TaskMarket.sol\":2489:2490  t */\n      dup2\n        /* \"contracts/TaskMarket.sol\":2489:2496  t.owner */\n      0x00\n      add\n      0x00\n      swap1\n      sload\n      swap1\n      0x0100\n      exp\n      swap1\n      div\n      0xffffffffffffffffffffffffffffffffffffffff\n      and\n        /* \"contracts/TaskMarket.sol\":2489:2510  t.owner == msg.sender */\n      0xffffffffffffffffffffffffffffffffffffffff\n      and\n      eq\n        /* \"contracts/TaskMarket.sol\":2481:2511  require(t.owner == msg.sender) */\n      tag_79\n      jumpi\n      0x00\n      dup1\n      revert\n    tag_79:\n        /* \"contracts/TaskMarket.sol\":2850:2855  false */\n      0x00\n        /* \"contracts/TaskMarket.sol\":2833:2838  tasks */\n      0x01\n        /* \"contracts/TaskMarket.sol\":2839:2841  id */\n      dup5\n        /* \"contracts/TaskMarket.sol\":2833:2842  tasks[id] */\n      dup2\n      sload\n      dup2\n      lt\n      tag_81\n      jumpi\n      tag_82\n      tag_35\n      jump\t// in\n    tag_82:\n    tag_81:\n      swap1\n      0x00\n      mstore\n      keccak256(0x00, 0x20)\n      swap1\n      0x03\n      mul\n      add\n        /* \"contracts/TaskMarket.sol\":2833:2847  tasks[id].done */\n      0x02\n      add\n      0x14\n        /* \"contracts/TaskMarket.sol\":2833:2855  tasks[id].done = false */\n      0x0100\n      exp\n      dup2\n      sload\n      dup2\n      0xff\n      mul\n      not\n      and\n      swap1\n      dup4\n      iszero\n      iszero\n      mul\n      or\n      swap1\n      sstore\n      pop\n        /* \"contracts/TaskMarket.sol\":2410:2529  {... */\n      pop\n        /* \"contracts/TaskMarket.sol\":2759:2862  function RequestChanges(uint id) external  TaskDoneAndOwner(id) {... */\n      pop\n      pop\n      jump\t// out\n        /* \"#utility.yul\":88:205   */\n    tag_85:\n        /* \"#utility.yul\":197:198   */\n      0x00\n        /* \"#utility.yul\":194:195   */\n      dup1\n        /* \"#utility.yul\":187:199   */\n      revert\n        /* \"#utility.yul\":334:411   */\n    tag_87:\n        /* \"#utility.yul\":371:378   */\n      0x00\n        /* \"#utility.yul\":400:405   */\n      dup2\n        /* \"#utility.yul\":389:405   */\n      swap1\n      pop\n        /* \"#utility.yul\":334:411   */\n      swap2\n      swap1\n      pop\n      jump\t// out\n        /* \"#utility.yul\":417:539   */\n    tag_88:\n        /* \"#utility.yul\":490:514   */\n      tag_110\n        /* \"#utility.yul\":508:513   */\n      dup2\n        /* \"#utility.yul\":490:514   */\n      tag_87\n      jump\t// in\n    tag_110:\n        /* \"#utility.yul\":483:488   */\n      dup2\n        /* \"#utility.yul\":480:515   */\n      eq\n        /* \"#utility.yul\":470:533   */\n      tag_111\n      jumpi\n        /* \"#utility.yul\":529:530   */\n      0x00\n        /* \"#utility.yul\":526:527   */\n      dup1\n        /* \"#utility.yul\":519:531   */\n      revert\n        /* \"#utility.yul\":470:533   */\n    tag_111:\n        /* \"#utility.yul\":417:539   */\n      pop\n      jump\t// out\n        /* \"#utility.yul\":545:684   */\n    tag_89:\n        /* \"#utility.yul\":591:596   */\n      0x00\n        /* \"#utility.yul\":629:635   */\n      dup2\n        /* \"#utility.yul\":616:636   */\n      calldataload\n        /* \"#utility.yul\":607:636   */\n      swap1\n      pop\n        /* \"#utility.yul\":645:678   */\n      tag_113\n        /* \"#utility.yul\":672:677   */\n      dup2\n        /* \"#utility.yul\":645:678   */\n      tag_88\n      jump\t// in\n    tag_113:\n        /* \"#utility.yul\":545:684   */\n      swap3\n      swap2\n      pop\n      pop\n      jump\t// out\n        /* \"#utility.yul\":690:1019   */\n    tag_11:\n        /* \"#utility.yul\":749:755   */\n      0x00\n        /* \"#utility.yul\":798:800   */\n      0x20\n        /* \"#utility.yul\":786:795   */\n      dup3\n        /* \"#utility.yul\":777:784   */\n      dup5\n        /* \"#utility.yul\":773:796   */\n      sub\n        /* \"#utility.yul\":769:801   */\n      slt\n        /* \"#utility.yul\":766:885   */\n      iszero\n      tag_115\n      jumpi\n        /* \"#utility.yul\":804:883   */\n      tag_116\n      tag_85\n      jump\t// in\n    tag_116:\n        /* \"#utility.yul\":766:885   */\n    tag_115:\n        /* \"#utility.yul\":924:925   */\n      0x00\n        /* \"#utility.yul\":949:1002   */\n      tag_117\n        /* \"#utility.yul\":994:1001   */\n      dup5\n        /* \"#utility.yul\":985:991   */\n      dup3\n        /* \"#utility.yul\":974:983   */\n      dup6\n        /* \"#utility.yul\":970:992   */\n      add\n        /* \"#utility.yul\":949:1002   */\n      tag_89\n      jump\t// in\n    tag_117:\n        /* \"#utility.yul\":939:1002   */\n      swap2\n      pop\n        /* \"#utility.yul\":895:1012   */\n      pop\n        /* \"#utility.yul\":690:1019   */\n      swap3\n      swap2\n      pop\n      pop\n      jump\t// out\n        /* \"#utility.yul\":1025:1151   */\n    tag_90:\n        /* \"#utility.yul\":1062:1069   */\n      0x00\n        /* \"#utility.yul\":1102:1144   */\n      0xffffffffffffffffffffffffffffffffffffffff\n        /* \"#utility.yul\":1095:1100   */\n      dup3\n        /* \"#utility.yul\":1091:1145   */\n      and\n        /* \"#utility.yul\":1080:1145   */\n      swap1\n      pop\n        /* \"#utility.yul\":1025:1151   */\n      swap2\n      swap1\n      pop\n      jump\t// out\n        /* \"#utility.yul\":1157:1217   */\n    tag_91:\n        /* \"#utility.yul\":1185:1188   */\n      0x00\n        /* \"#utility.yul\":1206:1211   */\n      dup2\n        /* \"#utility.yul\":1199:1211   */\n      swap1\n      pop\n        /* \"#utility.yul\":1157:1217   */\n      swap2\n      swap1\n      pop\n      jump\t// out\n        /* \"#utility.yul\":1223:1365   */\n    tag_92:\n        /* \"#utility.yul\":1273:1282   */\n      0x00\n        /* \"#utility.yul\":1306:1359   */\n      tag_121\n        /* \"#utility.yul\":1324:1358   */\n      tag_122\n        /* \"#utility.yul\":1333:1357   */\n      tag_123\n        /* \"#utility.yul\":1351:1356   */\n      dup5\n        /* \"#utility.yul\":1333:1357   */\n      tag_90\n      jump\t// in\n    tag_123:\n        /* \"#utility.yul\":1324:1358   */\n      tag_91\n      jump\t// in\n    tag_122:\n        /* \"#utility.yul\":1306:1359   */\n      tag_90\n      jump\t// in\n    tag_121:\n        /* \"#utility.yul\":1293:1359   */\n      swap1\n      pop\n        /* \"#utility.yul\":1223:1365   */\n      swap2\n      swap1\n      pop\n      jump\t// out\n        /* \"#utility.yul\":1371:1497   */\n    tag_93:\n        /* \"#utility.yul\":1421:1430   */\n      0x00\n        /* \"#utility.yul\":1454:1491   */\n      tag_125\n        /* \"#utility.yul\":1485:1490   */\n      dup3\n        /* \"#utility.yul\":1454:1491   */\n      tag_92\n      jump\t// in\n    tag_125:\n        /* \"#utility.yul\":1441:1491   */\n      swap1\n      pop\n        /* \"#utility.yul\":1371:1497   */\n      swap2\n      swap1\n      pop\n      jump\t// out\n        /* \"#utility.yul\":1503:1645   */\n    tag_94:\n        /* \"#utility.yul\":1569:1578   */\n      0x00\n        /* \"#utility.yul\":1602:1639   */\n      tag_127\n        /* \"#utility.yul\":1633:1638   */\n      dup3\n        /* \"#utility.yul\":1602:1639   */\n      tag_93\n      jump\t// in\n    tag_127:\n        /* \"#utility.yul\":1589:1639   */\n      swap1\n      pop\n        /* \"#utility.yul\":1503:1645   */\n      swap2\n      swap1\n      pop\n      jump\t// out\n        /* \"#utility.yul\":1651:1814   */\n    tag_95:\n        /* \"#utility.yul\":1754:1807   */\n      tag_129\n        /* \"#utility.yul\":1801:1806   */\n      dup2\n        /* \"#utility.yul\":1754:1807   */\n      tag_94\n      jump\t// in\n    tag_129:\n        /* \"#utility.yul\":1749:1752   */\n      dup3\n        /* \"#utility.yul\":1742:1808   */\n      mstore\n        /* \"#utility.yul\":1651:1814   */\n      pop\n      pop\n      jump\t// out\n        /* \"#utility.yul\":1820:2074   */\n    tag_19:\n        /* \"#utility.yul\":1929:1933   */\n      0x00\n        /* \"#utility.yul\":1967:1969   */\n      0x20\n        /* \"#utility.yul\":1956:1965   */\n      dup3\n        /* \"#utility.yul\":1952:1970   */\n      add\n        /* \"#utility.yul\":1944:1970   */\n      swap1\n      pop\n        /* \"#utility.yul\":1980:2067   */\n      tag_131\n        /* \"#utility.yul\":2064:2065   */\n      0x00\n        /* \"#utility.yul\":2053:2062   */\n      dup4\n        /* \"#utility.yul\":2049:2066   */\n      add\n        /* \"#utility.yul\":2040:2046   */\n      dup5\n        /* \"#utility.yul\":1980:2067   */\n      tag_95\n      jump\t// in\n    tag_131:\n        /* \"#utility.yul\":1820:2074   */\n      swap3\n      swap2\n      pop\n      pop\n      jump\t// out\n        /* \"#utility.yul\":2080:2176   */\n    tag_96:\n        /* \"#utility.yul\":2117:2124   */\n      0x00\n        /* \"#utility.yul\":2146:2170   */\n      tag_133\n        /* \"#utility.yul\":2164:2169   */\n      dup3\n        /* \"#utility.yul\":2146:2170   */\n      tag_90\n      jump\t// in\n    tag_133:\n        /* \"#utility.yul\":2135:2170   */\n      swap1\n      pop\n        /* \"#utility.yul\":2080:2176   */\n      swap2\n      swap1\n      pop\n      jump\t// out\n        /* \"#utility.yul\":2182:2304   */\n    tag_97:\n        /* \"#utility.yul\":2255:2279   */\n      tag_135\n        /* \"#utility.yul\":2273:2278   */\n      dup2\n        /* \"#utility.yul\":2255:2279   */\n      tag_96\n      jump\t// in\n    tag_135:\n        /* \"#utility.yul\":2248:2253   */\n      dup2\n        /* \"#utility.yul\":2245:2280   */\n      eq\n        /* \"#utility.yul\":2235:2298   */\n      tag_136\n      jumpi\n        /* \"#utility.yul\":2294:2295   */\n      0x00\n        /* \"#utility.yul\":2291:2292   */\n      dup1\n        /* \"#utility.yul\":2284:2296   */\n      revert\n        /* \"#utility.yul\":2235:2298   */\n    tag_136:\n        /* \"#utility.yul\":2182:2304   */\n      pop\n      jump\t// out\n        /* \"#utility.yul\":2310:2449   */\n    tag_98:\n        /* \"#utility.yul\":2356:2361   */\n      0x00\n        /* \"#utility.yul\":2394:2400   */\n      dup2\n        /* \"#utility.yul\":2381:2401   */\n      calldataload\n        /* \"#utility.yul\":2372:2401   */\n      swap1\n      pop\n        /* \"#utility.yul\":2410:2443   */\n      tag_138\n        /* \"#utility.yul\":2437:2442   */\n      dup2\n        /* \"#utility.yul\":2410:2443   */\n      tag_97\n      jump\t// in\n    tag_138:\n        /* \"#utility.yul\":2310:2449   */\n      swap3\n      swap2\n      pop\n      pop\n      jump\t// out\n        /* \"#utility.yul\":2455:2929   */\n    tag_22:\n        /* \"#utility.yul\":2523:2529   */\n      0x00\n        /* \"#utility.yul\":2531:2537   */\n      dup1\n        /* \"#utility.yul\":2580:2582   */\n      0x40\n        /* \"#utility.yul\":2568:2577   */\n      dup4\n        /* \"#utility.yul\":2559:2566   */\n      dup6\n        /* \"#utility.yul\":2555:2578   */\n      sub\n        /* \"#utility.yul\":2551:2583   */\n      slt\n        /* \"#utility.yul\":2548:2667   */\n      iszero\n      tag_140\n      jumpi\n        /* \"#utility.yul\":2586:2665   */\n      tag_141\n      tag_85\n      jump\t// in\n    tag_141:\n        /* \"#utility.yul\":2548:2667   */\n    tag_140:\n        /* \"#utility.yul\":2706:2707   */\n      0x00\n        /* \"#utility.yul\":2731:2784   */\n      tag_142\n        /* \"#utility.yul\":2776:2783   */\n      dup6\n        /* \"#utility.yul\":2767:2773   */\n      dup3\n        /* \"#utility.yul\":2756:2765   */\n      dup7\n        /* \"#utility.yul\":2752:2774   */\n      add\n        /* \"#utility.yul\":2731:2784   */\n      tag_98\n      jump\t// in\n    tag_142:\n        /* \"#utility.yul\":2721:2784   */\n      swap3\n      pop\n        /* \"#utility.yul\":2677:2794   */\n      pop\n        /* \"#utility.yul\":2833:2835   */\n      0x20\n        /* \"#utility.yul\":2859:2912   */\n      tag_143\n        /* \"#utility.yul\":2904:2911   */\n      dup6\n        /* \"#utility.yul\":2895:2901   */\n      dup3\n        /* \"#utility.yul\":2884:2893   */\n      dup7\n        /* \"#utility.yul\":2880:2902   */\n      add\n        /* \"#utility.yul\":2859:2912   */\n      tag_89\n      jump\t// in\n    tag_143:\n        /* \"#utility.yul\":2849:2912   */\n      swap2\n      pop\n        /* \"#utility.yul\":2804:2922   */\n      pop\n        /* \"#utility.yul\":2455:2929   */\n      swap3\n      pop\n      swap3\n      swap1\n      pop\n      jump\t// out\n        /* \"#utility.yul\":2935:3053   */\n    tag_99:\n        /* \"#utility.yul\":3022:3046   */\n      tag_145\n        /* \"#utility.yul\":3040:3045   */\n      dup2\n        /* \"#utility.yul\":3022:3046   */\n      tag_96\n      jump\t// in\n    tag_145:\n        /* \"#utility.yul\":3017:3020   */\n      dup3\n        /* \"#utility.yul\":3010:3047   */\n      mstore\n        /* \"#utility.yul\":2935:3053   */\n      pop\n      pop\n      jump\t// out\n        /* \"#utility.yul\":3059:3177   */\n    tag_100:\n        /* \"#utility.yul\":3146:3170   */\n      tag_147\n        /* \"#utility.yul\":3164:3169   */\n      dup2\n        /* \"#utility.yul\":3146:3170   */\n      tag_87\n      jump\t// in\n    tag_147:\n        /* \"#utility.yul\":3141:3144   */\n      dup3\n        /* \"#utility.yul\":3134:3171   */\n      mstore\n        /* \"#utility.yul\":3059:3177   */\n      pop\n      pop\n      jump\t// out\n        /* \"#utility.yul\":3183:3273   */\n    tag_101:\n        /* \"#utility.yul\":3217:3224   */\n      0x00\n        /* \"#utility.yul\":3260:3265   */\n      dup2\n        /* \"#utility.yul\":3253:3266   */\n      iszero\n        /* \"#utility.yul\":3246:3267   */\n      iszero\n        /* \"#utility.yul\":3235:3267   */\n      swap1\n      pop\n        /* \"#utility.yul\":3183:3273   */\n      swap2\n      swap1\n      pop\n      jump\t// out\n        /* \"#utility.yul\":3279:3388   */\n    tag_102:\n        /* \"#utility.yul\":3360:3381   */\n      tag_150\n        /* \"#utility.yul\":3375:3380   */\n      dup2\n        /* \"#utility.yul\":3360:3381   */\n      tag_101\n      jump\t// in\n    tag_150:\n        /* \"#utility.yul\":3355:3358   */\n      dup3\n        /* \"#utility.yul\":3348:3382   */\n      mstore\n        /* \"#utility.yul\":3279:3388   */\n      pop\n      pop\n      jump\t// out\n        /* \"#utility.yul\":3394:3935   */\n    tag_28:\n        /* \"#utility.yul\":3565:3569   */\n      0x00\n        /* \"#utility.yul\":3603:3606   */\n      0x80\n        /* \"#utility.yul\":3592:3601   */\n      dup3\n        /* \"#utility.yul\":3588:3607   */\n      add\n        /* \"#utility.yul\":3580:3607   */\n      swap1\n      pop\n        /* \"#utility.yul\":3617:3688   */\n      tag_152\n        /* \"#utility.yul\":3685:3686   */\n      0x00\n        /* \"#utility.yul\":3674:3683   */\n      dup4\n        /* \"#utility.yul\":3670:3687   */\n      add\n        /* \"#utility.yul\":3661:3667   */\n      dup8\n        /* \"#utility.yul\":3617:3688   */\n      tag_99\n      jump\t// in\n    tag_152:\n        /* \"#utility.yul\":3698:3770   */\n      tag_153\n        /* \"#utility.yul\":3766:3768   */\n      0x20\n        /* \"#utility.yul\":3755:3764   */\n      dup4\n        /* \"#utility.yul\":3751:3769   */\n      add\n        /* \"#utility.yul\":3742:3748   */\n      dup7\n        /* \"#utility.yul\":3698:3770   */\n      tag_100\n      jump\t// in\n    tag_153:\n        /* \"#utility.yul\":3780:3852   */\n      tag_154\n        /* \"#utility.yul\":3848:3850   */\n      0x40\n        /* \"#utility.yul\":3837:3846   */\n      dup4\n        /* \"#utility.yul\":3833:3851   */\n      add\n        /* \"#utility.yul\":3824:3830   */\n      dup6\n        /* \"#utility.yul\":3780:3852   */\n      tag_99\n      jump\t// in\n    tag_154:\n        /* \"#utility.yul\":3862:3928   */\n      tag_155\n        /* \"#utility.yul\":3924:3926   */\n      0x60\n        /* \"#utility.yul\":3913:3922   */\n      dup4\n        /* \"#utility.yul\":3909:3927   */\n      add\n        /* \"#utility.yul\":3900:3906   */\n      dup5\n        /* \"#utility.yul\":3862:3928   */\n      tag_102\n      jump\t// in\n    tag_155:\n        /* \"#utility.yul\":3394:3935   */\n      swap6\n      swap5\n      pop\n      pop\n      pop\n      pop\n      pop\n      jump\t// out\n        /* \"#utility.yul\":3941:4121   */\n    tag_35:\n        /* \"#utility.yul\":3989:4066   */\n      0x4e487b7100000000000000000000000000000000000000000000000000000000\n        /* \"#utility.yul\":3986:3987   */\n      0x00\n        /* \"#utility.yul\":3979:4067   */\n      mstore\n        /* \"#utility.yul\":4086:4090   */\n      0x32\n        /* \"#utility.yul\":4083:4084   */\n      0x04\n        /* \"#utility.yul\":4076:4091   */\n      mstore\n        /* \"#utility.yul\":4110:4114   */\n      0x24\n        /* \"#utility.yul\":4107:4108   */\n      0x00\n        /* \"#utility.yul\":4100:4115   */\n      revert\n        /* \"#utility.yul\":4127:4569   */\n    tag_50:\n        /* \"#utility.yul\":4276:4280   */\n      0x00\n        /* \"#utility.yul\":4314:4316   */\n      0x60\n        /* \"#utility.yul\":4303:4312   */\n      dup3\n        /* \"#utility.yul\":4299:4317   */\n      add\n        /* \"#utility.yul\":4291:4317   */\n      swap1\n      pop\n        /* \"#utility.yul\":4327:4398   */\n      tag_158\n        /* \"#utility.yul\":4395:4396   */\n      0x00\n        /* \"#utility.yul\":4384:4393   */\n      dup4\n        /* \"#utility.yul\":4380:4397   */\n      add\n        /* \"#utility.yul\":4371:4377   */\n      dup7\n        /* \"#utility.yul\":4327:4398   */\n      tag_99\n      jump\t// in\n    tag_158:\n        /* \"#utility.yul\":4408:4480   */\n      tag_159\n        /* \"#utility.yul\":4476:4478   */\n      0x20\n        /* \"#utility.yul\":4465:4474   */\n      dup4\n        /* \"#utility.yul\":4461:4479   */\n      add\n        /* \"#utility.yul\":4452:4458   */\n      dup6\n        /* \"#utility.yul\":4408:4480   */\n      tag_99\n      jump\t// in\n    tag_159:\n        /* \"#utility.yul\":4490:4562   */\n      tag_160\n        /* \"#utility.yul\":4558:4560   */\n      0x40\n        /* \"#utility.yul\":4547:4556   */\n      dup4\n        /* \"#utility.yul\":4543:4561   */\n      add\n        /* \"#utility.yul\":4534:4540   */\n      dup5\n        /* \"#utility.yul\":4490:4562   */\n      tag_100\n      jump\t// in\n    tag_160:\n        /* \"#utility.yul\":4127:4569   */\n      swap5\n      swap4\n      pop\n      pop\n      pop\n      pop\n      jump\t// out\n        /* \"#utility.yul\":4575:4797   */\n    tag_59:\n        /* \"#utility.yul\":4668:4672   */\n      0x00\n        /* \"#utility.yul\":4706:4708   */\n      0x20\n        /* \"#utility.yul\":4695:4704   */\n      dup3\n        /* \"#utility.yul\":4691:4709   */\n      add\n        /* \"#utility.yul\":4683:4709   */\n      swap1\n      pop\n        /* \"#utility.yul\":4719:4790   */\n      tag_162\n        /* \"#utility.yul\":4787:4788   */\n      0x00\n        /* \"#utility.yul\":4776:4785   */\n      dup4\n        /* \"#utility.yul\":4772:4789   */\n      add\n        /* \"#utility.yul\":4763:4769   */\n      dup5\n        /* \"#utility.yul\":4719:4790   */\n      tag_99\n      jump\t// in\n    tag_162:\n        /* \"#utility.yul\":4575:4797   */\n      swap3\n      swap2\n      pop\n      pop\n      jump\t// out\n        /* \"#utility.yul\":4803:4946   */\n    tag_103:\n        /* \"#utility.yul\":4860:4865   */\n      0x00\n        /* \"#utility.yul\":4891:4897   */\n      dup2\n        /* \"#utility.yul\":4885:4898   */\n      mload\n        /* \"#utility.yul\":4876:4898   */\n      swap1\n      pop\n        /* \"#utility.yul\":4907:4940   */\n      tag_164\n        /* \"#utility.yul\":4934:4939   */\n      dup2\n        /* \"#utility.yul\":4907:4940   */\n      tag_88\n      jump\t// in\n    tag_164:\n        /* \"#utility.yul\":4803:4946   */\n      swap3\n      swap2\n      pop\n      pop\n      jump\t// out\n        /* \"#utility.yul\":4952:5303   */\n    tag_63:\n        /* \"#utility.yul\":5022:5028   */\n      0x00\n        /* \"#utility.yul\":5071:5073   */\n      0x20\n        /* \"#utility.yul\":5059:5068   */\n      dup3\n        /* \"#utility.yul\":5050:5057   */\n      dup5\n        /* \"#utility.yul\":5046:5069   */\n      sub\n        /* \"#utility.yul\":5042:5074   */\n      slt\n        /* \"#utility.yul\":5039:5158   */\n      iszero\n      tag_166\n      jumpi\n        /* \"#utility.yul\":5077:5156   */\n      tag_167\n      tag_85\n      jump\t// in\n    tag_167:\n        /* \"#utility.yul\":5039:5158   */\n    tag_166:\n        /* \"#utility.yul\":5197:5198   */\n      0x00\n        /* \"#utility.yul\":5222:5286   */\n      tag_168\n        /* \"#utility.yul\":5278:5285   */\n      dup5\n        /* \"#utility.yul\":5269:5275   */\n      dup3\n        /* \"#utility.yul\":5258:5267   */\n      dup6\n        /* \"#utility.yul\":5254:5276   */\n      add\n        /* \"#utility.yul\":5222:5286   */\n      tag_103\n      jump\t// in\n    tag_168:\n        /* \"#utility.yul\":5212:5286   */\n      swap2\n      pop\n        /* \"#utility.yul\":5168:5296   */\n      pop\n        /* \"#utility.yul\":4952:5303   */\n      swap3\n      swap2\n      pop\n      pop\n      jump\t// out\n\n    auxdata: 0xa26469706673582212202fbc843ff74377ce2601bc778a67fa8595584c667b01d98c1d76e539073725ed64736f6c63430008190033\n}\n\nsub_1: assembly {\n        /* \"contracts/TaskMarket.sol\":141:1507  contract Shitcoin {... */\n      mstore(0x40, 0x80)\n        /* \"contracts/TaskMarket.sol\":165:196  string public name = \"ShitCoin\" */\n      mload(0x40)\n      dup1\n      0x40\n      add\n      0x40\n      mstore\n      dup1\n      0x08\n      dup2\n      mstore\n      0x20\n      add\n      0x53686974436f696e000000000000000000000000000000000000000000000000\n      dup2\n      mstore\n      pop\n      0x00\n      swap1\n      dup2\n      tag_1\n      swap2\n      swap1\n      tag_2\n      jump\t// in\n    tag_1:\n      pop\n        /* \"contracts/TaskMarket.sol\":202:230  string public symbol = \"SHT\" */\n      mload(0x40)\n      dup1\n      0x40\n      add\n      0x40\n      mstore\n      dup1\n      0x03\n      dup2\n      mstore\n      0x20\n      add\n      0x5348540000000000000000000000000000000000000000000000000000000000\n      dup2\n      mstore\n      pop\n      0x01\n      swap1\n      dup2\n      tag_3\n      swap2\n      swap1\n      tag_2\n      jump\t// in\n    tag_3:\n      pop\n        /* \"contracts/TaskMarket.sol\":305:313  10000000 */\n      0x989680\n        /* \"contracts/TaskMarket.sol\":285:313  uint256 marketCap = 10000000 */\n      0x03\n      sstore\n        /* \"contracts/TaskMarket.sol\":352:450  constructor(address _market){... */\n      callvalue\n      dup1\n      iszero\n      tag_4\n      jumpi\n      0x00\n      dup1\n      revert\n    tag_4:\n      pop\n      mload(0x40)\n      sub(codesize, bytecodeSize)\n      dup1\n      bytecodeSize\n      dup4\n      codecopy\n      dup2\n      dup2\n      add\n      0x40\n      mstore\n      dup2\n      add\n      swap1\n      tag_5\n      swap2\n      swap1\n      tag_6\n      jump\t// in\n    tag_5:\n        /* \"contracts/TaskMarket.sol\":399:406  _market */\n      dup1\n        /* \"contracts/TaskMarket.sol\":390:396  market */\n      0x04\n      0x00\n        /* \"contracts/TaskMarket.sol\":390:406  market = _market */\n      0x0100\n      exp\n      dup2\n      sload\n      dup2\n      0xffffffffffffffffffffffffffffffffffffffff\n      mul\n      not\n      and\n      swap1\n      dup4\n      0xffffffffffffffffffffffffffffffffffffffff\n      and\n      mul\n      or\n      swap1\n      sstore\n      pop\n        /* \"contracts/TaskMarket.sol\":434:443  marketCap */\n      sload(0x03)\n        /* \"contracts/TaskMarket.sol\":416:423  wallets */\n      0x02\n        /* \"contracts/TaskMarket.sol\":416:431  wallets[market] */\n      0x00\n        /* \"contracts/TaskMarket.sol\":424:430  market */\n      0x04\n      0x00\n      swap1\n      sload\n      swap1\n      0x0100\n      exp\n      swap1\n      div\n      0xffffffffffffffffffffffffffffffffffffffff\n      and\n        /* \"contracts/TaskMarket.sol\":416:431  wallets[market] */\n      0xffffffffffffffffffffffffffffffffffffffff\n      and\n      0xffffffffffffffffffffffffffffffffffffffff\n      and\n      dup2\n      mstore\n      0x20\n      add\n      swap1\n      dup2\n      mstore\n      0x20\n      add\n      0x00\n      keccak256\n        /* \"contracts/TaskMarket.sol\":416:443  wallets[market] = marketCap */\n      dup2\n      swap1\n      sstore\n      pop\n        /* \"contracts/TaskMarket.sol\":352:450  constructor(address _market){... */\n      pop\n        /* \"contracts/TaskMarket.sol\":141:1507  contract Shitcoin {... */\n      jump(tag_9)\n        /* \"#utility.yul\":7:106   */\n    tag_10:\n        /* \"#utility.yul\":59:65   */\n      0x00\n        /* \"#utility.yul\":93:98   */\n      dup2\n        /* \"#utility.yul\":87:99   */\n      mload\n        /* \"#utility.yul\":77:99   */\n      swap1\n      pop\n        /* \"#utility.yul\":7:106   */\n      swap2\n      swap1\n      pop\n      jump\t// out\n        /* \"#utility.yul\":112:292   */\n    tag_11:\n        /* \"#utility.yul\":160:237   */\n      0x4e487b7100000000000000000000000000000000000000000000000000000000\n        /* \"#utility.yul\":157:158   */\n      0x00\n        /* \"#utility.yul\":150:238   */\n      mstore\n        /* \"#utility.yul\":257:261   */\n      0x41\n        /* \"#utility.yul\":254:255   */\n      0x04\n        /* \"#utility.yul\":247:262   */\n      mstore\n        /* \"#utility.yul\":281:285   */\n      0x24\n        /* \"#utility.yul\":278:279   */\n      0x00\n        /* \"#utility.yul\":271:286   */\n      revert\n        /* \"#utility.yul\":298:478   */\n    tag_12:\n        /* \"#utility.yul\":346:423   */\n      0x4e487b7100000000000000000000000000000000000000000000000000000000\n        /* \"#utility.yul\":343:344   */\n      0x00\n        /* \"#utility.yul\":336:424   */\n      mstore\n        /* \"#utility.yul\":443:447   */\n      0x22\n        /* \"#utility.yul\":440:441   */\n      0x04\n        /* \"#utility.yul\":433:448   */\n      mstore\n        /* \"#utility.yul\":467:471   */\n      0x24\n        /* \"#utility.yul\":464:465   */\n      0x00\n        /* \"#utility.yul\":457:472   */\n      revert\n        /* \"#utility.yul\":484:804   */\n    tag_13:\n        /* \"#utility.yul\":528:534   */\n      0x00\n        /* \"#utility.yul\":565:566   */\n      0x02\n        /* \"#utility.yul\":559:563   */\n      dup3\n        /* \"#utility.yul\":555:567   */\n      div\n        /* \"#utility.yul\":545:567   */\n      swap1\n      pop\n        /* \"#utility.yul\":612:613   */\n      0x01\n        /* \"#utility.yul\":606:610   */\n      dup3\n        /* \"#utility.yul\":602:614   */\n      and\n        /* \"#utility.yul\":633:651   */\n      dup1\n        /* \"#utility.yul\":623:704   */\n      tag_42\n      jumpi\n        /* \"#utility.yul\":689:693   */\n      0x7f\n        /* \"#utility.yul\":681:687   */\n      dup3\n        /* \"#utility.yul\":677:694   */\n      and\n        /* \"#utility.yul\":667:694   */\n      swap2\n      pop\n        /* \"#utility.yul\":623:704   */\n    tag_42:\n        /* \"#utility.yul\":751:753   */\n      0x20\n        /* \"#utility.yul\":743:749   */\n      dup3\n        /* \"#utility.yul\":740:754   */\n      lt\n        /* \"#utility.yul\":720:738   */\n      dup2\n        /* \"#utility.yul\":717:755   */\n      sub\n        /* \"#utility.yul\":714:798   */\n      tag_43\n      jumpi\n        /* \"#utility.yul\":770:788   */\n      tag_44\n      tag_12\n      jump\t// in\n    tag_44:\n        /* \"#utility.yul\":714:798   */\n    tag_43:\n        /* \"#utility.yul\":535:804   */\n      pop\n        /* \"#utility.yul\":484:804   */\n      swap2\n      swap1\n      pop\n      jump\t// out\n        /* \"#utility.yul\":810:951   */\n    tag_14:\n        /* \"#utility.yul\":859:863   */\n      0x00\n        /* \"#utility.yul\":882:885   */\n      dup2\n        /* \"#utility.yul\":874:885   */\n      swap1\n      pop\n        /* \"#utility.yul\":905:908   */\n      dup2\n        /* \"#utility.yul\":902:903   */\n      0x00\n        /* \"#utility.yul\":895:909   */\n      mstore\n        /* \"#utility.yul\":939:943   */\n      0x20\n        /* \"#utility.yul\":936:937   */\n      0x00\n        /* \"#utility.yul\":926:944   */\n      keccak256\n        /* \"#utility.yul\":918:944   */\n      swap1\n      pop\n        /* \"#utility.yul\":810:951   */\n      swap2\n      swap1\n      pop\n      jump\t// out\n        /* \"#utility.yul\":957:1050   */\n    tag_15:\n        /* \"#utility.yul\":994:1000   */\n      0x00\n        /* \"#utility.yul\":1041:1043   */\n      0x20\n        /* \"#utility.yul\":1036:1038   */\n      0x1f\n        /* \"#utility.yul\":1029:1034   */\n      dup4\n        /* \"#utility.yul\":1025:1039   */\n      add\n        /* \"#utility.yul\":1021:1044   */\n      div\n        /* \"#utility.yul\":1011:1044   */\n      swap1\n      pop\n        /* \"#utility.yul\":957:1050   */\n      swap2\n      swap1\n      pop\n      jump\t// out\n        /* \"#utility.yul\":1056:1163   */\n    tag_16:\n        /* \"#utility.yul\":1100:1108   */\n      0x00\n        /* \"#utility.yul\":1150:1155   */\n      dup3\n        /* \"#utility.yul\":1144:1148   */\n      dup3\n        /* \"#utility.yul\":1140:1156   */\n      shl\n        /* \"#utility.yul\":1119:1156   */\n      swap1\n      pop\n        /* \"#utility.yul\":1056:1163   */\n      swap3\n      swap2\n      pop\n      pop\n      jump\t// out\n        /* \"#utility.yul\":1169:1562   */\n    tag_17:\n        /* \"#utility.yul\":1238:1244   */\n      0x00\n        /* \"#utility.yul\":1288:1289   */\n      0x08\n        /* \"#utility.yul\":1276:1286   */\n      dup4\n        /* \"#utility.yul\":1272:1290   */\n      mul\n        /* \"#utility.yul\":1311:1408   */\n      tag_49\n        /* \"#utility.yul\":1341:1407   */\n      0xffffffffffffffffffffffffffffffffffffffffffffffffffffffffffffffff\n        /* \"#utility.yul\":1330:1339   */\n      dup3\n        /* \"#utility.yul\":1311:1408   */\n      tag_16\n      jump\t// in\n    tag_49:\n        /* \"#utility.yul\":1429:1468   */\n      tag_50\n        /* \"#utility.yul\":1459:1467   */\n      dup7\n        /* \"#utility.yul\":1448:1457   */\n      dup4\n        /* \"#utility.yul\":1429:1468   */\n      tag_16\n      jump\t// in\n    tag_50:\n        /* \"#utility.yul\":1417:1468   */\n      swap6\n      pop\n        /* \"#utility.yul\":1501:1505   */\n      dup1\n        /* \"#utility.yul\":1497:1506   */\n      not\n        /* \"#utility.yul\":1490:1495   */\n      dup5\n        /* \"#utility.yul\":1486:1507   */\n      and\n        /* \"#utility.yul\":1477:1507   */\n      swap4\n      pop\n        /* \"#utility.yul\":1550:1554   */\n      dup1\n        /* \"#utility.yul\":1540:1548   */\n      dup7\n        /* \"#utility.yul\":1536:1555   */\n      and\n        /* \"#utility.yul\":1529:1534   */\n      dup5\n        /* \"#utility.yul\":1526:1556   */\n      or\n        /* \"#utility.yul\":1516:1556   */\n      swap3\n      pop\n        /* \"#utility.yul\":1245:1562   */\n      pop\n      pop\n        /* \"#utility.yul\":1169:1562   */\n      swap4\n      swap3\n      pop\n      pop\n      pop\n      jump\t// out\n        /* \"#utility.yul\":1568:1645   */\n    tag_18:\n        /* \"#utility.yul\":1605:1612   */\n      0x00\n        /* \"#utility.yul\":1634:1639   */\n      dup2\n        /* \"#utility.yul\":1623:1639   */\n      swap1\n      pop\n        /* \"#utility.yul\":1568:1645   */\n      swap2\n      swap1\n      pop\n      jump\t// out\n        /* \"#utility.yul\":1651:1711   */\n    tag_19:\n        /* \"#utility.yul\":1679:1682   */\n      0x00\n        /* \"#utility.yul\":1700:1705   */\n      dup2\n        /* \"#utility.yul\":1693:1705   */\n      swap1\n      pop\n        /* \"#utility.yul\":1651:1711   */\n      swap2\n      swap1\n      pop\n      jump\t// out\n        /* \"#utility.yul\":1717:1859   */\n    tag_20:\n        /* \"#utility.yul\":1767:1776   */\n      0x00\n        /* \"#utility.yul\":1800:1853   */\n      tag_54\n        /* \"#utility.yul\":1818:1852   */\n      tag_55\n        /* \"#utility.yul\":1827:1851   */\n      tag_56\n        /* \"#utility.yul\":1845:1850   */\n      dup5\n        /* \"#utility.yul\":1827:1851   */\n      tag_18\n      jump\t// in\n    tag_56:\n        /* \"#utility.yul\":1818:1852   */\n      tag_19\n      jump\t// in\n    tag_55:\n        /* \"#utility.yul\":1800:1853   */\n      tag_18\n      jump\t// in\n    tag_54:\n        /* \"#utility.yul\":1787:1853   */\n      swap1\n      pop\n        /* \"#utility.yul\":1717:1859   */\n      swap2\n      swap1\n      pop\n      jump\t// out\n        /* \"#utility.yul\":1865:1940   */\n    tag_21:\n        /* \"#utility.yul\":1908:1911   */\n      0x00\n        /* \"#utility.yul\":1929:1934   */\n      dup2\n        /* \"#utility.yul\":1922:1934   */\n      swap1\n      pop\n        /* \"#utility.yul\":1865:1940   */\n      swap2\n      swap1\n      pop\n      jump\t// out\n        /* \"#utility.yul\":1946:2215   */\n    tag_22:\n        /* \"#utility.yul\":2056:2095   */\n      tag_59\n        /* \"#utility.yul\":2087:2094   */\n      dup4\n        /* \"#utility.yul\":2056:2095   */\n      tag_20\n      jump\t// in\n    tag_59:\n        /* \"#utility.yul\":2117:2208   */\n      tag_60\n        /* \"#utility.yul\":2166:2207   */\n      tag_61\n        /* \"#utility.yul\":2190:2206   */\n      dup3\n        /* \"#utility.yul\":2166:2207   */\n      tag_21\n      jump\t// in\n    tag_61:\n        /* \"#utility.yul\":2158:2164   */\n      dup5\n        /* \"#utility.yul\":2151:2155   */\n      dup5\n        /* \"#utility.yul\":2145:2156   */\n      sload\n        /* \"#utility.yul\":2117:2208   */\n      tag_17\n      jump\t// in\n    tag_60:\n        /* \"#utility.yul\":2111:2115   */\n      dup3\n        /* \"#utility.yul\":2104:2209   */\n      sstore\n        /* \"#utility.yul\":2022:2215   */\n      pop\n        /* \"#utility.yul\":1946:2215   */\n      pop\n      pop\n      pop\n      jump\t// out\n        /* \"#utility.yul\":2221:2294   */\n    tag_23:\n        /* \"#utility.yul\":2266:2269   */\n      0x00\n        /* \"#utility.yul\":2221:2294   */\n      swap1\n      jump\t// out\n        /* \"#utility.yul\":2300:2489   */\n    tag_24:\n        /* \"#utility.yul\":2377:2409   */\n      tag_64\n      tag_23\n      jump\t// in\n    tag_64:\n        /* \"#utility.yul\":2418:2483   */\n      tag_65\n        /* \"#utility.yul\":2476:2482   */\n      dup2\n        /* \"#utility.yul\":2468:2474   */\n      dup5\n        /* \"#utility.yul\":2462:2466   */\n      dup5\n        /* \"#utility.yul\":2418:2483   */\n      tag_22\n      jump\t// in\n    tag_65:\n        /* \"#utility.yul\":2353:2489   */\n      pop\n        /* \"#utility.yul\":2300:2489   */\n      pop\n      pop\n      jump\t// out\n        /* \"#utility.yul\":2495:2681   */\n    tag_25:\n        /* \"#utility.yul\":2555:2675   */\n    tag_67:\n        /* \"#utility.yul\":2572:2575   */\n      dup2\n        /* \"#utility.yul\":2565:2570   */\n      dup2\n        /* \"#utility.yul\":2562:2576   */\n      lt\n        /* \"#utility.yul\":2555:2675   */\n      iszero\n      tag_69\n      jumpi\n        /* \"#utility.yul\":2626:2665   */\n      tag_70\n        /* \"#utility.yul\":2663:2664   */\n      0x00\n        /* \"#utility.yul\":2656:2661   */\n      dup3\n        /* \"#utility.yul\":2626:2665   */\n      tag_24\n      jump\t// in\n    tag_70:\n        /* \"#utility.yul\":2599:2600   */\n      0x01\n        /* \"#utility.yul\":2592:2597   */\n      dup2\n        /* \"#utility.yul\":2588:2601   */\n      add\n        /* \"#utility.yul\":2579:2601   */\n      swap1\n      pop\n        /* \"#utility.yul\":2555:2675   */\n      jump(tag_67)\n    tag_69:\n        /* \"#utility.yul\":2495:2681   */\n      pop\n      pop\n      jump\t// out\n        /* \"#utility.yul\":2687:3230   */\n    tag_26:\n        /* \"#utility.yul\":2788:2790   */\n      0x1f\n        /* \"#utility.yul\":2783:2786   */\n      dup3\n        /* \"#utility.yul\":2780:2791   */\n      gt\n        /* \"#utility.yul\":2777:3223   */\n      iszero\n      tag_72\n      jumpi\n        /* \"#utility.yul\":2822:2860   */\n      tag_73\n        /* \"#utility.yul\":2854:2859   */\n      dup2\n        /* \"#utility.yul\":2822:2860   */\n      tag_14\n      jump\t// in\n    tag_73:\n        /* \"#utility.yul\":2906:2935   */\n      tag_74\n        /* \"#utility.yul\":2924:2934   */\n      dup5\n        /* \"#utility.yul\":2906:2935   */\n      tag_15\n      jump\t// in\n    tag_74:\n        /* \"#utility.yul\":2896:2904   */\n      dup2\n        /* \"#utility.yul\":2892:2936   */\n      add\n        /* \"#utility.yul\":3089:3091   */\n      0x20\n        /* \"#utility.yul\":3077:3087   */\n      dup6\n        /* \"#utility.yul\":3074:3092   */\n      lt\n        /* \"#utility.yul\":3071:3120   */\n      iszero\n      tag_75\n      jumpi\n        /* \"#utility.yul\":3110:3118   */\n      dup2\n        /* \"#utility.yul\":3095:3118   */\n      swap1\n      pop\n        /* \"#utility.yul\":3071:3120   */\n    tag_75:\n        /* \"#utility.yul\":3133:3213   */\n      tag_76\n        /* \"#utility.yul\":3189:3211   */\n      tag_77\n        /* \"#utility.yul\":3207:3210   */\n      dup6\n        /* \"#utility.yul\":3189:3211   */\n      tag_15\n      jump\t// in\n    tag_77:\n        /* \"#utility.yul\":3179:3187   */\n      dup4\n        /* \"#utility.yul\":3175:3212   */\n      add\n        /* \"#utility.yul\":3162:3173   */\n      dup3\n        /* \"#utility.yul\":3133:3213   */\n      tag_25\n      jump\t// in\n    tag_76:\n        /* \"#utility.yul\":2792:3223   */\n      pop\n      pop\n        /* \"#utility.yul\":2777:3223   */\n    tag_72:\n        /* \"#utility.yul\":2687:3230   */\n      pop\n      pop\n      pop\n      jump\t// out\n        /* \"#utility.yul\":3236:3353   */\n    tag_27:\n        /* \"#utility.yul\":3290:3298   */\n      0x00\n        /* \"#utility.yul\":3340:3345   */\n      dup3\n        /* \"#utility.yul\":3334:3338   */\n      dup3\n        /* \"#utility.yul\":3330:3346   */\n      shr\n        /* \"#utility.yul\":3309:3346   */\n      swap1\n      pop\n        /* \"#utility.yul\":3236:3353   */\n      swap3\n      swap2\n      pop\n      pop\n      jump\t// out\n        /* \"#utility.yul\":3359:3528   */\n    tag_28:\n        /* \"#utility.yul\":3403:3409   */\n      0x00\n        /* \"#utility.yul\":3436:3487   */\n      tag_80\n        /* \"#utility.yul\":3484:3485   */\n      0x00\n        /* \"#utility.yul\":3480:3486   */\n      not\n        /* \"#utility.yul\":3472:3477   */\n      dup5\n        /* \"#utility.yul\":3469:3470   */\n      0x08\n        /* \"#utility.yul\":3465:3478   */\n      mul\n        /* \"#utility.yul\":3436:3487   */\n      tag_27\n      jump\t// in\n    tag_80:\n        /* \"#utility.yul\":3432:3488   */\n      not\n        /* \"#utility.yul\":3517:3521   */\n      dup1\n        /* \"#utility.yul\":3511:3515   */\n      dup4\n        /* \"#utility.yul\":3507:3522   */\n      and\n        /* \"#utility.yul\":3497:3522   */\n      swap2\n      pop\n        /* \"#utility.yul\":3410:3528   */\n      pop\n        /* \"#utility.yul\":3359:3528   */\n      swap3\n      swap2\n      pop\n      pop\n      jump\t// out\n        /* \"#utility.yul\":3533:3828   */\n    tag_29:\n        /* \"#utility.yul\":3609:3613   */\n      0x00\n        /* \"#utility.yul\":3755:3784   */\n      tag_82\n        /* \"#utility.yul\":3780:3783   */\n      dup4\n        /* \"#utility.yul\":3774:3778   */\n      dup4\n        /* \"#utility.yul\":3755:3784   */\n      tag_28\n      jump\t// in\n    tag_82:\n        /* \"#utility.yul\":3747:3784   */\n      swap2\n      pop\n        /* \"#utility.yul\":3817:3820   */\n      dup3\n        /* \"#utility.yul\":3814:3815   */\n      0x02\n        /* \"#utility.yul\":3810:3821   */\n      mul\n        /* \"#utility.yul\":3804:3808   */\n      dup3\n        /* \"#utility.yul\":3801:3822   */\n      or\n        /* \"#utility.yul\":3793:3822   */\n      swap1\n      pop\n        /* \"#utility.yul\":3533:3828   */\n      swap3\n      swap2\n      pop\n      pop\n      jump\t// out\n        /* \"#utility.yul\":3833:5228   */\n    tag_2:\n        /* \"#utility.yul\":3950:3987   */\n      tag_84\n        /* \"#utility.yul\":3983:3986   */\n      dup3\n        /* \"#utility.yul\":3950:3987   */\n      tag_10\n      jump\t// in\n    tag_84:\n        /* \"#utility.yul\":4052:4070   */\n      0xffffffffffffffff\n        /* \"#utility.yul\":4044:4050   */\n      dup2\n        /* \"#utility.yul\":4041:4071   */\n      gt\n        /* \"#utility.yul\":4038:4094   */\n      iszero\n      tag_85\n      jumpi\n        /* \"#utility.yul\":4074:4092   */\n      tag_86\n      tag_11\n      jump\t// in\n    tag_86:\n        /* \"#utility.yul\":4038:4094   */\n    tag_85:\n        /* \"#utility.yul\":4118:4156   */\n      tag_87\n        /* \"#utility.yul\":4150:4154   */\n      dup3\n        /* \"#utility.yul\":4144:4155   */\n      sload\n        /* \"#utility.yul\":4118:4156   */\n      tag_13\n      jump\t// in\n    tag_87:\n        /* \"#utility.yul\":4203:4270   */\n      tag_88\n        /* \"#utility.yul\":4263:4269   */\n      dup3\n        /* \"#utility.yul\":4255:4261   */\n      dup3\n        /* \"#utility.yul\":4249:4253   */\n      dup6\n        /* \"#utility.yul\":4203:4270   */\n      tag_26\n      jump\t// in\n    tag_88:\n        /* \"#utility.yul\":4297:4298   */\n      0x00\n        /* \"#utility.yul\":4321:4325   */\n      0x20\n        /* \"#utility.yul\":4308:4325   */\n      swap1\n      pop\n        /* \"#utility.yul\":4353:4355   */\n      0x1f\n        /* \"#utility.yul\":4345:4351   */\n      dup4\n        /* \"#utility.yul\":4342:4356   */\n      gt\n        /* \"#utility.yul\":4370:4371   */\n      0x01\n        /* \"#utility.yul\":4365:4983   */\n      dup2\n      eq\n      tag_90\n      jumpi\n        /* \"#utility.yul\":5027:5028   */\n      0x00\n        /* \"#utility.yul\":5044:5050   */\n      dup5\n        /* \"#utility.yul\":5041:5118   */\n      iszero\n      tag_91\n      jumpi\n        /* \"#utility.yul\":5093:5102   */\n      dup3\n        /* \"#utility.yul\":5088:5091   */\n      dup8\n        /* \"#utility.yul\":5084:5103   */\n      add\n        /* \"#utility.yul\":5078:5104   */\n      mload\n        /* \"#utility.yul\":5069:5104   */\n      swap1\n      pop\n        /* \"#utility.yul\":5041:5118   */\n    tag_91:\n        /* \"#utility.yul\":5144:5211   */\n      tag_92\n        /* \"#utility.yul\":5204:5210   */\n      dup6\n        /* \"#utility.yul\":5197:5202   */\n      dup3\n        /* \"#utility.yul\":5144:5211   */\n      tag_29\n      jump\t// in\n    tag_92:\n        /* \"#utility.yul\":5138:5142   */\n      dup7\n        /* \"#utility.yul\":5131:5212   */\n      sstore\n        /* \"#utility.yul\":5000:5222   */\n      pop\n        /* \"#utility.yul\":4335:5222   */\n      jump(tag_89)\n        /* \"#utility.yul\":4365:4983   */\n    tag_90:\n        /* \"#utility.yul\":4417:4421   */\n      0x1f\n        /* \"#utility.yul\":4413:4422   */\n      not\n        /* \"#utility.yul\":4405:4411   */\n      dup5\n        /* \"#utility.yul\":4401:4423   */\n      and\n        /* \"#utility.yul\":4451:4488   */\n      tag_93\n        /* \"#utility.yul\":4483:4487   */\n      dup7\n        /* \"#utility.yul\":4451:4488   */\n      tag_14\n      jump\t// in\n    tag_93:\n        /* \"#utility.yul\":4510:4511   */\n      0x00\n        /* \"#utility.yul\":4524:4732   */\n    tag_94:\n        /* \"#utility.yul\":4538:4545   */\n      dup3\n        /* \"#utility.yul\":4535:4536   */\n      dup2\n        /* \"#utility.yul\":4532:4546   */\n      lt\n        /* \"#utility.yul\":4524:4732   */\n      iszero\n      tag_96\n      jumpi\n        /* \"#utility.yul\":4617:4626   */\n      dup5\n        /* \"#utility.yul\":4612:4615   */\n      dup10\n        /* \"#utility.yul\":4608:4627   */\n      add\n        /* \"#utility.yul\":4602:4628   */\n      mload\n        /* \"#utility.yul\":4594:4600   */\n      dup3\n        /* \"#utility.yul\":4587:4629   */\n      sstore\n        /* \"#utility.yul\":4668:4669   */\n      0x01\n        /* \"#utility.yul\":4660:4666   */\n      dup3\n        /* \"#utility.yul\":4656:4670   */\n      add\n        /* \"#utility.yul\":4646:4670   */\n      swap2\n      pop\n        /* \"#utility.yul\":4715:4717   */\n      0x20\n        /* \"#utility.yul\":4704:4713   */\n      dup6\n        /* \"#utility.yul\":4700:4718   */\n      add\n        /* \"#utility.yul\":4687:4718   */\n      swap5\n      pop\n        /* \"#utility.yul\":4561:4565   */\n      0x20\n        /* \"#utility.yul\":4558:4559   */\n      dup2\n        /* \"#utility.yul\":4554:4566   */\n      add\n        /* \"#utility.yul\":4549:4566   */\n      swap1\n      pop\n        /* \"#utility.yul\":4524:4732   */\n      jump(tag_94)\n    tag_96:\n        /* \"#utility.yul\":4760:4766   */\n      dup7\n        /* \"#utility.yul\":4751:4758   */\n      dup4\n        /* \"#utility.yul\":4748:4767   */\n      lt\n        /* \"#utility.yul\":4745:4924   */\n      iszero\n      tag_97\n      jumpi\n        /* \"#utility.yul\":4818:4827   */\n      dup5\n        /* \"#utility.yul\":4813:4816   */\n      dup10\n        /* \"#utility.yul\":4809:4828   */\n      add\n        /* \"#utility.yul\":4803:4829   */\n      mload\n        /* \"#utility.yul\":4861:4909   */\n      tag_98\n        /* \"#utility.yul\":4903:4907   */\n      0x1f\n        /* \"#utility.yul\":4895:4901   */\n      dup10\n        /* \"#utility.yul\":4891:4908   */\n      and\n        /* \"#utility.yul\":4880:4889   */\n      dup3\n        /* \"#utility.yul\":4861:4909   */\n      tag_28\n      jump\t// in\n    tag_98:\n        /* \"#utility.yul\":4853:4859   */\n      dup4\n        /* \"#utility.yul\":4846:4910   */\n      sstore\n        /* \"#utility.yul\":4768:4924   */\n      pop\n        /* \"#utility.yul\":4745:4924   */\n    tag_97:\n        /* \"#utility.yul\":4970:4971   */\n      0x01\n        /* \"#utility.yul\":4966:4967   */\n      0x02\n        /* \"#utility.yul\":4958:4964   */\n      dup9\n        /* \"#utility.yul\":4954:4968   */\n      mul\n        /* \"#utility.yul\":4950:4972   */\n      add\n        /* \"#utility.yul\":4944:4948   */\n      dup9\n        /* \"#utility.yul\":4937:4973   */\n      sstore\n        /* \"#utility.yul\":4372:4983   */\n      pop\n      pop\n      pop\n        /* \"#utility.yul\":4335:5222   */\n    tag_89:\n      pop\n        /* \"#utility.yul\":3925:5228   */\n      pop\n      pop\n      pop\n        /* \"#utility.yul\":3833:5228   */\n      pop\n      pop\n      jump\t// out\n        /* \"#utility.yul\":5315:5432   */\n    tag_31:\n        /* \"#utility.yul\":5424:5425   */\n      0x00\n        /* \"#utility.yul\":5421:5422   */\n      dup1\n        /* \"#utility.yul\":5414:5426   */\n      revert\n        /* \"#utility.yul\":5561:5687   */\n    tag_33:\n        /* \"#utility.yul\":5598:5605   */\n      0x00\n        /* \"#utility.yul\":5638:5680   */\n      0xffffffffffffffffffffffffffffffffffffffff\n        /* \"#utility.yul\":5631:5636   */\n      dup3\n        /* \"#utility.yul\":5627:5681   */\n      and\n        /* \"#utility.yul\":5616:5681   */\n      swap1\n      pop\n        /* \"#utility.yul\":5561:5687   */\n      swap2\n      swap1\n      pop\n      jump\t// out\n        /* \"#utility.yul\":5693:5789   */\n    tag_34:\n        /* \"#utility.yul\":5730:5737   */\n      0x00\n        /* \"#utility.yul\":5759:5783   */\n      tag_104\n        /* \"#utility.yul\":5777:5782   */\n      dup3\n        /* \"#utility.yul\":5759:5783   */\n      tag_33\n      jump\t// in\n    tag_104:\n        /* \"#utility.yul\":5748:5783   */\n      swap1\n      pop\n        /* \"#utility.yul\":5693:5789   */\n      swap2\n      swap1\n      pop\n      jump\t// out\n        /* \"#utility.yul\":5795:5917   */\n    tag_35:\n        /* \"#utility.yul\":5868:5892   */\n      tag_106\n        /* \"#utility.yul\":5886:5891   */\n      dup2\n        /* \"#utility.yul\":5868:5892   */\n      tag_34\n      jump\t// in\n    tag_106:\n        /* \"#utility.yul\":5861:5866   */\n      dup2\n        /* \"#utility.yul\":5858:5893   */\n      eq\n        /* \"#utility.yul\":5848:5911   */\n      tag_107\n      jumpi\n        /* \"#utility.yul\":5907:5908   */\n      0x00\n        /* \"#utility.yul\":5904:5905   */\n      dup1\n        /* \"#utility.yul\":5897:5909   */\n      revert\n        /* \"#utility.yul\":5848:5911   */\n    tag_107:\n        /* \"#utility.yul\":5795:5917   */\n      pop\n      jump\t// out\n        /* \"#utility.yul\":5923:6066   */\n    tag_36:\n        /* \"#utility.yul\":5980:5985   */\n      0x00\n        /* \"#utility.yul\":6011:6017   */\n      dup2\n        /* \"#utility.yul\":6005:6018   */\n      mload\n        /* \"#utility.yul\":5996:6018   */\n      swap1\n      pop\n        /* \"#utility.yul\":6027:6060   */\n      tag_109\n        /* \"#utility.yul\":6054:6059   */\n      dup2\n        /* \"#utility.yul\":6027:6060   */\n      tag_35\n      jump\t// in\n    tag_109:\n        /* \"#utility.yul\":5923:6066   */\n      swap3\n      swap2\n      pop\n      pop\n      jump\t// out\n        /* \"#utility.yul\":6072:6423   */\n    tag_6:\n        /* \"#utility.yul\":6142:6148   */\n      0x00\n        /* \"#utility.yul\":6191:6193   */\n      0x20\n        /* \"#utility.yul\":6179:6188   */\n      dup3\n        /* \"#utility.yul\":6170:6177   */\n      dup5\n        /* \"#utility.yul\":6166:6189   */\n      sub\n        /* \"#utility.yul\":6162:6194   */\n      slt\n        /* \"#utility.yul\":6159:6278   */\n      iszero\n      tag_111\n      jumpi\n        /* \"#utility.yul\":6197:6276   */\n      tag_112\n      tag_31\n      jump\t// in\n    tag_112:\n        /* \"#utility.yul\":6159:6278   */\n    tag_111:\n        /* \"#utility.yul\":6317:6318   */\n      0x00\n        /* \"#utility.yul\":6342:6406   */\n      tag_113\n        /* \"#utility.yul\":6398:6405   */\n      dup5\n        /* \"#utility.yul\":6389:6395   */\n      dup3\n        /* \"#utility.yul\":6378:6387   */\n      dup6\n        /* \"#utility.yul\":6374:6396   */\n      add\n        /* \"#utility.yul\":6342:6406   */\n      tag_36\n      jump\t// in\n    tag_113:\n        /* \"#utility.yul\":6332:6406   */\n      swap2\n      pop\n        /* \"#utility.yul\":6288:6416   */\n      pop\n        /* \"#utility.yul\":6072:6423   */\n      swap3\n      swap2\n      pop\n      pop\n      jump\t// out\n        /* \"contracts/TaskMarket.sol\":141:1507  contract Shitcoin {... */\n    tag_9:\n      dataSize(sub_0)\n      dup1\n      dataOffset(sub_0)\n      0x00\n      codecopy\n      0x00\n      return\n    stop\n\n    sub_0: assembly {\n            /* \"contracts/TaskMarket.sol\":141:1507  contract Shitcoin {... */\n          mstore(0x40, 0x80)\n          jumpi(tag_1, lt(calldatasize, 0x04))\n          shr(0xe0, calldataload(0x00))\n          dup1\n          0x89b08f11\n          gt\n          tag_9\n          jumpi\n          dup1\n          0x89b08f11\n          eq\n          tag_5\n          jumpi\n          dup1\n          0x95d89b41\n          eq\n          tag_6\n          jumpi\n          dup1\n          0xa6f2ae3a\n          eq\n          tag_7\n          jumpi\n          dup1\n          0xa9059cbb\n          eq\n          tag_8\n          jumpi\n          jump(tag_1)\n        tag_9:\n          dup1\n          0x06fdde03\n          eq\n          tag_2\n          jumpi\n          dup1\n          0x23b872dd\n          eq\n          tag_3\n          jumpi\n          dup1\n          0x80f55605\n          eq\n          tag_4\n          jumpi\n        tag_1:\n          0x00\n          dup1\n          revert\n            /* \"contracts/TaskMarket.sol\":165:196  string public name = \"ShitCoin\" */\n        tag_2:\n          callvalue\n          dup1\n          iszero\n          tag_10\n          jumpi\n          0x00\n          dup1\n          revert\n        tag_10:\n          pop\n          tag_11\n          tag_12\n          jump\t// in\n        tag_11:\n          mload(0x40)\n          tag_13\n          swap2\n          swap1\n          tag_14\n          jump\t// in\n        tag_13:\n          mload(0x40)\n          dup1\n          swap2\n          sub\n          swap1\n          return\n            /* \"contracts/TaskMarket.sol\":1111:1505  function transferFrom(address _from, address _to, uint256 _amount) external {... */\n        tag_3:\n          callvalue\n          dup1\n          iszero\n          tag_15\n          jumpi\n          0x00\n          dup1\n          revert\n        tag_15:\n          pop\n          tag_16\n          0x04\n          dup1\n          calldatasize\n          sub\n          dup2\n          add\n          swap1\n          tag_17\n          swap2\n          swap1\n          tag_18\n          jump\t// in\n        tag_17:\n          tag_19\n          jump\t// in\n        tag_16:\n          stop\n            /* \"contracts/TaskMarket.sol\":324:345  address public market */\n        tag_4:\n          callvalue\n          dup1\n          iszero\n          tag_20\n          jumpi\n          0x00\n          dup1\n          revert\n        tag_20:\n          pop\n          tag_21\n          tag_22\n          jump\t// in\n        tag_21:\n          mload(0x40)\n          tag_23\n          swap2\n          swap1\n          tag_24\n          jump\t// in\n        tag_23:\n          mload(0x40)\n          dup1\n          swap2\n          sub\n          swap1\n          return\n            /* \"contracts/TaskMarket.sol\":237:279  mapping(address => uint256) public wallets */\n        tag_5:\n          callvalue\n          dup1\n          iszero\n          tag_25\n          jumpi\n          0x00\n          dup1\n          revert\n        tag_25:\n          pop\n          tag_26\n          0x04\n          dup1\n          calldatasize\n          sub\n          dup2\n          add\n          swap1\n          tag_27\n          swap2\n          swap1\n          tag_28\n          jump\t// in\n        tag_27:\n          tag_29\n          jump\t// in\n        tag_26:\n          mload(0x40)\n          tag_30\n          swap2\n          swap1\n          tag_31\n          jump\t// in\n        tag_30:\n          mload(0x40)\n          dup1\n          swap2\n          sub\n          swap1\n          return\n            /* \"contracts/TaskMarket.sol\":202:230  string public symbol = \"SHT\" */\n        tag_6:\n          callvalue\n          dup1\n          iszero\n          tag_32\n          jumpi\n          0x00\n          dup1\n          revert\n        tag_32:\n          pop\n          tag_33\n          tag_34\n          jump\t// in\n        tag_33:\n          mload(0x40)\n          tag_35\n          swap2\n          swap1\n          tag_14\n          jump\t// in\n        tag_35:\n          mload(0x40)\n          dup1\n          swap2\n          sub\n          swap1\n          return\n            /* \"contracts/TaskMarket.sol\":522:770  function buy() external payable {... */\n        tag_7:\n          tag_36\n          tag_37\n          jump\t// in\n        tag_36:\n          stop\n            /* \"contracts/TaskMarket.sol\":776:1105  function transfer(address _to, uint256 _amount) external {... */\n        tag_8:\n          callvalue\n          dup1\n          iszero\n          tag_38\n          jumpi\n          0x00\n          dup1\n          revert\n        tag_38:\n          pop\n          tag_39\n          0x04\n          dup1\n          calldatasize\n          sub\n          dup2\n          add\n          swap1\n          tag_40\n          swap2\n          swap1\n          tag_41\n          jump\t// in\n        tag_40:\n          tag_42\n          jump\t// in\n        tag_39:\n          stop\n            /* \"contracts/TaskMarket.sol\":165:196  string public name = \"ShitCoin\" */\n        tag_12:\n          0x00\n          dup1\n          sload\n          tag_43\n          swap1\n          tag_44\n          jump\t// in\n        tag_43:\n          dup1\n          0x1f\n          add\n          0x20\n          dup1\n          swap2\n          div\n          mul\n          0x20\n          add\n          mload(0x40)\n          swap1\n          dup2\n          add\n          0x40\n          mstore\n          dup1\n          swap3\n          swap2\n          swap1\n          dup2\n          dup2\n          mstore\n          0x20\n          add\n          dup3\n          dup1\n          sload\n          tag_45\n          swap1\n          tag_44\n          jump\t// in\n        tag_45:\n          dup1\n          iszero\n          tag_46\n          jumpi\n          dup1\n          0x1f\n          lt\n          tag_47\n          jumpi\n          0x0100\n          dup1\n          dup4\n          sload\n          div\n          mul\n          dup4\n          mstore\n          swap2\n          0x20\n          add\n          swap2\n          jump(tag_46)\n        tag_47:\n          dup3\n          add\n          swap2\n          swap1\n          0x00\n          mstore\n          keccak256(0x00, 0x20)\n          swap1\n        tag_48:\n          dup2\n          sload\n          dup2\n          mstore\n          swap1\n          0x01\n          add\n          swap1\n          0x20\n          add\n          dup1\n          dup4\n          gt\n          tag_48\n          jumpi\n          dup3\n          swap1\n          sub\n          0x1f\n          and\n          dup3\n          add\n          swap2\n        tag_46:\n          pop\n          pop\n          pop\n          pop\n          pop\n          dup2\n          jump\t// out\n            /* \"contracts/TaskMarket.sol\":1111:1505  function transferFrom(address _from, address _to, uint256 _amount) external {... */\n        tag_19:\n            /* \"contracts/TaskMarket.sol\":1219:1225  market */\n          0x04\n          0x00\n          swap1\n          sload\n          swap1\n          0x0100\n          exp\n          swap1\n          div\n          0xffffffffffffffffffffffffffffffffffffffff\n          and\n            /* \"contracts/TaskMarket.sol\":1205:1225  msg.sender == market */\n          0xffffffffffffffffffffffffffffffffffffffff\n          and\n            /* \"contracts/TaskMarket.sol\":1205:1215  msg.sender */\n          caller\n            /* \"contracts/TaskMarket.sol\":1205:1225  msg.sender == market */\n          0xffffffffffffffffffffffffffffffffffffffff\n          and\n          eq\n            /* \"contracts/TaskMarket.sol\":1197:1226  require(msg.sender == market) */\n          tag_50\n          jumpi\n          0x00\n          dup1\n          revert\n        tag_50:\n            /* \"contracts/TaskMarket.sol\":1280:1283  _to */\n          dup2\n            /* \"contracts/TaskMarket.sol\":1271:1283  _from != _to */\n          0xffffffffffffffffffffffffffffffffffffffff\n          and\n            /* \"contracts/TaskMarket.sol\":1271:1276  _from */\n          dup4\n            /* \"contracts/TaskMarket.sol\":1271:1283  _from != _to */\n          0xffffffffffffffffffffffffffffffffffffffff\n          and\n          sub\n            /* \"contracts/TaskMarket.sol\":1263:1284  require(_from != _to) */\n          tag_51\n          jumpi\n          0x00\n          dup1\n          revert\n        tag_51:\n            /* \"contracts/TaskMarket.sol\":1349:1356  _amount */\n          dup1\n            /* \"contracts/TaskMarket.sol\":1331:1338  wallets */\n          0x02\n            /* \"contracts/TaskMarket.sol\":1331:1345  wallets[_from] */\n          0x00\n            /* \"contracts/TaskMarket.sol\":1339:1344  _from */\n          dup6\n            /* \"contracts/TaskMarket.sol\":1331:1345  wallets[_from] */\n          0xffffffffffffffffffffffffffffffffffffffff\n          and\n          0xffffffffffffffffffffffffffffffffffffffff\n          and\n          dup2\n          mstore\n          0x20\n          add\n          swap1\n          dup2\n          mstore\n          0x20\n          add\n          0x00\n          keccak256\n          sload\n            /* \"contracts/TaskMarket.sol\":1331:1356  wallets[_from] >= _amount */\n          lt\n          iszero\n            /* \"contracts/TaskMarket.sol\":1323:1357  require(wallets[_from] >= _amount) */\n          tag_52\n          jumpi\n          0x00\n          dup1\n          revert\n        tag_52:\n            /* \"contracts/TaskMarket.sol\":1413:1420  _amount */\n          dup1\n            /* \"contracts/TaskMarket.sol\":1395:1402  wallets */\n          0x02\n            /* \"contracts/TaskMarket.sol\":1395:1409  wallets[_from] */\n          0x00\n            /* \"contracts/TaskMarket.sol\":1403:1408  _from */\n          dup6\n            /* \"contracts/TaskMarket.sol\":1395:1409  wallets[_from] */\n          0xffffffffffffffffffffffffffffffffffffffff\n          and\n          0xffffffffffffffffffffffffffffffffffffffff\n          and\n          dup2\n          mstore\n          0x20\n          add\n          swap1\n          dup2\n          mstore\n          0x20\n          add\n          0x00\n          keccak256\n          0x00\n            /* \"contracts/TaskMarket.sol\":1395:1420  wallets[_from] -= _amount */\n          dup3\n          dup3\n          sload\n          tag_53\n          swap2\n          swap1\n          tag_54\n          jump\t// in\n        tag_53:\n          swap3\n          pop\n          pop\n          dup2\n          swap1\n          sstore\n          pop\n            /* \"contracts/TaskMarket.sol\":1446:1453  _amount */\n          dup1\n            /* \"contracts/TaskMarket.sol\":1430:1437  wallets */\n          0x02\n            /* \"contracts/TaskMarket.sol\":1430:1442  wallets[_to] */\n          0x00\n            /* \"contracts/TaskMarket.sol\":1438:1441  _to */\n          dup5\n            /* \"contracts/TaskMarket.sol\":1430:1442  wallets[_to] */\n          0xffffffffffffffffffffffffffffffffffffffff\n          and\n          0xffffffffffffffffffffffffffffffffffffffff\n          and\n          dup2\n          mstore\n          0x20\n          add\n          swap1\n          dup2\n          mstore\n          0x20\n          add\n          0x00\n          keccak256\n          0x00\n            /* \"contracts/TaskMarket.sol\":1430:1453  wallets[_to] += _amount */\n          dup3\n          dup3\n          sload\n          tag_55\n          swap2\n          swap1\n          tag_56\n          jump\t// in\n        tag_55:\n          swap3\n          pop\n          pop\n          dup2\n          swap1\n          sstore\n          pop\n            /* \"contracts/TaskMarket.sol\":1469:1498  Transfer(_from, _to, _amount) */\n          0xddf252ad1be2c89b69c2b068fc378daa952ba7f163c4a11628f55a4df523b3ef\n            /* \"contracts/TaskMarket.sol\":1478:1483  _from */\n          dup4\n            /* \"contracts/TaskMarket.sol\":1485:1488  _to */\n          dup4\n            /* \"contracts/TaskMarket.sol\":1490:1497  _amount */\n          dup4\n            /* \"contracts/TaskMarket.sol\":1469:1498  Transfer(_from, _to, _amount) */\n          mload(0x40)\n          tag_57\n          swap4\n          swap3\n          swap2\n          swap1\n          tag_58\n          jump\t// in\n        tag_57:\n          mload(0x40)\n          dup1\n          swap2\n          sub\n          swap1\n          log1\n            /* \"contracts/TaskMarket.sol\":1111:1505  function transferFrom(address _from, address _to, uint256 _amount) external {... */\n          pop\n          pop\n          pop\n          jump\t// out\n            /* \"contracts/TaskMarket.sol\":324:345  address public market */\n        tag_22:\n          0x04\n          0x00\n          swap1\n          sload\n          swap1\n          0x0100\n          exp\n          swap1\n          div\n          0xffffffffffffffffffffffffffffffffffffffff\n          and\n          dup2\n          jump\t// out\n            /* \"contracts/TaskMarket.sol\":237:279  mapping(address => uint256) public wallets */\n        tag_29:\n          mstore(0x20, 0x02)\n          dup1\n          0x00\n          mstore\n          keccak256(0x00, 0x40)\n          0x00\n          swap2\n          pop\n          swap1\n          pop\n          sload\n          dup2\n          jump\t// out\n            /* \"contracts/TaskMarket.sol\":202:230  string public symbol = \"SHT\" */\n        tag_34:\n          0x01\n          dup1\n          sload\n          tag_59\n          swap1\n          tag_44\n          jump\t// in\n        tag_59:\n          dup1\n          0x1f\n          add\n          0x20\n          dup1\n          swap2\n          div\n          mul\n          0x20\n          add\n          mload(0x40)\n          swap1\n          dup2\n          add\n          0x40\n          mstore\n          dup1\n          swap3\n          swap2\n          swap1\n          dup2\n          dup2\n          mstore\n          0x20\n          add\n          dup3\n          dup1\n          sload\n          tag_60\n          swap1\n          tag_44\n          jump\t// in\n        tag_60:\n          dup1\n          iszero\n          tag_61\n          jumpi\n          dup1\n          0x1f\n          lt\n          tag_62\n          jumpi\n          0x0100\n          dup1\n          dup4\n          sload\n          div\n          mul\n          dup4\n          mstore\n          swap2\n          0x20\n          add\n          swap2\n          jump(tag_61)\n        tag_62:\n          dup3\n          add\n          swap2\n          swap1\n          0x00\n          mstore\n          keccak256(0x00, 0x20)\n          swap1\n        tag_63:\n          dup2\n          sload\n          dup2\n          mstore\n          swap1\n          0x01\n          add\n          swap1\n          0x20\n          add\n          dup1\n          dup4\n          gt\n          tag_63\n          jumpi\n          dup3\n          swap1\n          sub\n          0x1f\n          and\n          dup3\n          add\n          swap2\n        tag_61:\n          pop\n          pop\n          pop\n          pop\n          pop\n          dup2\n          jump\t// out\n            /* \"contracts/TaskMarket.sol\":522:770  function buy() external payable {... */\n        tag_37:\n            /* \"contracts/TaskMarket.sol\":573:587  uint256 amount */\n          0x00\n            /* \"contracts/TaskMarket.sol\":602:617  100000000000000 */\n          0x5af3107a4000\n            /* \"contracts/TaskMarket.sol\":590:599  msg.value */\n          callvalue\n            /* \"contracts/TaskMarket.sol\":590:617  msg.value / 100000000000000 */\n          tag_65\n          swap2\n          swap1\n          tag_66\n          jump\t// in\n        tag_65:\n            /* \"contracts/TaskMarket.sol\":573:617  uint256 amount = msg.value / 100000000000000 */\n          swap1\n          pop\n            /* \"contracts/TaskMarket.sol\":654:660  amount */\n          dup1\n            /* \"contracts/TaskMarket.sol\":635:642  wallets */\n          0x02\n            /* \"contracts/TaskMarket.sol\":635:650  wallets[market] */\n          0x00\n            /* \"contracts/TaskMarket.sol\":643:649  market */\n          0x04\n          0x00\n          swap1\n          sload\n          swap1\n          0x0100\n          exp\n          swap1\n          div\n          0xffffffffffffffffffffffffffffffffffffffff\n          and\n            /* \"contracts/TaskMarket.sol\":635:650  wallets[market] */\n          0xffffffffffffffffffffffffffffffffffffffff\n          and\n          0xffffffffffffffffffffffffffffffffffffffff\n          and\n          dup2\n          mstore\n          0x20\n          add\n          swap1\n          dup2\n          mstore\n          0x20\n          add\n          0x00\n          keccak256\n          sload\n            /* \"contracts/TaskMarket.sol\":635:660  wallets[market] >= amount */\n          lt\n          iszero\n            /* \"contracts/TaskMarket.sol\":627:661  require(wallets[market] >= amount) */\n          tag_67\n          jumpi\n          0x00\n          dup1\n          revert\n        tag_67:\n            /* \"contracts/TaskMarket.sol\":718:724  amount */\n          dup1\n            /* \"contracts/TaskMarket.sol\":699:706  wallets */\n          0x02\n            /* \"contracts/TaskMarket.sol\":699:714  wallets[market] */\n          0x00\n            /* \"contracts/TaskMarket.sol\":707:713  market */\n          0x04\n          0x00\n          swap1\n          sload\n          swap1\n          0x0100\n          exp\n          swap1\n          div\n          0xffffffffffffffffffffffffffffffffffffffff\n          and\n            /* \"contracts/TaskMarket.sol\":699:714  wallets[market] */\n          0xffffffffffffffffffffffffffffffffffffffff\n          and\n          0xffffffffffffffffffffffffffffffffffffffff\n          and\n          dup2\n          mstore\n          0x20\n          add\n          swap1\n          dup2\n          mstore\n          0x20\n          add\n          0x00\n          keccak256\n          0x00\n            /* \"contracts/TaskMarket.sol\":699:724  wallets[market] -= amount */\n          dup3\n          dup3\n          sload\n          tag_68\n          swap2\n          swap1\n          tag_54\n          jump\t// in\n        tag_68:\n          swap3\n          pop\n          pop\n          dup2\n          swap1\n          sstore\n          pop\n            /* \"contracts/TaskMarket.sol\":757:763  amount */\n          dup1\n            /* \"contracts/TaskMarket.sol\":734:741  wallets */\n          0x02\n            /* \"contracts/TaskMarket.sol\":734:753  wallets[msg.sender] */\n          0x00\n            /* \"contracts/TaskMarket.sol\":742:752  msg.sender */\n          caller\n            /* \"contracts/TaskMarket.sol\":734:753  wallets[msg.sender] */\n          0xffffffffffffffffffffffffffffffffffffffff\n          and\n          0xffffffffffffffffffffffffffffffffffffffff\n          and\n          dup2\n          mstore\n          0x20\n          add\n          swap1\n          dup2\n          mstore\n          0x20\n          add\n          0x00\n          keccak256\n          0x00\n            /* \"contracts/TaskMarket.sol\":734:763  wallets[msg.sender] += amount */\n          dup3\n          dup3\n          sload\n          tag_69\n          swap2\n          swap1\n          tag_56\n          jump\t// in\n        tag_69:\n          swap3\n          pop\n          pop\n          dup2\n          swap1\n          sstore\n          pop\n            /* \"contracts/TaskMarket.sol\":554:770  {... */\n          pop\n            /* \"contracts/TaskMarket.sol\":522:770  function buy() external payable {... */\n          jump\t// out\n            /* \"contracts/TaskMarket.sol\":776:1105  function transfer(address _to, uint256 _amount) external {... */\n        tag_42:\n            /* \"contracts/TaskMarket.sol\":865:868  _to */\n          dup2\n            /* \"contracts/TaskMarket.sol\":851:868  msg.sender != _to */\n          0xffffffffffffffffffffffffffffffffffffffff\n          and\n            /* \"contracts/TaskMarket.sol\":851:861  msg.sender */\n          caller\n            /* \"contracts/TaskMarket.sol\":851:868  msg.sender != _to */\n          0xffffffffffffffffffffffffffffffffffffffff\n          and\n          sub\n            /* \"contracts/TaskMarket.sol\":843:869  require(msg.sender != _to) */\n          tag_71\n          jumpi\n          0x00\n          dup1\n          revert\n        tag_71:\n            /* \"contracts/TaskMarket.sol\":939:946  _amount */\n          dup1\n            /* \"contracts/TaskMarket.sol\":916:923  wallets */\n          0x02\n            /* \"contracts/TaskMarket.sol\":916:935  wallets[msg.sender] */\n          0x00\n            /* \"contracts/TaskMarket.sol\":924:934  msg.sender */\n          caller\n            /* \"contracts/TaskMarket.sol\":916:935  wallets[msg.sender] */\n          0xffffffffffffffffffffffffffffffffffffffff\n          and\n          0xffffffffffffffffffffffffffffffffffffffff\n          and\n          dup2\n          mstore\n          0x20\n          add\n          swap1\n          dup2\n          mstore\n          0x20\n          add\n          0x00\n          keccak256\n          sload\n            /* \"contracts/TaskMarket.sol\":916:946  wallets[msg.sender] >= _amount */\n          lt\n          iszero\n            /* \"contracts/TaskMarket.sol\":908:947  require(wallets[msg.sender] >= _amount) */\n          tag_72\n          jumpi\n          0x00\n          dup1\n          revert\n        tag_72:\n            /* \"contracts/TaskMarket.sol\":1008:1015  _amount */\n          dup1\n            /* \"contracts/TaskMarket.sol\":985:992  wallets */\n          0x02\n            /* \"contracts/TaskMarket.sol\":985:1004  wallets[msg.sender] */\n          0x00\n            /* \"contracts/TaskMarket.sol\":993:1003  msg.sender */\n          caller\n            /* \"contracts/TaskMarket.sol\":985:1004  wallets[msg.sender] */\n          0xffffffffffffffffffffffffffffffffffffffff\n          and\n          0xffffffffffffffffffffffffffffffffffffffff\n          and\n          dup2\n          mstore\n          0x20\n          add\n          swap1\n          dup2\n          mstore\n          0x20\n          add\n          0x00\n          keccak256\n          0x00\n            /* \"contracts/TaskMarket.sol\":985:1015  wallets[msg.sender] -= _amount */\n          dup3\n          dup3\n          sload\n          tag_73\n          swap2\n          swap1\n          tag_54\n          jump\t// in\n        tag_73:\n          swap3\n          pop\n          pop\n          dup2\n          swap1\n          sstore\n          pop\n            /* \"contracts/TaskMarket.sol\":1041:1048  _amount */\n          dup1\n            /* \"contracts/TaskMarket.sol\":1025:1032  wallets */\n          0x02\n            /* \"contracts/TaskMarket.sol\":1025:1037  wallets[_to] */\n          0x00\n            /* \"contracts/TaskMarket.sol\":1033:1036  _to */\n          dup5\n            /* \"contracts/TaskMarket.sol\":1025:1037  wallets[_to] */\n          0xffffffffffffffffffffffffffffffffffffffff\n          and\n          0xffffffffffffffffffffffffffffffffffffffff\n          and\n          dup2\n          mstore\n          0x20\n          add\n          swap1\n          dup2\n          mstore\n          0x20\n          add\n          0x00\n          keccak256\n          0x00\n            /* \"contracts/TaskMarket.sol\":1025:1048  wallets[_to] += _amount */\n          dup3\n          dup3\n          sload\n          tag_74\n          swap2\n          swap1\n          tag_56\n          jump\t// in\n        tag_74:\n          swap3\n          pop\n          pop\n          dup2\n          swap1\n          sstore\n          pop\n            /* \"contracts/TaskMarket.sol\":1064:1098  Transfer(msg.sender, _to, _amount) */\n          0xddf252ad1be2c89b69c2b068fc378daa952ba7f163c4a11628f55a4df523b3ef\n            /* \"contracts/TaskMarket.sol\":1073:1083  msg.sender */\n          caller\n            /* \"contracts/TaskMarket.sol\":1085:1088  _to */\n          dup4\n            /* \"contracts/TaskMarket.sol\":1090:1097  _amount */\n          dup4\n            /* \"contracts/TaskMarket.sol\":1064:1098  Transfer(msg.sender, _to, _amount) */\n          mload(0x40)\n          tag_75\n          swap4\n          swap3\n          swap2\n          swap1\n          tag_58\n          jump\t// in\n        tag_75:\n          mload(0x40)\n          dup1\n          swap2\n          sub\n          swap1\n          log1\n            /* \"contracts/TaskMarket.sol\":776:1105  function transfer(address _to, uint256 _amount) external {... */\n          pop\n          pop\n          jump\t// out\n            /* \"#utility.yul\":7:106   */\n        tag_76:\n            /* \"#utility.yul\":59:65   */\n          0x00\n            /* \"#utility.yul\":93:98   */\n          dup2\n            /* \"#utility.yul\":87:99   */\n          mload\n            /* \"#utility.yul\":77:99   */\n          swap1\n          pop\n            /* \"#utility.yul\":7:106   */\n          swap2\n          swap1\n          pop\n          jump\t// out\n            /* \"#utility.yul\":112:281   */\n        tag_77:\n            /* \"#utility.yul\":196:207   */\n          0x00\n            /* \"#utility.yul\":230:236   */\n          dup3\n            /* \"#utility.yul\":225:228   */\n          dup3\n            /* \"#utility.yul\":218:237   */\n          mstore\n            /* \"#utility.yul\":270:274   */\n          0x20\n            /* \"#utility.yul\":265:268   */\n          dup3\n            /* \"#utility.yul\":261:275   */\n          add\n            /* \"#utility.yul\":246:275   */\n          swap1\n          pop\n            /* \"#utility.yul\":112:281   */\n          swap3\n          swap2\n          pop\n          pop\n          jump\t// out\n            /* \"#utility.yul\":287:426   */\n        tag_78:\n            /* \"#utility.yul\":376:382   */\n          dup3\n            /* \"#utility.yul\":371:374   */\n          dup2\n            /* \"#utility.yul\":366:369   */\n          dup4\n            /* \"#utility.yul\":360:383   */\n          mcopy\n            /* \"#utility.yul\":417:418   */\n          0x00\n            /* \"#utility.yul\":408:414   */\n          dup4\n            /* \"#utility.yul\":403:406   */\n          dup4\n            /* \"#utility.yul\":399:415   */\n          add\n            /* \"#utility.yul\":392:419   */\n          mstore\n            /* \"#utility.yul\":287:426   */\n          pop\n          pop\n          pop\n          jump\t// out\n            /* \"#utility.yul\":432:534   */\n        tag_79:\n            /* \"#utility.yul\":473:479   */\n          0x00\n            /* \"#utility.yul\":524:526   */\n          0x1f\n            /* \"#utility.yul\":520:527   */\n          not\n            /* \"#utility.yul\":515:517   */\n          0x1f\n            /* \"#utility.yul\":508:513   */\n          dup4\n            /* \"#utility.yul\":504:518   */\n          add\n            /* \"#utility.yul\":500:528   */\n          and\n            /* \"#utility.yul\":490:528   */\n          swap1\n          pop\n            /* \"#utility.yul\":432:534   */\n          swap2\n          swap1\n          pop\n          jump\t// out\n            /* \"#utility.yul\":540:917   */\n        tag_80:\n            /* \"#utility.yul\":628:631   */\n          0x00\n            /* \"#utility.yul\":656:695   */\n          tag_102\n            /* \"#utility.yul\":689:694   */\n          dup3\n            /* \"#utility.yul\":656:695   */\n          tag_76\n          jump\t// in\n        tag_102:\n            /* \"#utility.yul\":711:782   */\n          tag_103\n            /* \"#utility.yul\":775:781   */\n          dup2\n            /* \"#utility.yul\":770:773   */\n          dup6\n            /* \"#utility.yul\":711:782   */\n          tag_77\n          jump\t// in\n        tag_103:\n            /* \"#utility.yul\":704:782   */\n          swap4\n          pop\n            /* \"#utility.yul\":791:856   */\n          tag_104\n            /* \"#utility.yul\":849:855   */\n          dup2\n            /* \"#utility.yul\":844:847   */\n          dup6\n            /* \"#utility.yul\":837:841   */\n          0x20\n            /* \"#utility.yul\":830:835   */\n          dup7\n            /* \"#utility.yul\":826:842   */\n          add\n            /* \"#utility.yul\":791:856   */\n          tag_78\n          jump\t// in\n        tag_104:\n            /* \"#utility.yul\":881:910   */\n          tag_105\n            /* \"#utility.yul\":903:909   */\n          dup2\n            /* \"#utility.yul\":881:910   */\n          tag_79\n          jump\t// in\n        tag_105:\n            /* \"#utility.yul\":876:879   */\n          dup5\n            /* \"#utility.yul\":872:911   */\n          add\n            /* \"#utility.yul\":865:911   */\n          swap2\n          pop\n            /* \"#utility.yul\":632:917   */\n          pop\n            /* \"#utility.yul\":540:917   */\n          swap3\n          swap2\n          pop\n          pop\n          jump\t// out\n            /* \"#utility.yul\":923:1236   */\n        tag_14:\n            /* \"#utility.yul\":1036:1040   */\n          0x00\n            /* \"#utility.yul\":1074:1076   */\n          0x20\n            /* \"#utility.yul\":1063:1072   */\n          dup3\n            /* \"#utility.yul\":1059:1077   */\n          add\n            /* \"#utility.yul\":1051:1077   */\n          swap1\n          pop\n            /* \"#utility.yul\":1123:1132   */\n          dup2\n            /* \"#utility.yul\":1117:1121   */\n          dup2\n            /* \"#utility.yul\":1113:1133   */\n          sub\n            /* \"#utility.yul\":1109:1110   */\n          0x00\n            /* \"#utility.yul\":1098:1107   */\n          dup4\n            /* \"#utility.yul\":1094:1111   */\n          add\n            /* \"#utility.yul\":1087:1134   */\n          mstore\n            /* \"#utility.yul\":1151:1229   */\n          tag_107\n            /* \"#utility.yul\":1224:1228   */\n          dup2\n            /* \"#utility.yul\":1215:1221   */\n          dup5\n            /* \"#utility.yul\":1151:1229   */\n          tag_80\n          jump\t// in\n        tag_107:\n            /* \"#utility.yul\":1143:1229   */\n          swap1\n          pop\n            /* \"#utility.yul\":923:1236   */\n          swap3\n          swap2\n          pop\n          pop\n          jump\t// out\n            /* \"#utility.yul\":1323:1440   */\n        tag_82:\n            /* \"#utility.yul\":1432:1433   */\n          0x00\n            /* \"#utility.yul\":1429:1430   */\n          dup1\n            /* \"#utility.yul\":1422:1434   */\n          revert\n            /* \"#utility.yul\":1569:1695   */\n        tag_84:\n            /* \"#utility.yul\":1606:1613   */\n          0x00\n            /* \"#utility.yul\":1646:1688   */\n          0xffffffffffffffffffffffffffffffffffffffff\n            /* \"#utility.yul\":1639:1644   */\n          dup3\n            /* \"#utility.yul\":1635:1689   */\n          and\n            /* \"#utility.yul\":1624:1689   */\n          swap1\n          pop\n            /* \"#utility.yul\":1569:1695   */\n          swap2\n          swap1\n          pop\n          jump\t// out\n            /* \"#utility.yul\":1701:1797   */\n        tag_85:\n            /* \"#utility.yul\":1738:1745   */\n          0x00\n            /* \"#utility.yul\":1767:1791   */\n          tag_113\n            /* \"#utility.yul\":1785:1790   */\n          dup3\n            /* \"#utility.yul\":1767:1791   */\n          tag_84\n          jump\t// in\n        tag_113:\n            /* \"#utility.yul\":1756:1791   */\n          swap1\n          pop\n            /* \"#utility.yul\":1701:1797   */\n          swap2\n          swap1\n          pop\n          jump\t// out\n            /* \"#utility.yul\":1803:1925   */\n        tag_86:\n            /* \"#utility.yul\":1876:1900   */\n          tag_115\n            /* \"#utility.yul\":1894:1899   */\n          dup2\n            /* \"#utility.yul\":1876:1900   */\n          tag_85\n          jump\t// in\n        tag_115:\n            /* \"#utility.yul\":1869:1874   */\n          dup2\n            /* \"#utility.yul\":1866:1901   */\n          eq\n            /* \"#utility.yul\":1856:1919   */\n          tag_116\n          jumpi\n            /* \"#utility.yul\":1915:1916   */\n          0x00\n            /* \"#utility.yul\":1912:1913   */\n          dup1\n            /* \"#utility.yul\":1905:1917   */\n          revert\n            /* \"#utility.yul\":1856:1919   */\n        tag_116:\n            /* \"#utility.yul\":1803:1925   */\n          pop\n          jump\t// out\n            /* \"#utility.yul\":1931:2070   */\n        tag_87:\n            /* \"#utility.yul\":1977:1982   */\n          0x00\n            /* \"#utility.yul\":2015:2021   */\n          dup2\n            /* \"#utility.yul\":2002:2022   */\n          calldataload\n            /* \"#utility.yul\":1993:2022   */\n          swap1\n          pop\n            /* \"#utility.yul\":2031:2064   */\n          tag_118\n            /* \"#utility.yul\":2058:2063   */\n          dup2\n            /* \"#utility.yul\":2031:2064   */\n          tag_86\n          jump\t// in\n        tag_118:\n            /* \"#utility.yul\":1931:2070   */\n          swap3\n          swap2\n          pop\n          pop\n          jump\t// out\n            /* \"#utility.yul\":2076:2153   */\n        tag_88:\n            /* \"#utility.yul\":2113:2120   */\n          0x00\n            /* \"#utility.yul\":2142:2147   */\n          dup2\n            /* \"#utility.yul\":2131:2147   */\n          swap1\n          pop\n            /* \"#utility.yul\":2076:2153   */\n          swap2\n          swap1\n          pop\n          jump\t// out\n            /* \"#utility.yul\":2159:2281   */\n        tag_89:\n            /* \"#utility.yul\":2232:2256   */\n          tag_121\n            /* \"#utility.yul\":2250:2255   */\n          dup2\n            /* \"#utility.yul\":2232:2256   */\n          tag_88\n          jump\t// in\n        tag_121:\n            /* \"#utility.yul\":2225:2230   */\n          dup2\n            /* \"#utility.yul\":2222:2257   */\n          eq\n            /* \"#utility.yul\":2212:2275   */\n          tag_122\n          jumpi\n            /* \"#utility.yul\":2271:2272   */\n          0x00\n            /* \"#utility.yul\":2268:2269   */\n          dup1\n            /* \"#utility.yul\":2261:2273   */\n          revert\n            /* \"#utility.yul\":2212:2275   */\n        tag_122:\n            /* \"#utility.yul\":2159:2281   */\n          pop\n          jump\t// out\n            /* \"#utility.yul\":2287:2426   */\n        tag_90:\n            /* \"#utility.yul\":2333:2338   */\n          0x00\n            /* \"#utility.yul\":2371:2377   */\n          dup2\n            /* \"#utility.yul\":2358:2378   */\n          calldataload\n            /* \"#utility.yul\":2349:2378   */\n          swap1\n          pop\n            /* \"#utility.yul\":2387:2420   */\n          tag_124\n            /* \"#utility.yul\":2414:2419   */\n          dup2\n            /* \"#utility.yul\":2387:2420   */\n          tag_89\n          jump\t// in\n        tag_124:\n            /* \"#utility.yul\":2287:2426   */\n          swap3\n          swap2\n          pop\n          pop\n          jump\t// out\n            /* \"#utility.yul\":2432:3051   */\n        tag_18:\n            /* \"#utility.yul\":2509:2515   */\n          0x00\n            /* \"#utility.yul\":2517:2523   */\n          dup1\n            /* \"#utility.yul\":2525:2531   */\n          0x00\n            /* \"#utility.yul\":2574:2576   */\n          0x60\n            /* \"#utility.yul\":2562:2571   */\n          dup5\n            /* \"#utility.yul\":2553:2560   */\n          dup7\n            /* \"#utility.yul\":2549:2572   */\n          sub\n            /* \"#utility.yul\":2545:2577   */\n          slt\n            /* \"#utility.yul\":2542:2661   */\n          iszero\n          tag_126\n          jumpi\n            /* \"#utility.yul\":2580:2659   */\n          tag_127\n          tag_82\n          jump\t// in\n        tag_127:\n            /* \"#utility.yul\":2542:2661   */\n        tag_126:\n            /* \"#utility.yul\":2700:2701   */\n          0x00\n            /* \"#utility.yul\":2725:2778   */\n          tag_128\n            /* \"#utility.yul\":2770:2777   */\n          dup7\n            /* \"#utility.yul\":2761:2767   */\n          dup3\n            /* \"#utility.yul\":2750:2759   */\n          dup8\n            /* \"#utility.yul\":2746:2768   */\n          add\n            /* \"#utility.yul\":2725:2778   */\n          tag_87\n          jump\t// in\n        tag_128:\n            /* \"#utility.yul\":2715:2778   */\n          swap4\n          pop\n            /* \"#utility.yul\":2671:2788   */\n          pop\n            /* \"#utility.yul\":2827:2829   */\n          0x20\n            /* \"#utility.yul\":2853:2906   */\n          tag_129\n            /* \"#utility.yul\":2898:2905   */\n          dup7\n            /* \"#utility.yul\":2889:2895   */\n          dup3\n            /* \"#utility.yul\":2878:2887   */\n          dup8\n            /* \"#utility.yul\":2874:2896   */\n          add\n            /* \"#utility.yul\":2853:2906   */\n          tag_87\n          jump\t// in\n        tag_129:\n            /* \"#utility.yul\":2843:2906   */\n          swap3\n          pop\n            /* \"#utility.yul\":2798:2916   */\n          pop\n            /* \"#utility.yul\":2955:2957   */\n          0x40\n            /* \"#utility.yul\":2981:3034   */\n          tag_130\n            /* \"#utility.yul\":3026:3033   */\n          dup7\n            /* \"#utility.yul\":3017:3023   */\n          dup3\n            /* \"#utility.yul\":3006:3015   */\n          dup8\n            /* \"#utility.yul\":3002:3024   */\n          add\n            /* \"#utility.yul\":2981:3034   */\n          tag_90\n          jump\t// in\n        tag_130:\n            /* \"#utility.yul\":2971:3034   */\n          swap2\n          pop\n            /* \"#utility.yul\":2926:3044   */\n          pop\n            /* \"#utility.yul\":2432:3051   */\n          swap3\n          pop\n          swap3\n          pop\n          swap3\n          jump\t// out\n            /* \"#utility.yul\":3057:3175   */\n        tag_91:\n            /* \"#utility.yul\":3144:3168   */\n          tag_132\n            /* \"#utility.yul\":3162:3167   */\n          dup2\n            /* \"#utility.yul\":3144:3168   */\n          tag_85\n          jump\t// in\n        tag_132:\n            /* \"#utility.yul\":3139:3142   */\n          dup3\n            /* \"#utility.yul\":3132:3169   */\n          mstore\n            /* \"#utility.yul\":3057:3175   */\n          pop\n          pop\n          jump\t// out\n            /* \"#utility.yul\":3181:3403   */\n        tag_24:\n            /* \"#utility.yul\":3274:3278   */\n          0x00\n            /* \"#utility.yul\":3312:3314   */\n          0x20\n            /* \"#utility.yul\":3301:3310   */\n          dup3\n            /* \"#utility.yul\":3297:3315   */\n          add\n            /* \"#utility.yul\":3289:3315   */\n          swap1\n          pop\n            /* \"#utility.yul\":3325:3396   */\n          tag_134\n            /* \"#utility.yul\":3393:3394   */\n          0x00\n            /* \"#utility.yul\":3382:3391   */\n          dup4\n            /* \"#utility.yul\":3378:3395   */\n          add\n            /* \"#utility.yul\":3369:3375   */\n          dup5\n            /* \"#utility.yul\":3325:3396   */\n          tag_91\n          jump\t// in\n        tag_134:\n            /* \"#utility.yul\":3181:3403   */\n          swap3\n          swap2\n          pop\n          pop\n          jump\t// out\n            /* \"#utility.yul\":3409:3738   */\n        tag_28:\n            /* \"#utility.yul\":3468:3474   */\n          0x00\n            /* \"#utility.yul\":3517:3519   */\n          0x20\n            /* \"#utility.yul\":3505:3514   */\n          dup3\n            /* \"#utility.yul\":3496:3503   */\n          dup5\n            /* \"#utility.yul\":3492:3515   */\n          sub\n            /* \"#utility.yul\":3488:3520   */\n          slt\n            /* \"#utility.yul\":3485:3604   */\n          iszero\n          tag_136\n          jumpi\n            /* \"#utility.yul\":3523:3602   */\n          tag_137\n          tag_82\n          jump\t// in\n        tag_137:\n            /* \"#utility.yul\":3485:3604   */\n        tag_136:\n            /* \"#utility.yul\":3643:3644   */\n          0x00\n            /* \"#utility.yul\":3668:3721   */\n          tag_138\n            /* \"#utility.yul\":3713:3720   */\n          dup5\n            /* \"#utility.yul\":3704:3710   */\n          dup3\n            /* \"#utility.yul\":3693:3702   */\n          dup6\n            /* \"#utility.yul\":3689:3711   */\n          add\n            /* \"#utility.yul\":3668:3721   */\n          tag_87\n          jump\t// in\n        tag_138:\n            /* \"#utility.yul\":3658:3721   */\n          swap2\n          pop\n            /* \"#utility.yul\":3614:3731   */\n          pop\n            /* \"#utility.yul\":3409:3738   */\n          swap3\n          swap2\n          pop\n          pop\n          jump\t// out\n            /* \"#utility.yul\":3744:3862   */\n        tag_92:\n            /* \"#utility.yul\":3831:3855   */\n          tag_140\n            /* \"#utility.yul\":3849:3854   */\n          dup2\n            /* \"#utility.yul\":3831:3855   */\n          tag_88\n          jump\t// in\n        tag_140:\n            /* \"#utility.yul\":3826:3829   */\n          dup3\n            /* \"#utility.yul\":3819:3856   */\n          mstore\n            /* \"#utility.yul\":3744:3862   */\n          pop\n          pop\n          jump\t// out\n            /* \"#utility.yul\":3868:4090   */\n        tag_31:\n            /* \"#utility.yul\":3961:3965   */\n          0x00\n            /* \"#utility.yul\":3999:4001   */\n          0x20\n            /* \"#utility.yul\":3988:3997   */\n          dup3\n            /* \"#utility.yul\":3984:4002   */\n          add\n            /* \"#utility.yul\":3976:4002   */\n          swap1\n          pop\n            /* \"#utility.yul\":4012:4083   */\n          tag_142\n            /* \"#utility.yul\":4080:4081   */\n          0x00\n            /* \"#utility.yul\":4069:4078   */\n          dup4\n            /* \"#utility.yul\":4065:4082   */\n          add\n            /* \"#utility.yul\":4056:4062   */\n          dup5\n            /* \"#utility.yul\":4012:4083   */\n          tag_92\n          jump\t// in\n        tag_142:\n            /* \"#utility.yul\":3868:4090   */\n          swap3\n          swap2\n          pop\n          pop\n          jump\t// out\n            /* \"#utility.yul\":4096:4570   */\n        tag_41:\n            /* \"#utility.yul\":4164:4170   */\n          0x00\n            /* \"#utility.yul\":4172:4178   */\n          dup1\n            /* \"#utility.yul\":4221:4223   */\n          0x40\n            /* \"#utility.yul\":4209:4218   */\n          dup4\n            /* \"#utility.yul\":4200:4207   */\n          dup6\n            /* \"#utility.yul\":4196:4219   */\n          sub\n            /* \"#utility.yul\":4192:4224   */\n          slt\n            /* \"#utility.yul\":4189:4308   */\n          iszero\n          tag_144\n          jumpi\n            /* \"#utility.yul\":4227:4306   */\n          tag_145\n          tag_82\n          jump\t// in\n        tag_145:\n            /* \"#utility.yul\":4189:4308   */\n        tag_144:\n            /* \"#utility.yul\":4347:4348   */\n          0x00\n            /* \"#utility.yul\":4372:4425   */\n          tag_146\n            /* \"#utility.yul\":4417:4424   */\n          dup6\n            /* \"#utility.yul\":4408:4414   */\n          dup3\n            /* \"#utility.yul\":4397:4406   */\n          dup7\n            /* \"#utility.yul\":4393:4415   */\n          add\n            /* \"#utility.yul\":4372:4425   */\n          tag_87\n          jump\t// in\n        tag_146:\n            /* \"#utility.yul\":4362:4425   */\n          swap3\n          pop\n            /* \"#utility.yul\":4318:4435   */\n          pop\n            /* \"#utility.yul\":4474:4476   */\n          0x20\n            /* \"#utility.yul\":4500:4553   */\n          tag_147\n            /* \"#utility.yul\":4545:4552   */\n          dup6\n            /* \"#utility.yul\":4536:4542   */\n          dup3\n            /* \"#utility.yul\":4525:4534   */\n          dup7\n            /* \"#utility.yul\":4521:4543   */\n          add\n            /* \"#utility.yul\":4500:4553   */\n          tag_90\n          jump\t// in\n        tag_147:\n            /* \"#utility.yul\":4490:4553   */\n          swap2\n          pop\n            /* \"#utility.yul\":4445:4563   */\n          pop\n            /* \"#utility.yul\":4096:4570   */\n          swap3\n          pop\n          swap3\n          swap1\n          pop\n          jump\t// out\n            /* \"#utility.yul\":4576:4756   */\n        tag_93:\n            /* \"#utility.yul\":4624:4701   */\n          0x4e487b7100000000000000000000000000000000000000000000000000000000\n            /* \"#utility.yul\":4621:4622   */\n          0x00\n            /* \"#utility.yul\":4614:4702   */\n          mstore\n            /* \"#utility.yul\":4721:4725   */\n          0x22\n            /* \"#utility.yul\":4718:4719   */\n          0x04\n            /* \"#utility.yul\":4711:4726   */\n          mstore\n            /* \"#utility.yul\":4745:4749   */\n          0x24\n            /* \"#utility.yul\":4742:4743   */\n          0x00\n            /* \"#utility.yul\":4735:4750   */\n          revert\n            /* \"#utility.yul\":4762:5082   */\n        tag_44:\n            /* \"#utility.yul\":4806:4812   */\n          0x00\n            /* \"#utility.yul\":4843:4844   */\n          0x02\n            /* \"#utility.yul\":4837:4841   */\n          dup3\n            /* \"#utility.yul\":4833:4845   */\n          div\n            /* \"#utility.yul\":4823:4845   */\n          swap1\n          pop\n            /* \"#utility.yul\":4890:4891   */\n          0x01\n            /* \"#utility.yul\":4884:4888   */\n          dup3\n            /* \"#utility.yul\":4880:4892   */\n          and\n            /* \"#utility.yul\":4911:4929   */\n          dup1\n            /* \"#utility.yul\":4901:4982   */\n          tag_150\n          jumpi\n            /* \"#utility.yul\":4967:4971   */\n          0x7f\n            /* \"#utility.yul\":4959:4965   */\n          dup3\n            /* \"#utility.yul\":4955:4972   */\n          and\n            /* \"#utility.yul\":4945:4972   */\n          swap2\n          pop\n            /* \"#utility.yul\":4901:4982   */\n        tag_150:\n            /* \"#utility.yul\":5029:5031   */\n          0x20\n            /* \"#utility.yul\":5021:5027   */\n          dup3\n            /* \"#utility.yul\":5018:5032   */\n          lt\n            /* \"#utility.yul\":4998:5016   */\n          dup2\n            /* \"#utility.yul\":4995:5033   */\n          sub\n            /* \"#utility.yul\":4992:5076   */\n          tag_151\n          jumpi\n            /* \"#utility.yul\":5048:5066   */\n          tag_152\n          tag_93\n          jump\t// in\n        tag_152:\n            /* \"#utility.yul\":4992:5076   */\n        tag_151:\n            /* \"#utility.yul\":4813:5082   */\n          pop\n            /* \"#utility.yul\":4762:5082   */\n          swap2\n          swap1\n          pop\n          jump\t// out\n            /* \"#utility.yul\":5088:5268   */\n        tag_94:\n            /* \"#utility.yul\":5136:5213   */\n          0x4e487b7100000000000000000000000000000000000000000000000000000000\n            /* \"#utility.yul\":5133:5134   */\n          0x00\n            /* \"#utility.yul\":5126:5214   */\n          mstore\n            /* \"#utility.yul\":5233:5237   */\n          0x11\n            /* \"#utility.yul\":5230:5231   */\n          0x04\n            /* \"#utility.yul\":5223:5238   */\n          mstore\n            /* \"#utility.yul\":5257:5261   */\n          0x24\n            /* \"#utility.yul\":5254:5255   */\n          0x00\n            /* \"#utility.yul\":5247:5262   */\n          revert\n            /* \"#utility.yul\":5274:5468   */\n        tag_54:\n            /* \"#utility.yul\":5314:5318   */\n          0x00\n            /* \"#utility.yul\":5334:5354   */\n          tag_155\n            /* \"#utility.yul\":5352:5353   */\n          dup3\n            /* \"#utility.yul\":5334:5354   */\n          tag_88\n          jump\t// in\n        tag_155:\n            /* \"#utility.yul\":5329:5354   */\n          swap2\n          pop\n            /* \"#utility.yul\":5368:5388   */\n          tag_156\n            /* \"#utility.yul\":5386:5387   */\n          dup4\n            /* \"#utility.yul\":5368:5388   */\n          tag_88\n          jump\t// in\n        tag_156:\n            /* \"#utility.yul\":5363:5388   */\n          swap3\n          pop\n            /* \"#utility.yul\":5412:5413   */\n          dup3\n            /* \"#utility.yul\":5409:5410   */\n          dup3\n            /* \"#utility.yul\":5405:5414   */\n          sub\n            /* \"#utility.yul\":5397:5414   */\n          swap1\n          pop\n            /* \"#utility.yul\":5436:5437   */\n          dup2\n            /* \"#utility.yul\":5430:5434   */\n          dup2\n            /* \"#utility.yul\":5427:5438   */\n          gt\n            /* \"#utility.yul\":5424:5461   */\n          iszero\n          tag_157\n          jumpi\n            /* \"#utility.yul\":5441:5459   */\n          tag_158\n          tag_94\n          jump\t// in\n        tag_158:\n            /* \"#utility.yul\":5424:5461   */\n        tag_157:\n            /* \"#utility.yul\":5274:5468   */\n          swap3\n          swap2\n          pop\n          pop\n          jump\t// out\n            /* \"#utility.yul\":5474:5665   */\n        tag_56:\n            /* \"#utility.yul\":5514:5517   */\n          0x00\n            /* \"#utility.yul\":5533:5553   */\n          tag_160\n            /* \"#utility.yul\":5551:5552   */\n          dup3\n            /* \"#utility.yul\":5533:5553   */\n          tag_88\n          jump\t// in\n        tag_160:\n            /* \"#utility.yul\":5528:5553   */\n          swap2\n          pop\n            /* \"#utility.yul\":5567:5587   */\n          tag_161\n            /* \"#utility.yul\":5585:5586   */\n          dup4\n            /* \"#utility.yul\":5567:5587   */\n          tag_88\n          jump\t// in\n        tag_161:\n            /* \"#utility.yul\":5562:5587   */\n          swap3\n          pop\n            /* \"#utility.yul\":5610:5611   */\n          dup3\n            /* \"#utility.yul\":5607:5608   */\n          dup3\n            /* \"#utility.yul\":5603:5612   */\n          add\n            /* \"#utility.yul\":5596:5612   */\n          swap1\n          pop\n            /* \"#utility.yul\":5631:5634   */\n          dup1\n            /* \"#utility.yul\":5628:5629   */\n          dup3\n            /* \"#utility.yul\":5625:5635   */\n          gt\n            /* \"#utility.yul\":5622:5658   */\n          iszero\n          tag_162\n          jumpi\n            /* \"#utility.yul\":5638:5656   */\n          tag_163\n          tag_94\n          jump\t// in\n        tag_163:\n            /* \"#utility.yul\":5622:5658   */\n        tag_162:\n            /* \"#utility.yul\":5474:5665   */\n          swap3\n          swap2\n          pop\n          pop\n          jump\t// out\n            /* \"#utility.yul\":5671:6113   */\n        tag_58:\n            /* \"#utility.yul\":5820:5824   */\n          0x00\n            /* \"#utility.yul\":5858:5860   */\n          0x60\n            /* \"#utility.yul\":5847:5856   */\n          dup3\n            /* \"#utility.yul\":5843:5861   */\n          add\n            /* \"#utility.yul\":5835:5861   */\n          swap1\n          pop\n            /* \"#utility.yul\":5871:5942   */\n          tag_165\n            /* \"#utility.yul\":5939:5940   */\n          0x00\n            /* \"#utility.yul\":5928:5937   */\n          dup4\n            /* \"#utility.yul\":5924:5941   */\n          add\n            /* \"#utility.yul\":5915:5921   */\n          dup7\n            /* \"#utility.yul\":5871:5942   */\n          tag_91\n          jump\t// in\n        tag_165:\n            /* \"#utility.yul\":5952:6024   */\n          tag_166\n            /* \"#utility.yul\":6020:6022   */\n          0x20\n            /* \"#utility.yul\":6009:6018   */\n          dup4\n            /* \"#utility.yul\":6005:6023   */\n          add\n            /* \"#utility.yul\":5996:6002   */\n          dup6\n            /* \"#utility.yul\":5952:6024   */\n          tag_91\n          jump\t// in\n        tag_166:\n            /* \"#utility.yul\":6034:6106   */\n          tag_167\n            /* \"#utility.yul\":6102:6104   */\n          0x40\n            /* \"#utility.yul\":6091:6100   */\n          dup4\n            /* \"#utility.yul\":6087:6105   */\n          add\n            /* \"#utility.yul\":6078:6084   */\n          dup5\n            /* \"#utility.yul\":6034:6106   */\n          tag_92\n          jump\t// in\n        tag_167:\n            /* \"#utility.yul\":5671:6113   */\n          swap5\n          swap4\n          pop\n          pop\n          pop\n          pop\n          jump\t// out\n            /* \"#utility.yul\":6119:6299   */\n        tag_95:\n            /* \"#utility.yul\":6167:6244   */\n          0x4e487b7100000000000000000000000000000000000000000000000000000000\n            /* \"#utility.yul\":6164:6165   */\n          0x00\n            /* \"#utility.yul\":6157:6245   */\n          mstore\n            /* \"#utility.yul\":6264:6268   */\n          0x12\n            /* \"#utility.yul\":6261:6262   */\n          0x04\n            /* \"#utility.yul\":6254:6269   */\n          mstore\n            /* \"#utility.yul\":6288:6292   */\n          0x24\n            /* \"#utility.yul\":6285:6286   */\n          0x00\n            /* \"#utility.yul\":6278:6293   */\n          revert\n            /* \"#utility.yul\":6305:6490   */\n        tag_66:\n            /* \"#utility.yul\":6345:6346   */\n          0x00\n            /* \"#utility.yul\":6362:6382   */\n          tag_170\n            /* \"#utility.yul\":6380:6381   */\n          dup3\n            /* \"#utility.yul\":6362:6382   */\n          tag_88\n          jump\t// in\n        tag_170:\n            /* \"#utility.yul\":6357:6382   */\n          swap2\n          pop\n            /* \"#utility.yul\":6396:6416   */\n          tag_171\n            /* \"#utility.yul\":6414:6415   */\n          dup4\n            /* \"#utility.yul\":6396:6416   */\n          tag_88\n          jump\t// in\n        tag_171:\n            /* \"#utility.yul\":6391:6416   */\n          swap3\n          pop\n            /* \"#utility.yul\":6435:6436   */\n          dup3\n            /* \"#utility.yul\":6425:6460   */\n          tag_172\n          jumpi\n            /* \"#utility.yul\":6440:6458   */\n          tag_173\n          tag_95\n          jump\t// in\n        tag_173:\n            /* \"#utility.yul\":6425:6460   */\n        tag_172:\n            /* \"#utility.yul\":6482:6483   */\n          dup3\n            /* \"#utility.yul\":6479:6480   */\n          dup3\n            /* \"#utility.yul\":6475:6484   */\n          div\n            /* \"#utility.yul\":6470:6484   */\n          swap1\n          pop\n            /* \"#utility.yul\":6305:6490   */\n          swap3\n          swap2\n          pop\n          pop\n          jump\t// out\n\n        auxdata: 0xa2646970667358221220e0310063624b1b27eb35f2a73ab330b24d3e630383ea3577c32eea38c63c33bd64736f6c63430008190033\n    }\n}\n",
				"bytecode": {
					"linkReferences": {},
					"object": "608060405234801561000f575f80fd5b503060405161001d90610084565b61002791906100d0565b604051809103905ff080158015610040573d5f803e3d5ffd5b505f806101000a81548173ffffffffffffffffffffffffffffffffffffffff021916908373ffffffffffffffffffffffffffffffffffffffff1602179055506100e9565b61103180610c7e83390190565b5f73ffffffffffffffffffffffffffffffffffffffff82169050919050565b5f6100ba82610091565b9050919050565b6100ca816100b0565b82525050565b5f6020820190506100e35f8301846100c1565b92915050565b610b88806100f65f395ff3fe608060405234801561000f575f80fd5b5060043610610060575f3560e01c806310abd783146100645780635be8c71c14610080578063689a12441461009c5780637a2b6159146100ba5780638d977672146100d6578063d43d129f14610109575b5f80fd5b61007e600480360381019061007991906108e6565b610125565b005b61009a600480360381019061009591906108e6565b6101de565b005b6100a4610491565b6040516100b1919061098b565b60405180910390f35b6100d460048036038101906100cf91906109df565b6104b4565b005b6100f060048036038101906100eb91906108e6565b610752565b6040516101009493929190610a55565b60405180910390f35b610123600480360381019061011e91906108e6565b6107d8565b005b5f6001828154811061013a57610139610a98565b5b905f5260205f20906003020190508060020160149054906101000a900460ff1615610163575f80fd5b3373ffffffffffffffffffffffffffffffffffffffff16816002015f9054906101000a900473ffffffffffffffffffffffffffffffffffffffff1673ffffffffffffffffffffffffffffffffffffffff16146101bd575f80fd5b60018160020160146101000a81548160ff0219169083151502179055505050565b805f600182815481106101f4576101f3610a98565b5b905f5260205f20906003020190508060020160149054906101000a900460ff1661021c575f80fd5b3373ffffffffffffffffffffffffffffffffffffffff16815f015f9054906101000a900473ffffffffffffffffffffffffffffffffffffffff1673ffffffffffffffffffffffffffffffffffffffff1614610275575f80fd5b5f6001848154811061028a57610289610a98565b5b905f5260205f2090600302016040518060800160405290815f82015f9054906101000a900473ffffffffffffffffffffffffffffffffffffffff1673ffffffffffffffffffffffffffffffffffffffff1673ffffffffffffffffffffffffffffffffffffffff16815260200160018201548152602001600282015f9054906101000a900473ffffffffffffffffffffffffffffffffffffffff1673ffffffffffffffffffffffffffffffffffffffff1673ffffffffffffffffffffffffffffffffffffffff1681526020016002820160149054906101000a900460ff16151515158152505090505f8054906101000a900473ffffffffffffffffffffffffffffffffffffffff1673ffffffffffffffffffffffffffffffffffffffff166323b872dd30836040015184602001516040518463ffffffff1660e01b81526004016103d593929190610ac5565b5f604051808303815f87803b1580156103ec575f80fd5b505af11580156103fe573d5f803e3d5ffd5b505050506001848154811061041657610415610a98565b5b905f5260205f2090600302015f8082015f6101000a81549073ffffffffffffffffffffffffffffffffffffffff0219169055600182015f9055600282015f6101000a81549073ffffffffffffffffffffffffffffffffffffffff02191690556002820160146101000a81549060ff0219169055505050505050565b5f8054906101000a900473ffffffffffffffffffffffffffffffffffffffff1681565b805f8054906101000a900473ffffffffffffffffffffffffffffffffffffffff1673ffffffffffffffffffffffffffffffffffffffff166389b08f11336040518263ffffffff1660e01b815260040161050d9190610afa565b602060405180830381865afa158015610528573d5f803e3d5ffd5b505050506040513d601f19601f8201168201806040525081019061054c9190610b27565b1015610556575f80fd5b8173ffffffffffffffffffffffffffffffffffffffff163373ffffffffffffffffffffffffffffffffffffffff160361058d575f80fd5b5f8111610598575f80fd5b5f8054906101000a900473ffffffffffffffffffffffffffffffffffffffff1673ffffffffffffffffffffffffffffffffffffffff166323b872dd3330846040518463ffffffff1660e01b81526004016105f493929190610ac5565b5f604051808303815f87803b15801561060b575f80fd5b505af115801561061d573d5f803e3d5ffd5b50505050600160405180608001604052803373ffffffffffffffffffffffffffffffffffffffff1681526020018381526020018473ffffffffffffffffffffffffffffffffffffffff1681526020015f1515815250908060018154018082558091505060019003905f5260205f2090600302015f909190919091505f820151815f015f6101000a81548173ffffffffffffffffffffffffffffffffffffffff021916908373ffffffffffffffffffffffffffffffffffffffff160217905550602082015181600101556040820151816002015f6101000a81548173ffffffffffffffffffffffffffffffffffffffff021916908373ffffffffffffffffffffffffffffffffffffffff16021790555060608201518160020160146101000a81548160ff02191690831515021790555050505050565b60018181548110610761575f80fd5b905f5260205f2090600302015f91509050805f015f9054906101000a900473ffffffffffffffffffffffffffffffffffffffff1690806001015490806002015f9054906101000a900473ffffffffffffffffffffffffffffffffffffffff16908060020160149054906101000a900460ff16905084565b805f600182815481106107ee576107ed610a98565b5b905f5260205f20906003020190508060020160149054906101000a900460ff16610816575f80fd5b3373ffffffffffffffffffffffffffffffffffffffff16815f015f9054906101000a900473ffffffffffffffffffffffffffffffffffffffff1673ffffffffffffffffffffffffffffffffffffffff161461086f575f80fd5b5f6001848154811061088457610883610a98565b5b905f5260205f20906003020160020160146101000a81548160ff021916908315150217905550505050565b5f80fd5b5f819050919050565b6108c5816108b3565b81146108cf575f80fd5b50565b5f813590506108e0816108bc565b92915050565b5f602082840312156108fb576108fa6108af565b5b5f610908848285016108d2565b91505092915050565b5f73ffffffffffffffffffffffffffffffffffffffff82169050919050565b5f819050919050565b5f61095361094e61094984610911565b610930565b610911565b9050919050565b5f61096482610939565b9050919050565b5f6109758261095a565b9050919050565b6109858161096b565b82525050565b5f60208201905061099e5f83018461097c565b92915050565b5f6109ae82610911565b9050919050565b6109be816109a4565b81146109c8575f80fd5b50565b5f813590506109d9816109b5565b92915050565b5f80604083850312156109f5576109f46108af565b5b5f610a02858286016109cb565b9250506020610a13858286016108d2565b9150509250929050565b610a26816109a4565b82525050565b610a35816108b3565b82525050565b5f8115159050919050565b610a4f81610a3b565b82525050565b5f608082019050610a685f830187610a1d565b610a756020830186610a2c565b610a826040830185610a1d565b610a8f6060830184610a46565b95945050505050565b7f4e487b71000000000000000000000000000000000000000000000000000000005f52603260045260245ffd5b5f606082019050610ad85f830186610a1d565b610ae56020830185610a1d565b610af26040830184610a2c565b949350505050565b5f602082019050610b0d5f830184610a1d565b92915050565b5f81519050610b21816108bc565b92915050565b5f60208284031215610b3c57610b3b6108af565b5b5f610b4984828501610b13565b9150509291505056fea26469706673582212202fbc843ff74377ce2601bc778a67fa8595584c667b01d98c1d76e539073725ed64736f6c6343000819003360806040526040518060400160405280600881526020017f53686974436f696e0000000000000000000000000000000000000000000000008152505f908161004791906103a6565b506040518060400160405280600381526020017f53485400000000000000000000000000000000000000000000000000000000008152506001908161008c91906103a6565b506298968060035534801561009f575f80fd5b5060405161103138038061103183398181016040528101906100c191906104d3565b8060045f6101000a81548173ffffffffffffffffffffffffffffffffffffffff021916908373ffffffffffffffffffffffffffffffffffffffff16021790555060035460025f60045f9054906101000a900473ffffffffffffffffffffffffffffffffffffffff1673ffffffffffffffffffffffffffffffffffffffff1673ffffffffffffffffffffffffffffffffffffffff1681526020019081526020015f2081905550506104fe565b5f81519050919050565b7f4e487b71000000000000000000000000000000000000000000000000000000005f52604160045260245ffd5b7f4e487b71000000000000000000000000000000000000000000000000000000005f52602260045260245ffd5b5f60028204905060018216806101e757607f821691505b6020821081036101fa576101f96101a3565b5b50919050565b5f819050815f5260205f209050919050565b5f6020601f8301049050919050565b5f82821b905092915050565b5f6008830261025c7fffffffffffffffffffffffffffffffffffffffffffffffffffffffffffffffff82610221565b6102668683610221565b95508019841693508086168417925050509392505050565b5f819050919050565b5f819050919050565b5f6102aa6102a56102a08461027e565b610287565b61027e565b9050919050565b5f819050919050565b6102c383610290565b6102d76102cf826102b1565b84845461022d565b825550505050565b5f90565b6102eb6102df565b6102f68184846102ba565b505050565b5b818110156103195761030e5f826102e3565b6001810190506102fc565b5050565b601f82111561035e5761032f81610200565b61033884610212565b81016020851015610347578190505b61035b61035385610212565b8301826102fb565b50505b505050565b5f82821c905092915050565b5f61037e5f1984600802610363565b1980831691505092915050565b5f610396838361036f565b9150826002028217905092915050565b6103af8261016c565b67ffffffffffffffff8111156103c8576103c7610176565b5b6103d282546101d0565b6103dd82828561031d565b5f60209050601f83116001811461040e575f84156103fc578287015190505b610406858261038b565b86555061046d565b601f19841661041c86610200565b5f5b828110156104435784890151825560018201915060208501945060208101905061041e565b86831015610460578489015161045c601f89168261036f565b8355505b6001600288020188555050505b505050505050565b5f80fd5b5f73ffffffffffffffffffffffffffffffffffffffff82169050919050565b5f6104a282610479565b9050919050565b6104b281610498565b81146104bc575f80fd5b50565b5f815190506104cd816104a9565b92915050565b5f602082840312156104e8576104e7610475565b5b5f6104f5848285016104bf565b91505092915050565b610b268061050b5f395ff3fe60806040526004361061006f575f3560e01c806389b08f111161004d57806389b08f11146100ef57806395d89b411461012b578063a6f2ae3a14610155578063a9059cbb1461015f5761006f565b806306fdde031461007357806323b872dd1461009d57806380f55605146100c5575b5f80fd5b34801561007e575f80fd5b50610087610187565b60405161009491906107b4565b60405180910390f35b3480156100a8575f80fd5b506100c360048036038101906100be9190610865565b610212565b005b3480156100d0575f80fd5b506100d96103d0565b6040516100e691906108c4565b60405180910390f35b3480156100fa575f80fd5b50610115600480360381019061011091906108dd565b6103f5565b6040516101229190610917565b60405180910390f35b348015610136575f80fd5b5061013f61040a565b60405161014c91906107b4565b60405180910390f35b61015d610496565b005b34801561016a575f80fd5b5061018560048036038101906101809190610930565b6105df565b005b5f80546101939061099b565b80601f01602080910402602001604051908101604052809291908181526020018280546101bf9061099b565b801561020a5780601f106101e15761010080835404028352916020019161020a565b820191905f5260205f20905b8154815290600101906020018083116101ed57829003601f168201915b505050505081565b60045f9054906101000a900473ffffffffffffffffffffffffffffffffffffffff1673ffffffffffffffffffffffffffffffffffffffff163373ffffffffffffffffffffffffffffffffffffffff161461026a575f80fd5b8173ffffffffffffffffffffffffffffffffffffffff168373ffffffffffffffffffffffffffffffffffffffff16036102a1575f80fd5b8060025f8573ffffffffffffffffffffffffffffffffffffffff1673ffffffffffffffffffffffffffffffffffffffff1681526020019081526020015f205410156102ea575f80fd5b8060025f8573ffffffffffffffffffffffffffffffffffffffff1673ffffffffffffffffffffffffffffffffffffffff1681526020019081526020015f205f82825461033691906109f8565b925050819055508060025f8473ffffffffffffffffffffffffffffffffffffffff1673ffffffffffffffffffffffffffffffffffffffff1681526020019081526020015f205f8282546103899190610a2b565b925050819055507fddf252ad1be2c89b69c2b068fc378daa952ba7f163c4a11628f55a4df523b3ef8383836040516103c393929190610a5e565b60405180910390a1505050565b60045f9054906101000a900473ffffffffffffffffffffffffffffffffffffffff1681565b6002602052805f5260405f205f915090505481565b600180546104179061099b565b80601f01602080910402602001604051908101604052809291908181526020018280546104439061099b565b801561048e5780601f106104655761010080835404028352916020019161048e565b820191905f5260205f20905b81548152906001019060200180831161047157829003601f168201915b505050505081565b5f655af3107a4000346104a99190610ac0565b90508060025f60045f9054906101000a900473ffffffffffffffffffffffffffffffffffffffff1673ffffffffffffffffffffffffffffffffffffffff1673ffffffffffffffffffffffffffffffffffffffff1681526020019081526020015f20541015610515575f80fd5b8060025f60045f9054906101000a900473ffffffffffffffffffffffffffffffffffffffff1673ffffffffffffffffffffffffffffffffffffffff1673ffffffffffffffffffffffffffffffffffffffff1681526020019081526020015f205f82825461058291906109f8565b925050819055508060025f3373ffffffffffffffffffffffffffffffffffffffff1673ffffffffffffffffffffffffffffffffffffffff1681526020019081526020015f205f8282546105d59190610a2b565b9250508190555050565b8173ffffffffffffffffffffffffffffffffffffffff163373ffffffffffffffffffffffffffffffffffffffff1603610616575f80fd5b8060025f3373ffffffffffffffffffffffffffffffffffffffff1673ffffffffffffffffffffffffffffffffffffffff1681526020019081526020015f2054101561065f575f80fd5b8060025f3373ffffffffffffffffffffffffffffffffffffffff1673ffffffffffffffffffffffffffffffffffffffff1681526020019081526020015f205f8282546106ab91906109f8565b925050819055508060025f8473ffffffffffffffffffffffffffffffffffffffff1673ffffffffffffffffffffffffffffffffffffffff1681526020019081526020015f205f8282546106fe9190610a2b565b925050819055507fddf252ad1be2c89b69c2b068fc378daa952ba7f163c4a11628f55a4df523b3ef33838360405161073893929190610a5e565b60405180910390a15050565b5f81519050919050565b5f82825260208201905092915050565b8281835e5f83830152505050565b5f601f19601f8301169050919050565b5f61078682610744565b610790818561074e565b93506107a081856020860161075e565b6107a98161076c565b840191505092915050565b5f6020820190508181035f8301526107cc818461077c565b905092915050565b5f80fd5b5f73ffffffffffffffffffffffffffffffffffffffff82169050919050565b5f610801826107d8565b9050919050565b610811816107f7565b811461081b575f80fd5b50565b5f8135905061082c81610808565b92915050565b5f819050919050565b61084481610832565b811461084e575f80fd5b50565b5f8135905061085f8161083b565b92915050565b5f805f6060848603121561087c5761087b6107d4565b5b5f6108898682870161081e565b935050602061089a8682870161081e565b92505060406108ab86828701610851565b9150509250925092565b6108be816107f7565b82525050565b5f6020820190506108d75f8301846108b5565b92915050565b5f602082840312156108f2576108f16107d4565b5b5f6108ff8482850161081e565b91505092915050565b61091181610832565b82525050565b5f60208201905061092a5f830184610908565b92915050565b5f8060408385031215610946576109456107d4565b5b5f6109538582860161081e565b925050602061096485828601610851565b9150509250929050565b7f4e487b71000000000000000000000000000000000000000000000000000000005f52602260045260245ffd5b5f60028204905060018216806109b257607f821691505b6020821081036109c5576109c461096e565b5b50919050565b7f4e487b71000000000000000000000000000000000000000000000000000000005f52601160045260245ffd5b5f610a0282610832565b9150610a0d83610832565b9250828203905081811115610a2557610a246109cb565b5b92915050565b5f610a3582610832565b9150610a4083610832565b9250828201905080821115610a5857610a576109cb565b5b92915050565b5f606082019050610a715f8301866108b5565b610a7e60208301856108b5565b610a8b6040830184610908565b949350505050565b7f4e487b71000000000000000000000000000000000000000000000000000000005f52601260045260245ffd5b5f610aca82610832565b9150610ad583610832565b925082610ae557610ae4610a93565b5b82820490509291505056fea2646970667358221220e0310063624b1b27eb35f2a73ab330b24d3e630383ea3577c32eea38c63c33bd64736f6c63430008190033",
					"opcodes": "PUSH1 0x80 PUSH1 0x40 MSTORE CALLVALUE DUP1 ISZERO PUSH2 0xF JUMPI PUSH0 DUP1 REVERT JUMPDEST POP ADDRESS PUSH1 0x40 MLOAD PUSH2 0x1D SWAP1 PUSH2 0x84 JUMP JUMPDEST PUSH2 0x27 SWAP2 SWAP1 PUSH2 0xD0 JUMP JUMPDEST PUSH1 0x40 MLOAD DUP1 SWAP2 SUB SWAP1 PUSH0 CREATE DUP1 ISZERO DUP1 ISZERO PUSH2 0x40 JUMPI RETURNDATASIZE PUSH0 DUP1 RETURNDATACOPY RETURNDATASIZE PUSH0 REVERT JUMPDEST POP PUSH0 DUP1 PUSH2 0x100 EXP DUP2 SLOAD DUP2 PUSH20 0xFFFFFFFFFFFFFFFFFFFFFFFFFFFFFFFFFFFFFFFF MUL NOT AND SWAP1 DUP4 PUSH20 0xFFFFFFFFFFFFFFFFFFFFFFFFFFFFFFFFFFFFFFFF AND MUL OR SWAP1 SSTORE POP PUSH2 0xE9 JUMP JUMPDEST PUSH2 0x1031 DUP1 PUSH2 0xC7E DUP4 CODECOPY ADD SWAP1 JUMP JUMPDEST PUSH0 PUSH20 0xFFFFFFFFFFFFFFFFFFFFFFFFFFFFFFFFFFFFFFFF DUP3 AND SWAP1 POP SWAP2 SWAP1 POP JUMP JUMPDEST PUSH0 PUSH2 0xBA DUP3 PUSH2 0x91 JUMP JUMPDEST SWAP1 POP SWAP2 SWAP1 POP JUMP JUMPDEST PUSH2 0xCA DUP2 PUSH2 0xB0 JUMP JUMPDEST DUP3 MSTORE POP POP JUMP JUMPDEST PUSH0 PUSH1 0x20 DUP3 ADD SWAP1 POP PUSH2 0xE3 PUSH0 DUP4 ADD DUP5 PUSH2 0xC1 JUMP JUMPDEST SWAP3 SWAP2 POP POP JUMP JUMPDEST PUSH2 0xB88 DUP1 PUSH2 0xF6 PUSH0 CODECOPY PUSH0 RETURN INVALID PUSH1 0x80 PUSH1 0x40 MSTORE CALLVALUE DUP1 ISZERO PUSH2 0xF JUMPI PUSH0 DUP1 REVERT JUMPDEST POP PUSH1 0x4 CALLDATASIZE LT PUSH2 0x60 JUMPI PUSH0 CALLDATALOAD PUSH1 0xE0 SHR DUP1 PUSH4 0x10ABD783 EQ PUSH2 0x64 JUMPI DUP1 PUSH4 0x5BE8C71C EQ PUSH2 0x80 JUMPI DUP1 PUSH4 0x689A1244 EQ PUSH2 0x9C JUMPI DUP1 PUSH4 0x7A2B6159 EQ PUSH2 0xBA JUMPI DUP1 PUSH4 0x8D977672 EQ PUSH2 0xD6 JUMPI DUP1 PUSH4 0xD43D129F EQ PUSH2 0x109 JUMPI JUMPDEST PUSH0 DUP1 REVERT JUMPDEST PUSH2 0x7E PUSH1 0x4 DUP1 CALLDATASIZE SUB DUP2 ADD SWAP1 PUSH2 0x79 SWAP2 SWAP1 PUSH2 0x8E6 JUMP JUMPDEST PUSH2 0x125 JUMP JUMPDEST STOP JUMPDEST PUSH2 0x9A PUSH1 0x4 DUP1 CALLDATASIZE SUB DUP2 ADD SWAP1 PUSH2 0x95 SWAP2 SWAP1 PUSH2 0x8E6 JUMP JUMPDEST PUSH2 0x1DE JUMP JUMPDEST STOP JUMPDEST PUSH2 0xA4 PUSH2 0x491 JUMP JUMPDEST PUSH1 0x40 MLOAD PUSH2 0xB1 SWAP2 SWAP1 PUSH2 0x98B JUMP JUMPDEST PUSH1 0x40 MLOAD DUP1 SWAP2 SUB SWAP1 RETURN JUMPDEST PUSH2 0xD4 PUSH1 0x4 DUP1 CALLDATASIZE SUB DUP2 ADD SWAP1 PUSH2 0xCF SWAP2 SWAP1 PUSH2 0x9DF JUMP JUMPDEST PUSH2 0x4B4 JUMP JUMPDEST STOP JUMPDEST PUSH2 0xF0 PUSH1 0x4 DUP1 CALLDATASIZE SUB DUP2 ADD SWAP1 PUSH2 0xEB SWAP2 SWAP1 PUSH2 0x8E6 JUMP JUMPDEST PUSH2 0x752 JUMP JUMPDEST PUSH1 0x40 MLOAD PUSH2 0x100 SWAP5 SWAP4 SWAP3 SWAP2 SWAP1 PUSH2 0xA55 JUMP JUMPDEST PUSH1 0x40 MLOAD DUP1 SWAP2 SUB SWAP1 RETURN JUMPDEST PUSH2 0x123 PUSH1 0x4 DUP1 CALLDATASIZE SUB DUP2 ADD SWAP1 PUSH2 0x11E SWAP2 SWAP1 PUSH2 0x8E6 JUMP JUMPDEST PUSH2 0x7D8 JUMP JUMPDEST STOP JUMPDEST PUSH0 PUSH1 0x1 DUP3 DUP2 SLOAD DUP2 LT PUSH2 0x13A JUMPI PUSH2 0x139 PUSH2 0xA98 JUMP JUMPDEST JUMPDEST SWAP1 PUSH0 MSTORE PUSH1 0x20 PUSH0 KECCAK256 SWAP1 PUSH1 0x3 MUL ADD SWAP1 POP DUP1 PUSH1 0x2 ADD PUSH1 0x14 SWAP1 SLOAD SWAP1 PUSH2 0x100 EXP SWAP1 DIV PUSH1 0xFF AND ISZERO PUSH2 0x163 JUMPI PUSH0 DUP1 REVERT JUMPDEST CALLER PUSH20 0xFFFFFFFFFFFFFFFFFFFFFFFFFFFFFFFFFFFFFFFF AND DUP2 PUSH1 0x2 ADD PUSH0 SWAP1 SLOAD SWAP1 PUSH2 0x100 EXP SWAP1 DIV PUSH20 0xFFFFFFFFFFFFFFFFFFFFFFFFFFFFFFFFFFFFFFFF AND PUSH20 0xFFFFFFFFFFFFFFFFFFFFFFFFFFFFFFFFFFFFFFFF AND EQ PUSH2 0x1BD JUMPI PUSH0 DUP1 REVERT JUMPDEST PUSH1 0x1 DUP2 PUSH1 0x2 ADD PUSH1 0x14 PUSH2 0x100 EXP DUP2 SLOAD DUP2 PUSH1 0xFF MUL NOT AND SWAP1 DUP4 ISZERO ISZERO MUL OR SWAP1 SSTORE POP POP POP JUMP JUMPDEST DUP1 PUSH0 PUSH1 0x1 DUP3 DUP2 SLOAD DUP2 LT PUSH2 0x1F4 JUMPI PUSH2 0x1F3 PUSH2 0xA98 JUMP JUMPDEST JUMPDEST SWAP1 PUSH0 MSTORE PUSH1 0x20 PUSH0 KECCAK256 SWAP1 PUSH1 0x3 MUL ADD SWAP1 POP DUP1 PUSH1 0x2 ADD PUSH1 0x14 SWAP1 SLOAD SWAP1 PUSH2 0x100 EXP SWAP1 DIV PUSH1 0xFF AND PUSH2 0x21C JUMPI PUSH0 DUP1 REVERT JUMPDEST CALLER PUSH20 0xFFFFFFFFFFFFFFFFFFFFFFFFFFFFFFFFFFFFFFFF AND DUP2 PUSH0 ADD PUSH0 SWAP1 SLOAD SWAP1 PUSH2 0x100 EXP SWAP1 DIV PUSH20 0xFFFFFFFFFFFFFFFFFFFFFFFFFFFFFFFFFFFFFFFF AND PUSH20 0xFFFFFFFFFFFFFFFFFFFFFFFFFFFFFFFFFFFFFFFF AND EQ PUSH2 0x275 JUMPI PUSH0 DUP1 REVERT JUMPDEST PUSH0 PUSH1 0x1 DUP5 DUP2 SLOAD DUP2 LT PUSH2 0x28A JUMPI PUSH2 0x289 PUSH2 0xA98 JUMP JUMPDEST JUMPDEST SWAP1 PUSH0 MSTORE PUSH1 0x20 PUSH0 KECCAK256 SWAP1 PUSH1 0x3 MUL ADD PUSH1 0x40 MLOAD DUP1 PUSH1 0x80 ADD PUSH1 0x40 MSTORE SWAP1 DUP2 PUSH0 DUP3 ADD PUSH0 SWAP1 SLOAD SWAP1 PUSH2 0x100 EXP SWAP1 DIV PUSH20 0xFFFFFFFFFFFFFFFFFFFFFFFFFFFFFFFFFFFFFFFF AND PUSH20 0xFFFFFFFFFFFFFFFFFFFFFFFFFFFFFFFFFFFFFFFF AND PUSH20 0xFFFFFFFFFFFFFFFFFFFFFFFFFFFFFFFFFFFFFFFF AND DUP2 MSTORE PUSH1 0x20 ADD PUSH1 0x1 DUP3 ADD SLOAD DUP2 MSTORE PUSH1 0x20 ADD PUSH1 0x2 DUP3 ADD PUSH0 SWAP1 SLOAD SWAP1 PUSH2 0x100 EXP SWAP1 DIV PUSH20 0xFFFFFFFFFFFFFFFFFFFFFFFFFFFFFFFFFFFFFFFF AND PUSH20 0xFFFFFFFFFFFFFFFFFFFFFFFFFFFFFFFFFFFFFFFF AND PUSH20 0xFFFFFFFFFFFFFFFFFFFFFFFFFFFFFFFFFFFFFFFF AND DUP2 MSTORE PUSH1 0x20 ADD PUSH1 0x2 DUP3 ADD PUSH1 0x14 SWAP1 SLOAD SWAP1 PUSH2 0x100 EXP SWAP1 DIV PUSH1 0xFF AND ISZERO ISZERO ISZERO ISZERO DUP2 MSTORE POP POP SWAP1 POP PUSH0 DUP1 SLOAD SWAP1 PUSH2 0x100 EXP SWAP1 DIV PUSH20 0xFFFFFFFFFFFFFFFFFFFFFFFFFFFFFFFFFFFFFFFF AND PUSH20 0xFFFFFFFFFFFFFFFFFFFFFFFFFFFFFFFFFFFFFFFF AND PUSH4 0x23B872DD ADDRESS DUP4 PUSH1 0x40 ADD MLOAD DUP5 PUSH1 0x20 ADD MLOAD PUSH1 0x40 MLOAD DUP5 PUSH4 0xFFFFFFFF AND PUSH1 0xE0 SHL DUP2 MSTORE PUSH1 0x4 ADD PUSH2 0x3D5 SWAP4 SWAP3 SWAP2 SWAP1 PUSH2 0xAC5 JUMP JUMPDEST PUSH0 PUSH1 0x40 MLOAD DUP1 DUP4 SUB DUP2 PUSH0 DUP8 DUP1 EXTCODESIZE ISZERO DUP1 ISZERO PUSH2 0x3EC JUMPI PUSH0 DUP1 REVERT JUMPDEST POP GAS CALL ISZERO DUP1 ISZERO PUSH2 0x3FE JUMPI RETURNDATASIZE PUSH0 DUP1 RETURNDATACOPY RETURNDATASIZE PUSH0 REVERT JUMPDEST POP POP POP POP PUSH1 0x1 DUP5 DUP2 SLOAD DUP2 LT PUSH2 0x416 JUMPI PUSH2 0x415 PUSH2 0xA98 JUMP JUMPDEST JUMPDEST SWAP1 PUSH0 MSTORE PUSH1 0x20 PUSH0 KECCAK256 SWAP1 PUSH1 0x3 MUL ADD PUSH0 DUP1 DUP3 ADD PUSH0 PUSH2 0x100 EXP DUP2 SLOAD SWAP1 PUSH20 0xFFFFFFFFFFFFFFFFFFFFFFFFFFFFFFFFFFFFFFFF MUL NOT AND SWAP1 SSTORE PUSH1 0x1 DUP3 ADD PUSH0 SWAP1 SSTORE PUSH1 0x2 DUP3 ADD PUSH0 PUSH2 0x100 EXP DUP2 SLOAD SWAP1 PUSH20 0xFFFFFFFFFFFFFFFFFFFFFFFFFFFFFFFFFFFFFFFF MUL NOT AND SWAP1 SSTORE PUSH1 0x2 DUP3 ADD PUSH1 0x14 PUSH2 0x100 EXP DUP2 SLOAD SWAP1 PUSH1 0xFF MUL NOT AND SWAP1 SSTORE POP POP POP POP POP POP JUMP JUMPDEST PUSH0 DUP1 SLOAD SWAP1 PUSH2 0x100 EXP SWAP1 DIV PUSH20 0xFFFFFFFFFFFFFFFFFFFFFFFFFFFFFFFFFFFFFFFF AND DUP2 JUMP JUMPDEST DUP1 PUSH0 DUP1 SLOAD SWAP1 PUSH2 0x100 EXP SWAP1 DIV PUSH20 0xFFFFFFFFFFFFFFFFFFFFFFFFFFFFFFFFFFFFFFFF AND PUSH20 0xFFFFFFFFFFFFFFFFFFFFFFFFFFFFFFFFFFFFFFFF AND PUSH4 0x89B08F11 CALLER PUSH1 0x40 MLOAD DUP3 PUSH4 0xFFFFFFFF AND PUSH1 0xE0 SHL DUP2 MSTORE PUSH1 0x4 ADD PUSH2 0x50D SWAP2 SWAP1 PUSH2 0xAFA JUMP JUMPDEST PUSH1 0x20 PUSH1 0x40 MLOAD DUP1 DUP4 SUB DUP2 DUP7 GAS STATICCALL ISZERO DUP1 ISZERO PUSH2 0x528 JUMPI RETURNDATASIZE PUSH0 DUP1 RETURNDATACOPY RETURNDATASIZE PUSH0 REVERT JUMPDEST POP POP POP POP PUSH1 0x40 MLOAD RETURNDATASIZE PUSH1 0x1F NOT PUSH1 0x1F DUP3 ADD AND DUP3 ADD DUP1 PUSH1 0x40 MSTORE POP DUP2 ADD SWAP1 PUSH2 0x54C SWAP2 SWAP1 PUSH2 0xB27 JUMP JUMPDEST LT ISZERO PUSH2 0x556 JUMPI PUSH0 DUP1 REVERT JUMPDEST DUP2 PUSH20 0xFFFFFFFFFFFFFFFFFFFFFFFFFFFFFFFFFFFFFFFF AND CALLER PUSH20 0xFFFFFFFFFFFFFFFFFFFFFFFFFFFFFFFFFFFFFFFF AND SUB PUSH2 0x58D JUMPI PUSH0 DUP1 REVERT JUMPDEST PUSH0 DUP2 GT PUSH2 0x598 JUMPI PUSH0 DUP1 REVERT JUMPDEST PUSH0 DUP1 SLOAD SWAP1 PUSH2 0x100 EXP SWAP1 DIV PUSH20 0xFFFFFFFFFFFFFFFFFFFFFFFFFFFFFFFFFFFFFFFF AND PUSH20 0xFFFFFFFFFFFFFFFFFFFFFFFFFFFFFFFFFFFFFFFF AND PUSH4 0x23B872DD CALLER ADDRESS DUP5 PUSH1 0x40 MLOAD DUP5 PUSH4 0xFFFFFFFF AND PUSH1 0xE0 SHL DUP2 MSTORE PUSH1 0x4 ADD PUSH2 0x5F4 SWAP4 SWAP3 SWAP2 SWAP1 PUSH2 0xAC5 JUMP JUMPDEST PUSH0 PUSH1 0x40 MLOAD DUP1 DUP4 SUB DUP2 PUSH0 DUP8 DUP1 EXTCODESIZE ISZERO DUP1 ISZERO PUSH2 0x60B JUMPI PUSH0 DUP1 REVERT JUMPDEST POP GAS CALL ISZERO DUP1 ISZERO PUSH2 0x61D JUMPI RETURNDATASIZE PUSH0 DUP1 RETURNDATACOPY RETURNDATASIZE PUSH0 REVERT JUMPDEST POP POP POP POP PUSH1 0x1 PUSH1 0x40 MLOAD DUP1 PUSH1 0x80 ADD PUSH1 0x40 MSTORE DUP1 CALLER PUSH20 0xFFFFFFFFFFFFFFFFFFFFFFFFFFFFFFFFFFFFFFFF AND DUP2 MSTORE PUSH1 0x20 ADD DUP4 DUP2 MSTORE PUSH1 0x20 ADD DUP5 PUSH20 0xFFFFFFFFFFFFFFFFFFFFFFFFFFFFFFFFFFFFFFFF AND DUP2 MSTORE PUSH1 0x20 ADD PUSH0 ISZERO ISZERO DUP2 MSTORE POP SWAP1 DUP1 PUSH1 0x1 DUP2 SLOAD ADD DUP1 DUP3 SSTORE DUP1 SWAP2 POP POP PUSH1 0x1 SWAP1 SUB SWAP1 PUSH0 MSTORE PUSH1 0x20 PUSH0 KECCAK256 SWAP1 PUSH1 0x3 MUL ADD PUSH0 SWAP1 SWAP2 SWAP1 SWAP2 SWAP1 SWAP2 POP PUSH0 DUP3 ADD MLOAD DUP2 PUSH0 ADD PUSH0 PUSH2 0x100 EXP DUP2 SLOAD DUP2 PUSH20 0xFFFFFFFFFFFFFFFFFFFFFFFFFFFFFFFFFFFFFFFF MUL NOT AND SWAP1 DUP4 PUSH20 0xFFFFFFFFFFFFFFFFFFFFFFFFFFFFFFFFFFFFFFFF AND MUL OR SWAP1 SSTORE POP PUSH1 0x20 DUP3 ADD MLOAD DUP2 PUSH1 0x1 ADD SSTORE PUSH1 0x40 DUP3 ADD MLOAD DUP2 PUSH1 0x2 ADD PUSH0 PUSH2 0x100 EXP DUP2 SLOAD DUP2 PUSH20 0xFFFFFFFFFFFFFFFFFFFFFFFFFFFFFFFFFFFFFFFF MUL NOT AND SWAP1 DUP4 PUSH20 0xFFFFFFFFFFFFFFFFFFFFFFFFFFFFFFFFFFFFFFFF AND MUL OR SWAP1 SSTORE POP PUSH1 0x60 DUP3 ADD MLOAD DUP2 PUSH1 0x2 ADD PUSH1 0x14 PUSH2 0x100 EXP DUP2 SLOAD DUP2 PUSH1 0xFF MUL NOT AND SWAP1 DUP4 ISZERO ISZERO MUL OR SWAP1 SSTORE POP POP POP POP POP JUMP JUMPDEST PUSH1 0x1 DUP2 DUP2 SLOAD DUP2 LT PUSH2 0x761 JUMPI PUSH0 DUP1 REVERT JUMPDEST SWAP1 PUSH0 MSTORE PUSH1 0x20 PUSH0 KECCAK256 SWAP1 PUSH1 0x3 MUL ADD PUSH0 SWAP2 POP SWAP1 POP DUP1 PUSH0 ADD PUSH0 SWAP1 SLOAD SWAP1 PUSH2 0x100 EXP SWAP1 DIV PUSH20 0xFFFFFFFFFFFFFFFFFFFFFFFFFFFFFFFFFFFFFFFF AND SWAP1 DUP1 PUSH1 0x1 ADD SLOAD SWAP1 DUP1 PUSH1 0x2 ADD PUSH0 SWAP1 SLOAD SWAP1 PUSH2 0x100 EXP SWAP1 DIV PUSH20 0xFFFFFFFFFFFFFFFFFFFFFFFFFFFFFFFFFFFFFFFF AND SWAP1 DUP1 PUSH1 0x2 ADD PUSH1 0x14 SWAP1 SLOAD SWAP1 PUSH2 0x100 EXP SWAP1 DIV PUSH1 0xFF AND SWAP1 POP DUP5 JUMP JUMPDEST DUP1 PUSH0 PUSH1 0x1 DUP3 DUP2 SLOAD DUP2 LT PUSH2 0x7EE JUMPI PUSH2 0x7ED PUSH2 0xA98 JUMP JUMPDEST JUMPDEST SWAP1 PUSH0 MSTORE PUSH1 0x20 PUSH0 KECCAK256 SWAP1 PUSH1 0x3 MUL ADD SWAP1 POP DUP1 PUSH1 0x2 ADD PUSH1 0x14 SWAP1 SLOAD SWAP1 PUSH2 0x100 EXP SWAP1 DIV PUSH1 0xFF AND PUSH2 0x816 JUMPI PUSH0 DUP1 REVERT JUMPDEST CALLER PUSH20 0xFFFFFFFFFFFFFFFFFFFFFFFFFFFFFFFFFFFFFFFF AND DUP2 PUSH0 ADD PUSH0 SWAP1 SLOAD SWAP1 PUSH2 0x100 EXP SWAP1 DIV PUSH20 0xFFFFFFFFFFFFFFFFFFFFFFFFFFFFFFFFFFFFFFFF AND PUSH20 0xFFFFFFFFFFFFFFFFFFFFFFFFFFFFFFFFFFFFFFFF AND EQ PUSH2 0x86F JUMPI PUSH0 DUP1 REVERT JUMPDEST PUSH0 PUSH1 0x1 DUP5 DUP2 SLOAD DUP2 LT PUSH2 0x884 JUMPI PUSH2 0x883 PUSH2 0xA98 JUMP JUMPDEST JUMPDEST SWAP1 PUSH0 MSTORE PUSH1 0x20 PUSH0 KECCAK256 SWAP1 PUSH1 0x3 MUL ADD PUSH1 0x2 ADD PUSH1 0x14 PUSH2 0x100 EXP DUP2 SLOAD DUP2 PUSH1 0xFF MUL NOT AND SWAP1 DUP4 ISZERO ISZERO MUL OR SWAP1 SSTORE POP POP POP POP JUMP JUMPDEST PUSH0 DUP1 REVERT JUMPDEST PUSH0 DUP2 SWAP1 POP SWAP2 SWAP1 POP JUMP JUMPDEST PUSH2 0x8C5 DUP2 PUSH2 0x8B3 JUMP JUMPDEST DUP2 EQ PUSH2 0x8CF JUMPI PUSH0 DUP1 REVERT JUMPDEST POP JUMP JUMPDEST PUSH0 DUP2 CALLDATALOAD SWAP1 POP PUSH2 0x8E0 DUP2 PUSH2 0x8BC JUMP JUMPDEST SWAP3 SWAP2 POP POP JUMP JUMPDEST PUSH0 PUSH1 0x20 DUP3 DUP5 SUB SLT ISZERO PUSH2 0x8FB JUMPI PUSH2 0x8FA PUSH2 0x8AF JUMP JUMPDEST JUMPDEST PUSH0 PUSH2 0x908 DUP5 DUP3 DUP6 ADD PUSH2 0x8D2 JUMP JUMPDEST SWAP2 POP POP SWAP3 SWAP2 POP POP JUMP JUMPDEST PUSH0 PUSH20 0xFFFFFFFFFFFFFFFFFFFFFFFFFFFFFFFFFFFFFFFF DUP3 AND SWAP1 POP SWAP2 SWAP1 POP JUMP JUMPDEST PUSH0 DUP2 SWAP1 POP SWAP2 SWAP1 POP JUMP JUMPDEST PUSH0 PUSH2 0x953 PUSH2 0x94E PUSH2 0x949 DUP5 PUSH2 0x911 JUMP JUMPDEST PUSH2 0x930 JUMP JUMPDEST PUSH2 0x911 JUMP JUMPDEST SWAP1 POP SWAP2 SWAP1 POP JUMP JUMPDEST PUSH0 PUSH2 0x964 DUP3 PUSH2 0x939 JUMP JUMPDEST SWAP1 POP SWAP2 SWAP1 POP JUMP JUMPDEST PUSH0 PUSH2 0x975 DUP3 PUSH2 0x95A JUMP JUMPDEST SWAP1 POP SWAP2 SWAP1 POP JUMP JUMPDEST PUSH2 0x985 DUP2 PUSH2 0x96B JUMP JUMPDEST DUP3 MSTORE POP POP JUMP JUMPDEST PUSH0 PUSH1 0x20 DUP3 ADD SWAP1 POP PUSH2 0x99E PUSH0 DUP4 ADD DUP5 PUSH2 0x97C JUMP JUMPDEST SWAP3 SWAP2 POP POP JUMP JUMPDEST PUSH0 PUSH2 0x9AE DUP3 PUSH2 0x911 JUMP JUMPDEST SWAP1 POP SWAP2 SWAP1 POP JUMP JUMPDEST PUSH2 0x9BE DUP2 PUSH2 0x9A4 JUMP JUMPDEST DUP2 EQ PUSH2 0x9C8 JUMPI PUSH0 DUP1 REVERT JUMPDEST POP JUMP JUMPDEST PUSH0 DUP2 CALLDATALOAD SWAP1 POP PUSH2 0x9D9 DUP2 PUSH2 0x9B5 JUMP JUMPDEST SWAP3 SWAP2 POP POP JUMP JUMPDEST PUSH0 DUP1 PUSH1 0x40 DUP4 DUP6 SUB SLT ISZERO PUSH2 0x9F5 JUMPI PUSH2 0x9F4 PUSH2 0x8AF JUMP JUMPDEST JUMPDEST PUSH0 PUSH2 0xA02 DUP6 DUP3 DUP7 ADD PUSH2 0x9CB JUMP JUMPDEST SWAP3 POP POP PUSH1 0x20 PUSH2 0xA13 DUP6 DUP3 DUP7 ADD PUSH2 0x8D2 JUMP JUMPDEST SWAP2 POP POP SWAP3 POP SWAP3 SWAP1 POP JUMP JUMPDEST PUSH2 0xA26 DUP2 PUSH2 0x9A4 JUMP JUMPDEST DUP3 MSTORE POP POP JUMP JUMPDEST PUSH2 0xA35 DUP2 PUSH2 0x8B3 JUMP JUMPDEST DUP3 MSTORE POP POP JUMP JUMPDEST PUSH0 DUP2 ISZERO ISZERO SWAP1 POP SWAP2 SWAP1 POP JUMP JUMPDEST PUSH2 0xA4F DUP2 PUSH2 0xA3B JUMP JUMPDEST DUP3 MSTORE POP POP JUMP JUMPDEST PUSH0 PUSH1 0x80 DUP3 ADD SWAP1 POP PUSH2 0xA68 PUSH0 DUP4 ADD DUP8 PUSH2 0xA1D JUMP JUMPDEST PUSH2 0xA75 PUSH1 0x20 DUP4 ADD DUP7 PUSH2 0xA2C JUMP JUMPDEST PUSH2 0xA82 PUSH1 0x40 DUP4 ADD DUP6 PUSH2 0xA1D JUMP JUMPDEST PUSH2 0xA8F PUSH1 0x60 DUP4 ADD DUP5 PUSH2 0xA46 JUMP JUMPDEST SWAP6 SWAP5 POP POP POP POP POP JUMP JUMPDEST PUSH32 0x4E487B7100000000000000000000000000000000000000000000000000000000 PUSH0 MSTORE PUSH1 0x32 PUSH1 0x4 MSTORE PUSH1 0x24 PUSH0 REVERT JUMPDEST PUSH0 PUSH1 0x60 DUP3 ADD SWAP1 POP PUSH2 0xAD8 PUSH0 DUP4 ADD DUP7 PUSH2 0xA1D JUMP JUMPDEST PUSH2 0xAE5 PUSH1 0x20 DUP4 ADD DUP6 PUSH2 0xA1D JUMP JUMPDEST PUSH2 0xAF2 PUSH1 0x40 DUP4 ADD DUP5 PUSH2 0xA2C JUMP JUMPDEST SWAP5 SWAP4 POP POP POP POP JUMP JUMPDEST PUSH0 PUSH1 0x20 DUP3 ADD SWAP1 POP PUSH2 0xB0D PUSH0 DUP4 ADD DUP5 PUSH2 0xA1D JUMP JUMPDEST SWAP3 SWAP2 POP POP JUMP JUMPDEST PUSH0 DUP2 MLOAD SWAP1 POP PUSH2 0xB21 DUP2 PUSH2 0x8BC JUMP JUMPDEST SWAP3 SWAP2 POP POP JUMP JUMPDEST PUSH0 PUSH1 0x20 DUP3 DUP5 SUB SLT ISZERO PUSH2 0xB3C JUMPI PUSH2 0xB3B PUSH2 0x8AF JUMP JUMPDEST JUMPDEST PUSH0 PUSH2 0xB49 DUP5 DUP3 DUP6 ADD PUSH2 0xB13 JUMP JUMPDEST SWAP2 POP POP SWAP3 SWAP2 POP POP JUMP INVALID LOG2 PUSH5 0x6970667358 0x22 SLT KECCAK256 0x2F 0xBC DUP5 EXTCODEHASH 0xF7 NUMBER PUSH24 0xCE2601BC778A67FA8595584C667B01D98C1D76E539073725 0xED PUSH5 0x736F6C6343 STOP ADDMOD NOT STOP CALLER PUSH1 0x80 PUSH1 0x40 MSTORE PUSH1 0x40 MLOAD DUP1 PUSH1 0x40 ADD PUSH1 0x40 MSTORE DUP1 PUSH1 0x8 DUP2 MSTORE PUSH1 0x20 ADD PUSH32 0x53686974436F696E000000000000000000000000000000000000000000000000 DUP2 MSTORE POP PUSH0 SWAP1 DUP2 PUSH2 0x47 SWAP2 SWAP1 PUSH2 0x3A6 JUMP JUMPDEST POP PUSH1 0x40 MLOAD DUP1 PUSH1 0x40 ADD PUSH1 0x40 MSTORE DUP1 PUSH1 0x3 DUP2 MSTORE PUSH1 0x20 ADD PUSH32 0x5348540000000000000000000000000000000000000000000000000000000000 DUP2 MSTORE POP PUSH1 0x1 SWAP1 DUP2 PUSH2 0x8C SWAP2 SWAP1 PUSH2 0x3A6 JUMP JUMPDEST POP PUSH3 0x989680 PUSH1 0x3 SSTORE CALLVALUE DUP1 ISZERO PUSH2 0x9F JUMPI PUSH0 DUP1 REVERT JUMPDEST POP PUSH1 0x40 MLOAD PUSH2 0x1031 CODESIZE SUB DUP1 PUSH2 0x1031 DUP4 CODECOPY DUP2 DUP2 ADD PUSH1 0x40 MSTORE DUP2 ADD SWAP1 PUSH2 0xC1 SWAP2 SWAP1 PUSH2 0x4D3 JUMP JUMPDEST DUP1 PUSH1 0x4 PUSH0 PUSH2 0x100 EXP DUP2 SLOAD DUP2 PUSH20 0xFFFFFFFFFFFFFFFFFFFFFFFFFFFFFFFFFFFFFFFF MUL NOT AND SWAP1 DUP4 PUSH20 0xFFFFFFFFFFFFFFFFFFFFFFFFFFFFFFFFFFFFFFFF AND MUL OR SWAP1 SSTORE POP PUSH1 0x3 SLOAD PUSH1 0x2 PUSH0 PUSH1 0x4 PUSH0 SWAP1 SLOAD SWAP1 PUSH2 0x100 EXP SWAP1 DIV PUSH20 0xFFFFFFFFFFFFFFFFFFFFFFFFFFFFFFFFFFFFFFFF AND PUSH20 0xFFFFFFFFFFFFFFFFFFFFFFFFFFFFFFFFFFFFFFFF AND PUSH20 0xFFFFFFFFFFFFFFFFFFFFFFFFFFFFFFFFFFFFFFFF AND DUP2 MSTORE PUSH1 0x20 ADD SWAP1 DUP2 MSTORE PUSH1 0x20 ADD PUSH0 KECCAK256 DUP2 SWAP1 SSTORE POP POP PUSH2 0x4FE JUMP JUMPDEST PUSH0 DUP2 MLOAD SWAP1 POP SWAP2 SWAP1 POP JUMP JUMPDEST PUSH32 0x4E487B7100000000000000000000000000000000000000000000000000000000 PUSH0 MSTORE PUSH1 0x41 PUSH1 0x4 MSTORE PUSH1 0x24 PUSH0 REVERT JUMPDEST PUSH32 0x4E487B7100000000000000000000000000000000000000000000000000000000 PUSH0 MSTORE PUSH1 0x22 PUSH1 0x4 MSTORE PUSH1 0x24 PUSH0 REVERT JUMPDEST PUSH0 PUSH1 0x2 DUP3 DIV SWAP1 POP PUSH1 0x1 DUP3 AND DUP1 PUSH2 0x1E7 JUMPI PUSH1 0x7F DUP3 AND SWAP2 POP JUMPDEST PUSH1 0x20 DUP3 LT DUP2 SUB PUSH2 0x1FA JUMPI PUSH2 0x1F9 PUSH2 0x1A3 JUMP JUMPDEST JUMPDEST POP SWAP2 SWAP1 POP JUMP JUMPDEST PUSH0 DUP2 SWAP1 POP DUP2 PUSH0 MSTORE PUSH1 0x20 PUSH0 KECCAK256 SWAP1 POP SWAP2 SWAP1 POP JUMP JUMPDEST PUSH0 PUSH1 0x20 PUSH1 0x1F DUP4 ADD DIV SWAP1 POP SWAP2 SWAP1 POP JUMP JUMPDEST PUSH0 DUP3 DUP3 SHL SWAP1 POP SWAP3 SWAP2 POP POP JUMP JUMPDEST PUSH0 PUSH1 0x8 DUP4 MUL PUSH2 0x25C PUSH32 0xFFFFFFFFFFFFFFFFFFFFFFFFFFFFFFFFFFFFFFFFFFFFFFFFFFFFFFFFFFFFFFFF DUP3 PUSH2 0x221 JUMP JUMPDEST PUSH2 0x266 DUP7 DUP4 PUSH2 0x221 JUMP JUMPDEST SWAP6 POP DUP1 NOT DUP5 AND SWAP4 POP DUP1 DUP7 AND DUP5 OR SWAP3 POP POP POP SWAP4 SWAP3 POP POP POP JUMP JUMPDEST PUSH0 DUP2 SWAP1 POP SWAP2 SWAP1 POP JUMP JUMPDEST PUSH0 DUP2 SWAP1 POP SWAP2 SWAP1 POP JUMP JUMPDEST PUSH0 PUSH2 0x2AA PUSH2 0x2A5 PUSH2 0x2A0 DUP5 PUSH2 0x27E JUMP JUMPDEST PUSH2 0x287 JUMP JUMPDEST PUSH2 0x27E JUMP JUMPDEST SWAP1 POP SWAP2 SWAP1 POP JUMP JUMPDEST PUSH0 DUP2 SWAP1 POP SWAP2 SWAP1 POP JUMP JUMPDEST PUSH2 0x2C3 DUP4 PUSH2 0x290 JUMP JUMPDEST PUSH2 0x2D7 PUSH2 0x2CF DUP3 PUSH2 0x2B1 JUMP JUMPDEST DUP5 DUP5 SLOAD PUSH2 0x22D JUMP JUMPDEST DUP3 SSTORE POP POP POP POP JUMP JUMPDEST PUSH0 SWAP1 JUMP JUMPDEST PUSH2 0x2EB PUSH2 0x2DF JUMP JUMPDEST PUSH2 0x2F6 DUP2 DUP5 DUP5 PUSH2 0x2BA JUMP JUMPDEST POP POP POP JUMP JUMPDEST JUMPDEST DUP2 DUP2 LT ISZERO PUSH2 0x319 JUMPI PUSH2 0x30E PUSH0 DUP3 PUSH2 0x2E3 JUMP JUMPDEST PUSH1 0x1 DUP2 ADD SWAP1 POP PUSH2 0x2FC JUMP JUMPDEST POP POP JUMP JUMPDEST PUSH1 0x1F DUP3 GT ISZERO PUSH2 0x35E JUMPI PUSH2 0x32F DUP2 PUSH2 0x200 JUMP JUMPDEST PUSH2 0x338 DUP5 PUSH2 0x212 JUMP JUMPDEST DUP2 ADD PUSH1 0x20 DUP6 LT ISZERO PUSH2 0x347 JUMPI DUP2 SWAP1 POP JUMPDEST PUSH2 0x35B PUSH2 0x353 DUP6 PUSH2 0x212 JUMP JUMPDEST DUP4 ADD DUP3 PUSH2 0x2FB JUMP JUMPDEST POP POP JUMPDEST POP POP POP JUMP JUMPDEST PUSH0 DUP3 DUP3 SHR SWAP1 POP SWAP3 SWAP2 POP POP JUMP JUMPDEST PUSH0 PUSH2 0x37E PUSH0 NOT DUP5 PUSH1 0x8 MUL PUSH2 0x363 JUMP JUMPDEST NOT DUP1 DUP4 AND SWAP2 POP POP SWAP3 SWAP2 POP POP JUMP JUMPDEST PUSH0 PUSH2 0x396 DUP4 DUP4 PUSH2 0x36F JUMP JUMPDEST SWAP2 POP DUP3 PUSH1 0x2 MUL DUP3 OR SWAP1 POP SWAP3 SWAP2 POP POP JUMP JUMPDEST PUSH2 0x3AF DUP3 PUSH2 0x16C JUMP JUMPDEST PUSH8 0xFFFFFFFFFFFFFFFF DUP2 GT ISZERO PUSH2 0x3C8 JUMPI PUSH2 0x3C7 PUSH2 0x176 JUMP JUMPDEST JUMPDEST PUSH2 0x3D2 DUP3 SLOAD PUSH2 0x1D0 JUMP JUMPDEST PUSH2 0x3DD DUP3 DUP3 DUP6 PUSH2 0x31D JUMP JUMPDEST PUSH0 PUSH1 0x20 SWAP1 POP PUSH1 0x1F DUP4 GT PUSH1 0x1 DUP2 EQ PUSH2 0x40E JUMPI PUSH0 DUP5 ISZERO PUSH2 0x3FC JUMPI DUP3 DUP8 ADD MLOAD SWAP1 POP JUMPDEST PUSH2 0x406 DUP6 DUP3 PUSH2 0x38B JUMP JUMPDEST DUP7 SSTORE POP PUSH2 0x46D JUMP JUMPDEST PUSH1 0x1F NOT DUP5 AND PUSH2 0x41C DUP7 PUSH2 0x200 JUMP JUMPDEST PUSH0 JUMPDEST DUP3 DUP2 LT ISZERO PUSH2 0x443 JUMPI DUP5 DUP10 ADD MLOAD DUP3 SSTORE PUSH1 0x1 DUP3 ADD SWAP2 POP PUSH1 0x20 DUP6 ADD SWAP5 POP PUSH1 0x20 DUP2 ADD SWAP1 POP PUSH2 0x41E JUMP JUMPDEST DUP7 DUP4 LT ISZERO PUSH2 0x460 JUMPI DUP5 DUP10 ADD MLOAD PUSH2 0x45C PUSH1 0x1F DUP10 AND DUP3 PUSH2 0x36F JUMP JUMPDEST DUP4 SSTORE POP JUMPDEST PUSH1 0x1 PUSH1 0x2 DUP9 MUL ADD DUP9 SSTORE POP POP POP JUMPDEST POP POP POP POP POP POP JUMP JUMPDEST PUSH0 DUP1 REVERT JUMPDEST PUSH0 PUSH20 0xFFFFFFFFFFFFFFFFFFFFFFFFFFFFFFFFFFFFFFFF DUP3 AND SWAP1 POP SWAP2 SWAP1 POP JUMP JUMPDEST PUSH0 PUSH2 0x4A2 DUP3 PUSH2 0x479 JUMP JUMPDEST SWAP1 POP SWAP2 SWAP1 POP JUMP JUMPDEST PUSH2 0x4B2 DUP2 PUSH2 0x498 JUMP JUMPDEST DUP2 EQ PUSH2 0x4BC JUMPI PUSH0 DUP1 REVERT JUMPDEST POP JUMP JUMPDEST PUSH0 DUP2 MLOAD SWAP1 POP PUSH2 0x4CD DUP2 PUSH2 0x4A9 JUMP JUMPDEST SWAP3 SWAP2 POP POP JUMP JUMPDEST PUSH0 PUSH1 0x20 DUP3 DUP5 SUB SLT ISZERO PUSH2 0x4E8 JUMPI PUSH2 0x4E7 PUSH2 0x475 JUMP JUMPDEST JUMPDEST PUSH0 PUSH2 0x4F5 DUP5 DUP3 DUP6 ADD PUSH2 0x4BF JUMP JUMPDEST SWAP2 POP POP SWAP3 SWAP2 POP POP JUMP JUMPDEST PUSH2 0xB26 DUP1 PUSH2 0x50B PUSH0 CODECOPY PUSH0 RETURN INVALID PUSH1 0x80 PUSH1 0x40 MSTORE PUSH1 0x4 CALLDATASIZE LT PUSH2 0x6F JUMPI PUSH0 CALLDATALOAD PUSH1 0xE0 SHR DUP1 PUSH4 0x89B08F11 GT PUSH2 0x4D JUMPI DUP1 PUSH4 0x89B08F11 EQ PUSH2 0xEF JUMPI DUP1 PUSH4 0x95D89B41 EQ PUSH2 0x12B JUMPI DUP1 PUSH4 0xA6F2AE3A EQ PUSH2 0x155 JUMPI DUP1 PUSH4 0xA9059CBB EQ PUSH2 0x15F JUMPI PUSH2 0x6F JUMP JUMPDEST DUP1 PUSH4 0x6FDDE03 EQ PUSH2 0x73 JUMPI DUP1 PUSH4 0x23B872DD EQ PUSH2 0x9D JUMPI DUP1 PUSH4 0x80F55605 EQ PUSH2 0xC5 JUMPI JUMPDEST PUSH0 DUP1 REVERT JUMPDEST CALLVALUE DUP1 ISZERO PUSH2 0x7E JUMPI PUSH0 DUP1 REVERT JUMPDEST POP PUSH2 0x87 PUSH2 0x187 JUMP JUMPDEST PUSH1 0x40 MLOAD PUSH2 0x94 SWAP2 SWAP1 PUSH2 0x7B4 JUMP JUMPDEST PUSH1 0x40 MLOAD DUP1 SWAP2 SUB SWAP1 RETURN JUMPDEST CALLVALUE DUP1 ISZERO PUSH2 0xA8 JUMPI PUSH0 DUP1 REVERT JUMPDEST POP PUSH2 0xC3 PUSH1 0x4 DUP1 CALLDATASIZE SUB DUP2 ADD SWAP1 PUSH2 0xBE SWAP2 SWAP1 PUSH2 0x865 JUMP JUMPDEST PUSH2 0x212 JUMP JUMPDEST STOP JUMPDEST CALLVALUE DUP1 ISZERO PUSH2 0xD0 JUMPI PUSH0 DUP1 REVERT JUMPDEST POP PUSH2 0xD9 PUSH2 0x3D0 JUMP JUMPDEST PUSH1 0x40 MLOAD PUSH2 0xE6 SWAP2 SWAP1 PUSH2 0x8C4 JUMP JUMPDEST PUSH1 0x40 MLOAD DUP1 SWAP2 SUB SWAP1 RETURN JUMPDEST CALLVALUE DUP1 ISZERO PUSH2 0xFA JUMPI PUSH0 DUP1 REVERT JUMPDEST POP PUSH2 0x115 PUSH1 0x4 DUP1 CALLDATASIZE SUB DUP2 ADD SWAP1 PUSH2 0x110 SWAP2 SWAP1 PUSH2 0x8DD JUMP JUMPDEST PUSH2 0x3F5 JUMP JUMPDEST PUSH1 0x40 MLOAD PUSH2 0x122 SWAP2 SWAP1 PUSH2 0x917 JUMP JUMPDEST PUSH1 0x40 MLOAD DUP1 SWAP2 SUB SWAP1 RETURN JUMPDEST CALLVALUE DUP1 ISZERO PUSH2 0x136 JUMPI PUSH0 DUP1 REVERT JUMPDEST POP PUSH2 0x13F PUSH2 0x40A JUMP JUMPDEST PUSH1 0x40 MLOAD PUSH2 0x14C SWAP2 SWAP1 PUSH2 0x7B4 JUMP JUMPDEST PUSH1 0x40 MLOAD DUP1 SWAP2 SUB SWAP1 RETURN JUMPDEST PUSH2 0x15D PUSH2 0x496 JUMP JUMPDEST STOP JUMPDEST CALLVALUE DUP1 ISZERO PUSH2 0x16A JUMPI PUSH0 DUP1 REVERT JUMPDEST POP PUSH2 0x185 PUSH1 0x4 DUP1 CALLDATASIZE SUB DUP2 ADD SWAP1 PUSH2 0x180 SWAP2 SWAP1 PUSH2 0x930 JUMP JUMPDEST PUSH2 0x5DF JUMP JUMPDEST STOP JUMPDEST PUSH0 DUP1 SLOAD PUSH2 0x193 SWAP1 PUSH2 0x99B JUMP JUMPDEST DUP1 PUSH1 0x1F ADD PUSH1 0x20 DUP1 SWAP2 DIV MUL PUSH1 0x20 ADD PUSH1 0x40 MLOAD SWAP1 DUP2 ADD PUSH1 0x40 MSTORE DUP1 SWAP3 SWAP2 SWAP1 DUP2 DUP2 MSTORE PUSH1 0x20 ADD DUP3 DUP1 SLOAD PUSH2 0x1BF SWAP1 PUSH2 0x99B JUMP JUMPDEST DUP1 ISZERO PUSH2 0x20A JUMPI DUP1 PUSH1 0x1F LT PUSH2 0x1E1 JUMPI PUSH2 0x100 DUP1 DUP4 SLOAD DIV MUL DUP4 MSTORE SWAP2 PUSH1 0x20 ADD SWAP2 PUSH2 0x20A JUMP JUMPDEST DUP3 ADD SWAP2 SWAP1 PUSH0 MSTORE PUSH1 0x20 PUSH0 KECCAK256 SWAP1 JUMPDEST DUP2 SLOAD DUP2 MSTORE SWAP1 PUSH1 0x1 ADD SWAP1 PUSH1 0x20 ADD DUP1 DUP4 GT PUSH2 0x1ED JUMPI DUP3 SWAP1 SUB PUSH1 0x1F AND DUP3 ADD SWAP2 JUMPDEST POP POP POP POP POP DUP2 JUMP JUMPDEST PUSH1 0x4 PUSH0 SWAP1 SLOAD SWAP1 PUSH2 0x100 EXP SWAP1 DIV PUSH20 0xFFFFFFFFFFFFFFFFFFFFFFFFFFFFFFFFFFFFFFFF AND PUSH20 0xFFFFFFFFFFFFFFFFFFFFFFFFFFFFFFFFFFFFFFFF AND CALLER PUSH20 0xFFFFFFFFFFFFFFFFFFFFFFFFFFFFFFFFFFFFFFFF AND EQ PUSH2 0x26A JUMPI PUSH0 DUP1 REVERT JUMPDEST DUP2 PUSH20 0xFFFFFFFFFFFFFFFFFFFFFFFFFFFFFFFFFFFFFFFF AND DUP4 PUSH20 0xFFFFFFFFFFFFFFFFFFFFFFFFFFFFFFFFFFFFFFFF AND SUB PUSH2 0x2A1 JUMPI PUSH0 DUP1 REVERT JUMPDEST DUP1 PUSH1 0x2 PUSH0 DUP6 PUSH20 0xFFFFFFFFFFFFFFFFFFFFFFFFFFFFFFFFFFFFFFFF AND PUSH20 0xFFFFFFFFFFFFFFFFFFFFFFFFFFFFFFFFFFFFFFFF AND DUP2 MSTORE PUSH1 0x20 ADD SWAP1 DUP2 MSTORE PUSH1 0x20 ADD PUSH0 KECCAK256 SLOAD LT ISZERO PUSH2 0x2EA JUMPI PUSH0 DUP1 REVERT JUMPDEST DUP1 PUSH1 0x2 PUSH0 DUP6 PUSH20 0xFFFFFFFFFFFFFFFFFFFFFFFFFFFFFFFFFFFFFFFF AND PUSH20 0xFFFFFFFFFFFFFFFFFFFFFFFFFFFFFFFFFFFFFFFF AND DUP2 MSTORE PUSH1 0x20 ADD SWAP1 DUP2 MSTORE PUSH1 0x20 ADD PUSH0 KECCAK256 PUSH0 DUP3 DUP3 SLOAD PUSH2 0x336 SWAP2 SWAP1 PUSH2 0x9F8 JUMP JUMPDEST SWAP3 POP POP DUP2 SWAP1 SSTORE POP DUP1 PUSH1 0x2 PUSH0 DUP5 PUSH20 0xFFFFFFFFFFFFFFFFFFFFFFFFFFFFFFFFFFFFFFFF AND PUSH20 0xFFFFFFFFFFFFFFFFFFFFFFFFFFFFFFFFFFFFFFFF AND DUP2 MSTORE PUSH1 0x20 ADD SWAP1 DUP2 MSTORE PUSH1 0x20 ADD PUSH0 KECCAK256 PUSH0 DUP3 DUP3 SLOAD PUSH2 0x389 SWAP2 SWAP1 PUSH2 0xA2B JUMP JUMPDEST SWAP3 POP POP DUP2 SWAP1 SSTORE POP PUSH32 0xDDF252AD1BE2C89B69C2B068FC378DAA952BA7F163C4A11628F55A4DF523B3EF DUP4 DUP4 DUP4 PUSH1 0x40 MLOAD PUSH2 0x3C3 SWAP4 SWAP3 SWAP2 SWAP1 PUSH2 0xA5E JUMP JUMPDEST PUSH1 0x40 MLOAD DUP1 SWAP2 SUB SWAP1 LOG1 POP POP POP JUMP JUMPDEST PUSH1 0x4 PUSH0 SWAP1 SLOAD SWAP1 PUSH2 0x100 EXP SWAP1 DIV PUSH20 0xFFFFFFFFFFFFFFFFFFFFFFFFFFFFFFFFFFFFFFFF AND DUP2 JUMP JUMPDEST PUSH1 0x2 PUSH1 0x20 MSTORE DUP1 PUSH0 MSTORE PUSH1 0x40 PUSH0 KECCAK256 PUSH0 SWAP2 POP SWAP1 POP SLOAD DUP2 JUMP JUMPDEST PUSH1 0x1 DUP1 SLOAD PUSH2 0x417 SWAP1 PUSH2 0x99B JUMP JUMPDEST DUP1 PUSH1 0x1F ADD PUSH1 0x20 DUP1 SWAP2 DIV MUL PUSH1 0x20 ADD PUSH1 0x40 MLOAD SWAP1 DUP2 ADD PUSH1 0x40 MSTORE DUP1 SWAP3 SWAP2 SWAP1 DUP2 DUP2 MSTORE PUSH1 0x20 ADD DUP3 DUP1 SLOAD PUSH2 0x443 SWAP1 PUSH2 0x99B JUMP JUMPDEST DUP1 ISZERO PUSH2 0x48E JUMPI DUP1 PUSH1 0x1F LT PUSH2 0x465 JUMPI PUSH2 0x100 DUP1 DUP4 SLOAD DIV MUL DUP4 MSTORE SWAP2 PUSH1 0x20 ADD SWAP2 PUSH2 0x48E JUMP JUMPDEST DUP3 ADD SWAP2 SWAP1 PUSH0 MSTORE PUSH1 0x20 PUSH0 KECCAK256 SWAP1 JUMPDEST DUP2 SLOAD DUP2 MSTORE SWAP1 PUSH1 0x1 ADD SWAP1 PUSH1 0x20 ADD DUP1 DUP4 GT PUSH2 0x471 JUMPI DUP3 SWAP1 SUB PUSH1 0x1F AND DUP3 ADD SWAP2 JUMPDEST POP POP POP POP POP DUP2 JUMP JUMPDEST PUSH0 PUSH6 0x5AF3107A4000 CALLVALUE PUSH2 0x4A9 SWAP2 SWAP1 PUSH2 0xAC0 JUMP JUMPDEST SWAP1 POP DUP1 PUSH1 0x2 PUSH0 PUSH1 0x4 PUSH0 SWAP1 SLOAD SWAP1 PUSH2 0x100 EXP SWAP1 DIV PUSH20 0xFFFFFFFFFFFFFFFFFFFFFFFFFFFFFFFFFFFFFFFF AND PUSH20 0xFFFFFFFFFFFFFFFFFFFFFFFFFFFFFFFFFFFFFFFF AND PUSH20 0xFFFFFFFFFFFFFFFFFFFFFFFFFFFFFFFFFFFFFFFF AND DUP2 MSTORE PUSH1 0x20 ADD SWAP1 DUP2 MSTORE PUSH1 0x20 ADD PUSH0 KECCAK256 SLOAD LT ISZERO PUSH2 0x515 JUMPI PUSH0 DUP1 REVERT JUMPDEST DUP1 PUSH1 0x2 PUSH0 PUSH1 0x4 PUSH0 SWAP1 SLOAD SWAP1 PUSH2 0x100 EXP SWAP1 DIV PUSH20 0xFFFFFFFFFFFFFFFFFFFFFFFFFFFFFFFFFFFFFFFF AND PUSH20 0xFFFFFFFFFFFFFFFFFFFFFFFFFFFFFFFFFFFFFFFF AND PUSH20 0xFFFFFFFFFFFFFFFFFFFFFFFFFFFFFFFFFFFFFFFF AND DUP2 MSTORE PUSH1 0x20 ADD SWAP1 DUP2 MSTORE PUSH1 0x20 ADD PUSH0 KECCAK256 PUSH0 DUP3 DUP3 SLOAD PUSH2 0x582 SWAP2 SWAP1 PUSH2 0x9F8 JUMP JUMPDEST SWAP3 POP POP DUP2 SWAP1 SSTORE POP DUP1 PUSH1 0x2 PUSH0 CALLER PUSH20 0xFFFFFFFFFFFFFFFFFFFFFFFFFFFFFFFFFFFFFFFF AND PUSH20 0xFFFFFFFFFFFFFFFFFFFFFFFFFFFFFFFFFFFFFFFF AND DUP2 MSTORE PUSH1 0x20 ADD SWAP1 DUP2 MSTORE PUSH1 0x20 ADD PUSH0 KECCAK256 PUSH0 DUP3 DUP3 SLOAD PUSH2 0x5D5 SWAP2 SWAP1 PUSH2 0xA2B JUMP JUMPDEST SWAP3 POP POP DUP2 SWAP1 SSTORE POP POP JUMP JUMPDEST DUP2 PUSH20 0xFFFFFFFFFFFFFFFFFFFFFFFFFFFFFFFFFFFFFFFF AND CALLER PUSH20 0xFFFFFFFFFFFFFFFFFFFFFFFFFFFFFFFFFFFFFFFF AND SUB PUSH2 0x616 JUMPI PUSH0 DUP1 REVERT JUMPDEST DUP1 PUSH1 0x2 PUSH0 CALLER PUSH20 0xFFFFFFFFFFFFFFFFFFFFFFFFFFFFFFFFFFFFFFFF AND PUSH20 0xFFFFFFFFFFFFFFFFFFFFFFFFFFFFFFFFFFFFFFFF AND DUP2 MSTORE PUSH1 0x20 ADD SWAP1 DUP2 MSTORE PUSH1 0x20 ADD PUSH0 KECCAK256 SLOAD LT ISZERO PUSH2 0x65F JUMPI PUSH0 DUP1 REVERT JUMPDEST DUP1 PUSH1 0x2 PUSH0 CALLER PUSH20 0xFFFFFFFFFFFFFFFFFFFFFFFFFFFFFFFFFFFFFFFF AND PUSH20 0xFFFFFFFFFFFFFFFFFFFFFFFFFFFFFFFFFFFFFFFF AND DUP2 MSTORE PUSH1 0x20 ADD SWAP1 DUP2 MSTORE PUSH1 0x20 ADD PUSH0 KECCAK256 PUSH0 DUP3 DUP3 SLOAD PUSH2 0x6AB SWAP2 SWAP1 PUSH2 0x9F8 JUMP JUMPDEST SWAP3 POP POP DUP2 SWAP1 SSTORE POP DUP1 PUSH1 0x2 PUSH0 DUP5 PUSH20 0xFFFFFFFFFFFFFFFFFFFFFFFFFFFFFFFFFFFFFFFF AND PUSH20 0xFFFFFFFFFFFFFFFFFFFFFFFFFFFFFFFFFFFFFFFF AND DUP2 MSTORE PUSH1 0x20 ADD SWAP1 DUP2 MSTORE PUSH1 0x20 ADD PUSH0 KECCAK256 PUSH0 DUP3 DUP3 SLOAD PUSH2 0x6FE SWAP2 SWAP1 PUSH2 0xA2B JUMP JUMPDEST SWAP3 POP POP DUP2 SWAP1 SSTORE POP PUSH32 0xDDF252AD1BE2C89B69C2B068FC378DAA952BA7F163C4A11628F55A4DF523B3EF CALLER DUP4 DUP4 PUSH1 0x40 MLOAD PUSH2 0x738 SWAP4 SWAP3 SWAP2 SWAP1 PUSH2 0xA5E JUMP JUMPDEST PUSH1 0x40 MLOAD DUP1 SWAP2 SUB SWAP1 LOG1 POP POP JUMP JUMPDEST PUSH0 DUP2 MLOAD SWAP1 POP SWAP2 SWAP1 POP JUMP JUMPDEST PUSH0 DUP3 DUP3 MSTORE PUSH1 0x20 DUP3 ADD SWAP1 POP SWAP3 SWAP2 POP POP JUMP JUMPDEST DUP3 DUP2 DUP4 MCOPY PUSH0 DUP4 DUP4 ADD MSTORE POP POP POP JUMP JUMPDEST PUSH0 PUSH1 0x1F NOT PUSH1 0x1F DUP4 ADD AND SWAP1 POP SWAP2 SWAP1 POP JUMP JUMPDEST PUSH0 PUSH2 0x786 DUP3 PUSH2 0x744 JUMP JUMPDEST PUSH2 0x790 DUP2 DUP6 PUSH2 0x74E JUMP JUMPDEST SWAP4 POP PUSH2 0x7A0 DUP2 DUP6 PUSH1 0x20 DUP7 ADD PUSH2 0x75E JUMP JUMPDEST PUSH2 0x7A9 DUP2 PUSH2 0x76C JUMP JUMPDEST DUP5 ADD SWAP2 POP POP SWAP3 SWAP2 POP POP JUMP JUMPDEST PUSH0 PUSH1 0x20 DUP3 ADD SWAP1 POP DUP2 DUP2 SUB PUSH0 DUP4 ADD MSTORE PUSH2 0x7CC DUP2 DUP5 PUSH2 0x77C JUMP JUMPDEST SWAP1 POP SWAP3 SWAP2 POP POP JUMP JUMPDEST PUSH0 DUP1 REVERT JUMPDEST PUSH0 PUSH20 0xFFFFFFFFFFFFFFFFFFFFFFFFFFFFFFFFFFFFFFFF DUP3 AND SWAP1 POP SWAP2 SWAP1 POP JUMP JUMPDEST PUSH0 PUSH2 0x801 DUP3 PUSH2 0x7D8 JUMP JUMPDEST SWAP1 POP SWAP2 SWAP1 POP JUMP JUMPDEST PUSH2 0x811 DUP2 PUSH2 0x7F7 JUMP JUMPDEST DUP2 EQ PUSH2 0x81B JUMPI PUSH0 DUP1 REVERT JUMPDEST POP JUMP JUMPDEST PUSH0 DUP2 CALLDATALOAD SWAP1 POP PUSH2 0x82C DUP2 PUSH2 0x808 JUMP JUMPDEST SWAP3 SWAP2 POP POP JUMP JUMPDEST PUSH0 DUP2 SWAP1 POP SWAP2 SWAP1 POP JUMP JUMPDEST PUSH2 0x844 DUP2 PUSH2 0x832 JUMP JUMPDEST DUP2 EQ PUSH2 0x84E JUMPI PUSH0 DUP1 REVERT JUMPDEST POP JUMP JUMPDEST PUSH0 DUP2 CALLDATALOAD SWAP1 POP PUSH2 0x85F DUP2 PUSH2 0x83B JUMP JUMPDEST SWAP3 SWAP2 POP POP JUMP JUMPDEST PUSH0 DUP1 PUSH0 PUSH1 0x60 DUP5 DUP7 SUB SLT ISZERO PUSH2 0x87C JUMPI PUSH2 0x87B PUSH2 0x7D4 JUMP JUMPDEST JUMPDEST PUSH0 PUSH2 0x889 DUP7 DUP3 DUP8 ADD PUSH2 0x81E JUMP JUMPDEST SWAP4 POP POP PUSH1 0x20 PUSH2 0x89A DUP7 DUP3 DUP8 ADD PUSH2 0x81E JUMP JUMPDEST SWAP3 POP POP PUSH1 0x40 PUSH2 0x8AB DUP7 DUP3 DUP8 ADD PUSH2 0x851 JUMP JUMPDEST SWAP2 POP POP SWAP3 POP SWAP3 POP SWAP3 JUMP JUMPDEST PUSH2 0x8BE DUP2 PUSH2 0x7F7 JUMP JUMPDEST DUP3 MSTORE POP POP JUMP JUMPDEST PUSH0 PUSH1 0x20 DUP3 ADD SWAP1 POP PUSH2 0x8D7 PUSH0 DUP4 ADD DUP5 PUSH2 0x8B5 JUMP JUMPDEST SWAP3 SWAP2 POP POP JUMP JUMPDEST PUSH0 PUSH1 0x20 DUP3 DUP5 SUB SLT ISZERO PUSH2 0x8F2 JUMPI PUSH2 0x8F1 PUSH2 0x7D4 JUMP JUMPDEST JUMPDEST PUSH0 PUSH2 0x8FF DUP5 DUP3 DUP6 ADD PUSH2 0x81E JUMP JUMPDEST SWAP2 POP POP SWAP3 SWAP2 POP POP JUMP JUMPDEST PUSH2 0x911 DUP2 PUSH2 0x832 JUMP JUMPDEST DUP3 MSTORE POP POP JUMP JUMPDEST PUSH0 PUSH1 0x20 DUP3 ADD SWAP1 POP PUSH2 0x92A PUSH0 DUP4 ADD DUP5 PUSH2 0x908 JUMP JUMPDEST SWAP3 SWAP2 POP POP JUMP JUMPDEST PUSH0 DUP1 PUSH1 0x40 DUP4 DUP6 SUB SLT ISZERO PUSH2 0x946 JUMPI PUSH2 0x945 PUSH2 0x7D4 JUMP JUMPDEST JUMPDEST PUSH0 PUSH2 0x953 DUP6 DUP3 DUP7 ADD PUSH2 0x81E JUMP JUMPDEST SWAP3 POP POP PUSH1 0x20 PUSH2 0x964 DUP6 DUP3 DUP7 ADD PUSH2 0x851 JUMP JUMPDEST SWAP2 POP POP SWAP3 POP SWAP3 SWAP1 POP JUMP JUMPDEST PUSH32 0x4E487B7100000000000000000000000000000000000000000000000000000000 PUSH0 MSTORE PUSH1 0x22 PUSH1 0x4 MSTORE PUSH1 0x24 PUSH0 REVERT JUMPDEST PUSH0 PUSH1 0x2 DUP3 DIV SWAP1 POP PUSH1 0x1 DUP3 AND DUP1 PUSH2 0x9B2 JUMPI PUSH1 0x7F DUP3 AND SWAP2 POP JUMPDEST PUSH1 0x20 DUP3 LT DUP2 SUB PUSH2 0x9C5 JUMPI PUSH2 0x9C4 PUSH2 0x96E JUMP JUMPDEST JUMPDEST POP SWAP2 SWAP1 POP JUMP JUMPDEST PUSH32 0x4E487B7100000000000000000000000000000000000000000000000000000000 PUSH0 MSTORE PUSH1 0x11 PUSH1 0x4 MSTORE PUSH1 0x24 PUSH0 REVERT JUMPDEST PUSH0 PUSH2 0xA02 DUP3 PUSH2 0x832 JUMP JUMPDEST SWAP2 POP PUSH2 0xA0D DUP4 PUSH2 0x832 JUMP JUMPDEST SWAP3 POP DUP3 DUP3 SUB SWAP1 POP DUP2 DUP2 GT ISZERO PUSH2 0xA25 JUMPI PUSH2 0xA24 PUSH2 0x9CB JUMP JUMPDEST JUMPDEST SWAP3 SWAP2 POP POP JUMP JUMPDEST PUSH0 PUSH2 0xA35 DUP3 PUSH2 0x832 JUMP JUMPDEST SWAP2 POP PUSH2 0xA40 DUP4 PUSH2 0x832 JUMP JUMPDEST SWAP3 POP DUP3 DUP3 ADD SWAP1 POP DUP1 DUP3 GT ISZERO PUSH2 0xA58 JUMPI PUSH2 0xA57 PUSH2 0x9CB JUMP JUMPDEST JUMPDEST SWAP3 SWAP2 POP POP JUMP JUMPDEST PUSH0 PUSH1 0x60 DUP3 ADD SWAP1 POP PUSH2 0xA71 PUSH0 DUP4 ADD DUP7 PUSH2 0x8B5 JUMP JUMPDEST PUSH2 0xA7E PUSH1 0x20 DUP4 ADD DUP6 PUSH2 0x8B5 JUMP JUMPDEST PUSH2 0xA8B PUSH1 0x40 DUP4 ADD DUP5 PUSH2 0x908 JUMP JUMPDEST SWAP5 SWAP4 POP POP POP POP JUMP JUMPDEST PUSH32 0x4E487B7100000000000000000000000000000000000000000000000000000000 PUSH0 MSTORE PUSH1 0x12 PUSH1 0x4 MSTORE PUSH1 0x24 PUSH0 REVERT JUMPDEST PUSH0 PUSH2 0xACA DUP3 PUSH2 0x832 JUMP JUMPDEST SWAP2 POP PUSH2 0xAD5 DUP4 PUSH2 0x832 JUMP JUMPDEST SWAP3 POP DUP3 PUSH2 0xAE5 JUMPI PUSH2 0xAE4 PUSH2 0xA93 JUMP JUMPDEST JUMPDEST DUP3 DUP3 DIV SWAP1 POP SWAP3 SWAP2 POP POP JUMP INVALID LOG2 PUSH5 0x6970667358 0x22 SLT KECCAK256 0xE0 BALANCE STOP PUSH4 0x624B1B27 0xEB CALLDATALOAD CALLCODE 0xA7 GASPRICE 0xB3 ADDRESS 0xB2 0x4D RETURNDATACOPY PUSH4 0x383EA35 PUSH24 0xC32EEA38C63C33BD64736F6C634300081900330000000000 "
				},
				"gasEstimates": {
					"creation": {
						"codeDepositCost": "590400",
						"executionCost": "infinite",
						"totalCost": "infinite"
					},
					"external": {
						"AcceptTask(uint256)": "infinite",
						"FinishTask(uint256)": "31290",
						"NewTask(address,uint256)": "infinite",
						"RequestChanges(uint256)": "33589",
						"sht()": "infinite",
						"tasks(uint256)": "infinite"
					}
				},
				"methodIdentifiers": {
					"AcceptTask(uint256)": "5be8c71c",
					"FinishTask(uint256)": "10abd783",
					"NewTask(address,uint256)": "7a2b6159",
					"RequestChanges(uint256)": "d43d129f",
					"sht()": "689a1244",
					"tasks(uint256)": "8d977672"
				}
			},
			"storageLayout": {
				"storage": [
					{
						"astId": 169,
						"contract": "contracts/TaskMarket.sol:TaskMarket",
						"label": "sht",
						"offset": 0,
						"slot": "0",
						"type": "t_contract(Shitcoin)166"
					},
					{
						"astId": 182,
						"contract": "contracts/TaskMarket.sol:TaskMarket",
						"label": "tasks",
						"offset": 0,
						"slot": "1",
						"type": "t_array(t_struct(Task)178_storage)dyn_storage"
					}
				],
				"types": {
					"t_address": {
						"encoding": "inplace",
						"label": "address",
						"numberOfBytes": "20"
					},
					"t_array(t_struct(Task)178_storage)dyn_storage": {
						"base": "t_struct(Task)178_storage",
						"encoding": "dynamic_array",
						"label": "struct TaskMarket.Task[]",
						"numberOfBytes": "32"
					},
					"t_bool": {
						"encoding": "inplace",
						"label": "bool",
						"numberOfBytes": "1"
					},
					"t_contract(Shitcoin)166": {
						"encoding": "inplace",
						"label": "contract Shitcoin",
						"numberOfBytes": "20"
					},
					"t_struct(Task)178_storage": {
						"encoding": "inplace",
						"label": "struct TaskMarket.Task",
						"members": [
							{
								"astId": 171,
								"contract": "contracts/TaskMarket.sol:TaskMarket",
								"label": "owner",
								"offset": 0,
								"slot": "0",
								"type": "t_address"
							},
							{
								"astId": 173,
								"contract": "contracts/TaskMarket.sol:TaskMarket",
								"label": "payment",
								"offset": 0,
								"slot": "1",
								"type": "t_uint256"
							},
							{
								"astId": 175,
								"contract": "contracts/TaskMarket.sol:TaskMarket",
								"label": "rabbit",
								"offset": 0,
								"slot": "2",
								"type": "t_address"
							},
							{
								"astId": 177,
								"contract": "contracts/TaskMarket.sol:TaskMarket",
								"label": "done",
								"offset": 20,
								"slot": "2",
								"type": "t_bool"
							}
						],
						"numberOfBytes": "96"
					},
					"t_uint256": {
						"encoding": "inplace",
						"label": "uint256",
						"numberOfBytes": "32"
					}
				}
			},
			"userdoc": {
				"kind": "user",
				"methods": {},
				"version": 1
			}
		}
	}
}